:10140F005344204361726420546573742050726F8B
:10141F006772616D0A0D0A0A00496E707574204279
:10142F006C6F636B233A2000534420436172642036
:10143F00496E69742E2E2E005374642E20436170F2
:10144F0061636974790048696768204361706163FB
:04145F006974790033
:100B8700758E0C758F017F0F1216B67FE01216BE99
:100B97007F101216ADE4F526F527AE26AF27E4FC45
:100BA700FD7B607AEAF9F8C31208CF400A0527E50A
:100BB7002770E7052680E37F101216BE7F807E250B
:100BC70012156D1215357BFF7A14790F1204577BB6
:100BD700FF7A147937E4FDFF1211E77F807E1A7DD3
:100BE700067C0012115B8F28E528600C7F10121617
:100BF700AD7F5312161980FE7F401216AD12000307
:100C07008F28E528600C7F101216AD7F4312161946
:100C170080FE7F401216BE7F807E1A7D067C001202
:100C2700115B8F28E528600C7F101216AD7F5012DC
:100C3700161980FEE4F526F52774002527F582743A
:100C4700003526F58374FFF00527E5277002052692
:100C5700B400E6E526B402E112169E8F29E529B411
:100C6700090F7BFF7A147947E4FD7F401211E78073
:100C770010E529700C7BFF7A147955FD7F4012111E
:100C8700E77BFF7A147928120457120FD6A929A8EF
:100C9700011209098F258E248D238C227F8012163D
:100CA700ADE52860077F101216AD80FE752E027520
:100CB7002F007530017531007532007F007E007D91
:100CC700007C001213B18F287F801216BEE52860C2
:100CD700077F101216AD80FE7B017A0079007D0038
:070CE7007C02121352809AF7
:1014AB002570200025322E32625820004164647270
:1014BB002E202020302020312020322020332020CD
:1014CB00342020352020362020372020382020398A
:1014DB002020412020422020432020442020452052
:0514EB0020460A0D007F
:10126C008B328A3389348B428A4389447BFF7A14CC
:10127C0079AB120457E4F535AB32AA33A934853572
:10128C0082758300120751F5367BFF7A1479AFF51E
:10129C00421204570535E535C3941040DBE4F535AF
:1012AC00AB32AA33A934853582758300120751F508
:1012BC0036C394204007E536D3947F400375362E11
:1012CC00AF361216190535E535C3941040D27F0D93
:0812DC001216197F0A0216190F
:0A1352008B2A8A2B892C8C2D8D2EFE
:10135C008B2F8A308931AE02AF0153070F7E00C349
:10136C00E99FF9EA9E8B2FF53089317BFF7A14794E
:10137C00B7120457AB2FAA30A93112126C74102576
:10138C0031F531E43530F530AB2AE52C252EF9E575
:10139C002B352DFAEB8A838982C3E5319582E530B2
:0413AC00958340D015
:0113B000221A
:100979005344204361726420496E697469616C69EA
:100989007A6174696F6E202E2E2E200A0D00434D58
:1009990044302073656E74202E2E2E20005265730C
:1009A900706F6E7365203D2025322E3262580A0D14
:1009B90000434D44382073656E74202E2E2E20007E
:1009C900526573706F6E7365203D200025322E329B
:1009D9006258200A0D0056657273696F6E203120C6
:1009E900534420436172642064657465637465646B
:1009F9002E0A0D005374616E646172642043617044
:100A09006163697479204361726420646574656304
:100A19007465642E0A0D0025322E32625820005664
:100A2900657273696F6E203220534420436172648A
:100A39002064657465637465642E0A0D00434D4432
:100A490035382073656E74202E2E2E200041434DBB
:100A59004434312073656E74202E2E2E2000546983
:100A69006D656F7574203D20256C75200A0D004851
:100A790069676820436170616369747920436172B1
:100A8900642044657465637465640A0D0053746178
:100A99006E64617264204361706163697479204393
:100AA9006172642044657465637465640A0D00436A
:100AB9004D4431362073656E74202E2E2E2000523F
:100AC9006573706F6E7365203D2025322E32625832
:100AD900200A0D00426C6F636B2073697A6520737D
:100AE900657420746F203531322062797465730A18
:100AF9000D0053442054696D656F757420457272F9
:100B09006F7200496C6C6567616C20436F6D6D6134
:100B19006E640A0D00526573706F6E7365204572BD
:100B2900726F72004461746120546F6B656E204569
:100B390072726F7200496E636F6D70617469626C75
:100B49006520566F6C746167650043617264206942
:100B59007320496E61637469766500535049206F4B
:100B6900722054696D656F7574204572726F7200D9
:0E0B7900556E6B6E6F776E204572726F720054
:0B0CEE00E4F542F541F540F53F7F3A88
:020CF9008F3E2C
:100CFB00E4F544E53EC394404003020DF3E53E4466
:100D0B0040F5437B007A007945FF1214F08F46E5DE
:100D1B0046701CAF42AE41AD40AC3F78181208F69E
:100D2B008F437B007A0079451214F08F4680037550
:100D3B004487E544702FE546702BE542F542E541CB
:100D4B00F541E540F540E4F53FAF42AE41AD40AC77
:100D5B003F78101208F68F437B007A007945121406
:100D6B00F08F468003754487E544702DE546702966
:100D7B00E542F542E541F541E4F540F53FAF42AEC2
:100D8B0041AD40AC3F78081208F68F437B007A00E8
:100D9B0079451214F08F468003754487E54470182B
:100DAB00E5467014E542FFE48F43FB7A007945AFCB
:100DBB00431214F08F468003754487E544702CE58D
:100DCB00467028E53E7005754395800DE53EB408E9
:100DDB000575438780037543017B007A007945AF26
:0D0DEB00431214F08F468003754482AF441C
:010DF80022D8
:0710A700FB7A00792D7F01A7
:0810AE008F3E8B3F8A4089410F
:1010B600E4F545F546F5427B007A0079447FFF1258
:1010C60014F08F430546E54670020545E544B4FF36
:1010D6000AE54645456004E54360DCE54360057581
:1010E60042878061E546454570057542818056AB6D
:1010F6003FAA40A941E54412077EE5446004640125
:101106007040E53ED39401403C754500754601C3E9
:10111600E546953EE5459400502B7B007A007944E0
:101126007FFF1214F08F43AB3FAA40A94185468248
:10113600854583E5441207900546E54670D1054589
:1011460080CD7542837B007A0079447FFF1214F0CC
:041156008F43AF42D2
:01115A002272
:0A0DF9008E358F368B378A38893922
:100E0300E4F53DF53EF53B7B007A00793C7FFF122C
:100E130014F08F3A053EE53E7002053DE53C30E7B0
:100E23000AE53E453D6004E53A60DCE53A60067557
:100E33003B87020EE8E53E453D7006753B81020E99
:100E4300E8E53C6003020EE5F53DF53E7B007A00E4
:100E5300793C7FFF1214F08F3A053EE53E700205A0
:100E63003DE53CB4FF0AE53E453D6004E53A60DC00
:100E7300E53A6005753B87806CE53E453D70057539
:100E83003B818061E53C64FE7053F53DF53EC3E56F
:100E93003E9536E53D953550287B007A00793C7FB9
:100EA300FF1214F08F3AAB37AA38A939853E8285F1
:100EB3003D83E53C120790053EE53E70D1053D803C
:100EC300CD7B007A00793C7FFF1214F08F3A7B00D0
:100ED3007A00793C7FFF1214F08F3A8008753B84C7
:100EE3008003753B837B007A00793C7FFF1214F00B
:040EF3008F3AAF3B48
:010EF70022D8
:10000300E4F52B780B76FF7F101216B27BFF7A098B
:100013007979120457E4F52A7B007A0079357FFF5A
:100023001214F08F2C052AE52AC3940A40EA7F8034
:100033001216AD7BFF7A0979971204577F101216B7
:10004300A3E4F542F541F540F53FFF120CF98F2C7F
:10005300E52C70131210A78F2C7BFF7A0979A685E4
:100063002D4212045780057F101216AD7F10121611
:10007300B27F801216BEE52C6002F52BE52B6003E0
:100083000201627F801216AD7BFF7A0979BA1204EE
:10009300577F101216A3E47542AA754101F540F586
:1000A3003F7F08120CF98F2CE52C6003020153FBF0
:1000B3007A00792D7F051210AE8F2C7F101216B2A5
:1000C3007F801216BEE52C603F7BFF7A0979C91247
:1000D30004577BFF7A0979D5852D42120457E52C05
:1000E300B48320E52DB4051BE4F52B780B76097B4F
:1000F300FF7A0979DF1204577BFF7A0979FD12042D
:1001030057805C852C2B80577BFF7A0979C91204B1
:1001130057E4F52A7BFF7A0A7920742D252AF8E61D
:10012300F542120457052AE52AC3940540E67F0DDC
:100133001215CC7F0A1215CCE53164AA6003752C25
:1001430083780B76027BFF7A0A7928120457800F93
:100153007F101216B27F801216BE7F101216ADE505
:100163002B60030201ED7F801216AD7BFF7A0A79C3
:10017300461204577F101216A3120CEE8F2CE52C97
:100183007053FB7A00792D7F051210AE8F2C7F10F0
:100193001216B27F801216BE7BFF7A0979C9120448
:1001A30057E4F52A7BFF7A0A7920742D252AF8E68D
:1001B300F542120457052AE52AC3940540E67F0D4C
:1001C3001215CC7F0A1215CCE52F54FC64FC601485
:1001D300752C85800F7F101216B27F801216BE7F9A
:1001E300101216ADE52C6002F52BE52B600302021D
:1001F300DD780BE6B4020CE4F539F538F5377536DE
:10020300408009E4F539F538F537F536E4F53DF581
:100213003CF53BF53A7F201216AD7BFF7A0A7956FF
:100223001204577F101216A3E4F542F541F540F589
:100233003F7F37120CF98F2CE52C70051210A78F16
:100243002CE52D64016004E52D7013853942853852
:100253004185374085363F7F29120CF98F2CE52CD9
:1002630070031210A77F101216B2E53D2401F53D6D
:10027300E4353CF53CE4353BF53BE4353AF53AE40B
:10028300FFFEFDFCAB3DAA3CA93BA83AC31208E51F
:100293007003752C81E52D30E004E52C6085E52C99
:1002A30070137F201216BE7BFF7A0979A6852D4233
:1002B300120457800A7F801216BE7F101216AD7B80
:1002C300FF7A0A7967853D45853C44853B43853AFA
:1002D30042120457E52C6002F52BE52B6003020361
:1002E300EA780BE6640260030203EA7F801216AD2C
:1002F3007BFF7A0A79461204577F101216A3120C59
:10030300EE8F2CE52C60030203D0FB7A00792D7F5E
:10031300051210AE8F2C7F101216B27F801216BEFC
:100323007BFF7A0979C9120457E4F52A7BFF7A0A1D
:100333007920742D252AF8E6F542120457052AE59B
:100343002AC3940540E67F0D1215CC7F0A1215CC03
:10035300E52E20E706752C860203DFE52E54C0FF49
:10036300BFC00FE4780BF67BFF7A0A797812045743
:10037300806A780B76097BFF7A0A79961204577F95
:10038300801216AD7BFF7A0A79B81204577F1012D8
:1003930016A3E4F542754102F540F53F7F10120CB8
:1003A300F98F2CE52C70351210A78F2C7F101216A5
:1003B300B27F801216BE7BFF7A0A79C8852D42125E
:1003C30004577BFF7A0A79DD120457800F7F1012DE
:1003D30016B27F801216BE7F101216ADE52C600791
:1003E300F52BAF2B1212E4E52B6004FF1212E4AFDE
:0103F3002BDE
:0103F40022E6
:05169E00780BE6FF22BD
:1012E4008F3EE53EB481097BFF7A0A79FB020457FD
:1012F400E53EB482097BFF7A0B790C020457E53E84
:10130400B483097BFF7A0B791E020457E53EB4844B
:10131400097BFF7A0B792D020457E53EB485097BDE
:10132400FF7A0B793E020457E53EB486097BFF7AC7
:101334000B7953020457E53EB487097BFF7A0B7996
:0E134400640204577BFF7A0B7979120457225A
:10115B00E4F52AAB07AA06A905A804FF7E407D1972
:10116B007C0112083DEFD39402500575C370806962
:10117B00EFD39402400BEFD39404500575C37180E9
:10118B0058EFD39404400BEFD39408500575C372FA
:10119B008047EFD39408400BEFD39410500575C3E1
:1011AB00738036EFD39410400BEFD394205005751A
:1011BB00C3F08025EFD39420400BEFD39440500520
:1011CB0075C3F18014EFD39440400BEFD394805050
:0B11DB000575C3F28003752A0FAF2AD0
:0111E60022E6
:1014F000E4FDFC8FC5AFC47547008F480DBD0001EA
:101500000CE54854F07004ED4C70EAED4C601AE5BF
:10151000485470700AE5C512077EE4FCFD80137420
:10152000FF12077EE4FCFD800974FF12077E7C0039
:041530007D80AF0506
:011534002294
:0416B200EF42902251
:0516A300EFF45290225B
:10156D0053873F438780C2AC759852E4F59BFCFDD1
:10157D007BC0FAF9F81207B2A804A905AA06AB07B1
:10158D00E4FFFE7D2F7C0D12083DEFF404F59A75F6
:05159D009B1ED2992203
:10161900E4FDFC0DBD00010C209904ED4C70F4EDC6
:0F1629004C60088F99AE07C29980027EF1AF0620
:01163800228F
:07168F003098FDAF99C298ED
:011696002231
:101535007D38E4FF1215A27F017E001215F37D4868
:10154500E4FF1215A27F017E001215F37D01E4FF71
:101555001215A27F027E001215F37D0CE4FF121511
:08156500A27F017E000215F3D4
:0811E7008D2A8B2B8A2C892D27
:1011EF00EFF46010EF4480FDE4FF1215A27F017E43
:1011FF00001215F3E52A7038F52EAB2BAA2CA92D6A
:10120F00852E82F583120751F52FE52F604EFD7F56
:10121F00011215A27F017E001215F3052EAB2BAA2A
:10122F002CA92D852E82758300120751F52F80DA98
:10123F00E4F52EE52EC3952A5022AB2BAA2CA92D0F
:10124F00852E82758300120751F52FFD7F01121530
:0C125F00A27F017E001215F3052E80D73F
:01126B002260
:100FD600E4F52A742C252AF8E4F6052AE52AB40B4A
:100FE600F274FFF53AF539F538F537E4F52A1216B5
:100FF6008F8F2BE52BC394304017E52BD3943950B4
:1010060010742C252AF8A62B052AAF2B1215CC8096
:1010160050E52B64086005E52BB47F1A152A742C5D
:10102600252AF8E4F67F081216197F201216197F72
:1010360008121619802BE52B640D6005E52BB40A02
:101046001D7B007A00792C120EF88F3A8E398D3876
:101056008C377F0D1216197F0A1216198003E4F5D4
:101066002BE52AB40A1B7B007A00792C120EF88F26
:101076003A8E398D388C377F0D1216197F0A121663
:101086001974FFFFFEFDFCAB3AAA39A938A837C38D
:101096001208E57003020FF4AF3AAE39AD38AC373B
:0110A6002227
:1015A2008D30EF70077F401216A880057F4012161B
:1015B200BA7F801216BAAF301216C27F801216A8F6
:0A15C2007FFF1216C27F400216BA26
:1015F3005389F0438901C2A9758CF4758A3DC28D64
:10160300D28C308DFDC28CEF1F70011ED3EF94007E
:06161300EE940050E322FA
:0316C2008F8022F4
:0516A800EFF452B02236
:0416B600EF42A0223D
:0416BA00EF42B02229
:0516AD00EFF452A02241
:0416BE00EF42A02235
:10164E00416D2049207265616368696E6720686527
:03165E00726500B2
:0813B1008F2D8E2C8D2B8C2A50
:1013B900E4F5347BFF7A16794E12045712169E8F84
:1013C900337F101216A3AF2DAE2CAD2BAC2AA93347
:1013D900A8011209098F428E418D408C3F7F11125D
:1013E9000CF98F34E534700FAB30AA31A932AF2F25
:1013F900AE2E120DF98F347F101216B2E534600348
:05140900753401AF3451
:01140E0022BB
:101639004572726F7220686173206F63637572659A
:0516490064000D0A0021
:071697007B007A0079532269
:041463008E088F0957
:10146700752E02752F007530017531027532007FB8
:10147700007E007D007C001213B18F0AE50A600B25
:101487007BFF7A1679391204578016E4FFEFC3748D
:1014970080948250030F80F57BFF7A16794B1204F4
:0314A70057AF0A32
:0114AA00221F
:0300000002168362
:0C168300787FE4F6D8FD758168020B87C3
:10075100BB010CE58229F582E5833AF583E022505D
:1007610006E92582F8E622BBFE06E92582F8E222A7
:0D077100E58229F582E5833AF583E49322C1
:10077E00BB010689828A83F0225002F722BBFE015A
:02078E00F32254
:10079000F8BB010DE58229F582E5833AF583E8F09F
:1007A000225006E92582C8F622BBFE05E92582C84B
:0207B000F22233
:1007B200E88FF0A4CC8BF0A42CFCE98EF0A42CFCE6
:1007C2008AF0EDA42CFCEA8EF0A4CDA8F08BF0A464
:1007D2002DCC3825F0FDE98FF0A42CCD35F0FCEBC3
:1007E2008EF0A4FEA9F0EB8FF0A4CFC5F02ECD3988
:0F07F200FEE43CFCEAA42DCE35F0FDE43CFC22F5
:1008010075F008758200EF2FFFEE33FECD33CDCCAE
:1008110033CCC58233C5829BED9AEC99E582984031
:100821000CF582EE9BFEED9AFDEC99FC0FD5F0D60E
:10083100E4CEFBE4CDFAE4CCF9A88222B800C1B938
:100841000059BA002DEC8BF084CFCECDFCE5F0CB76
:10085100F97818EF2FFFEE33FEED33FDEC33FCEBAF
:1008610033FB10D703994004EB99FB0FD8E5E4F96A
:10087100FA227818EF2FFFEE33FEED33FDEC33FC57
:10088100C933C910D7059BE99A4007EC9BFCE99A4B
:10089100F90FD8E0E4C9FAE4CCFB2275F010EF2F90
:1008A100FFEE33FEED33FDCC33CCC833C810D70790
:1008B1009BEC9AE899400AED9BFDEC9AFCE899F8CB
:0E08C1000FD5F0DAE4CDFBE4CCFAE4C8F9225E
:1008CF00EB9FF5F0EA9E42F0E99D42F0EC6480C8A0
:0608DF0064809845F02240
:1008E500EB9FF5F0EA9E42F0E99D42F0E89C45F069
:0108F50022E0
:1008F600E8600FECC313FCED13FDEE13FEEF13FFE0
:03090600D8F12203
:10090900E8600FEFC333FFEE33FEED33FDEC33FC4C
:03091900D8F122F0
:1015CC00EFB40A07740D1215D7740A309811A89944
:1015DC00B8130CC2983098FDA899C298B811F6307F
:0715EC0099FDC299F5992257
:1003F500E54E2442F8E6054E22783F300702784262
:10040500E475F00112094302091C2000EB7F2ED28E
:10041500008018EF540F2490D43440D4FF30040BDF
:10042500EF24BFB41A0050032461FFE54F600215A5
:100435004F0552E5527002055130070D783FE475BE
:10044500F001120943EF02077E0215CC7403D207AF
:100455008003E4C207F54E8B3F8A408941E4F54F9E
:10046500F551F552E54F60077F2012043080F57590
:1004750050FFC201C200C202C203C205C206C208C1
:100485001203FEFF700D3007057F00120441AF52C5
:10049500AE5122B4255FC2D5C2041203FEFF24D09B
:1004A500B40A00501A75F00A784F30D50508B6FF22
:1004B5000106C6A426F620D5047002D20380D924ED
:1004C500CFB41A00EF5004C2E5D204020641D201AE
:1004D50080C6D20080C0D20280BCD2D580BAD205F7
:1004E50080B47F201204302002077401B54F00400C
:1004F500F11203F5FF120430020469D208D2068016
:10050500951203F5FB1203F5FA1203F5F94A4B7040
:100515000679127A077BFF20022EE54F602A7E00BE
:100525008E8275830012075160060EEE655070F0DD
:10053500C2D5EBC0E0EAC0E0E9C0E0EE120688D023
:10054500E0F9D0E0FAD0E0FB12091CFF60AAEBC08D
:10055500E0EAC0E0E9C0E0120430D0E02401F9D0BF
:10056500E03400FAD0E0FBE5500460DCD550D980DA
:10057500877BFF7A067984D202809C791080027984
:1005850008C206C2088008D2D5790A8004790AC251
:10059500D5E550047002F550E4FAFDFEFF1203F5AF
:1005A500FC7B082001131203F5FD7B1030000A12B5
:1005B50003F5FE1203F5FF7B20EC3382D592D5506F
:1005C50013C3E43000069FFFE49EFEE42001039D73
:1005D500FDE49CFCE4CBF8C201EC700CCFCECDCC95
:1005E500E824F8F870F38017C3EF33FFEE33FEED20
:1005F50033FDEC33FCEB33FB994002FB0FD8E9EB01
:10060500300105F8D0E0C448B201C0E00AEC4D4E17
:100615004F78207B0070C2EAB5500040BCC0E012A4
:10062500068AD0F0D0E0200104C4C0E0C4B201C005
:10063500F0120419D0F0D5F0EB0204691209530544
:10064500065305805804D74C04D34205844F058CC6
:1006550044058C4904EC43059255057646057645D7
:1006650005764707325004DB2D04DF2E05022B04E7
:10067500E32305002007202A049B48000004FA3FD5
:100685003F3F00790AA2D5200314300509B91002AD
:100695000404B9080104A2D5200602500104200271
:0506A500689202B54F50
:1006AA00005034C0E07F203003197F30A202720666
:1006BA007205500F1206E1C202C206C205C2087FC5
:1006CA0030800F300503E9C0E0120430300503D052
:1006DA00E0F9D0E0B54FCC3005177F30B9100C12D5
:1006EA0004307F583004077F788003B90803120466
:1006FA00303002057F2D0204307F202008F87F2B3E
:10070A002006F322920280CF286E756C6C29002D88
:10071A0050434958D2011203F53001F8C201784F0B
:10072A0030D50108F602049B1203F52403B4050030
:10073A004001E490071993120421743A120421D259
:07074A0003754F0402058056
:100EF8008B3B8A3C893DAB3BAA3CA93D12091CFFB0
:100F0800121661500D7401253DF53DE4353CF53C64
:100F180080E4D200AB3BAA3CA93D12091CFF642B1C
:100F28006004EFB42D1BAB3B053DE53DAA3C7002C8
:100F3800053C14F912091C642D6003D38001C39287
:100F480000E4F541F540F53FF53EAB3BAA3CA93D31
:100F580012091CFF121674505CE47F0AFEFDFCABFC
:100F680041AA40A93FA83E1207B2C8ECC8EDC0E0AC
:100F7800EEC0E0EFC0E0AB3BAA3CA93D12091CFF64
:100F88003395E0FEEF24D0FFEE34FFFEE4FCFDD005
:100F9800E0FBD0E0FAD0E0F9EB2FF541EA3EF5406E
:100FA800ED39F53FEC38F53E7401253DF53DE43566
:100FB8003CF53C809530000AAF41AE40AD3FAC3EB9
:0E0FC800800BAF41AE40AD3FAC3E120935226A
:10091C00BB010689828A83E0225002E722BBFE02D9
:09092C00E32289828A83E493220C
:0E093500C3E49FFFE49EFEE49DFDE49CFC22D3
:10094300FAE6FB0808E6F925F0F618E6CA3AF622B5
:10095300D083D082F8E4937012740193700DA3A333
:1009630093F8740193F5828883E473740293686047
:06097300EFA3A3A380DF47
:0F167400EFC394304007EF943A50028001C32235
:10166100EFC394094005EF940E4003BF2003D380DC
:0316710001C32290
:00000001FF
