:1019FE005344204361726420546573742050726F97
:101A0E006772616D0A0D0A0A00496E707574204284
:101A1E006C6F636B233A2000534420436172642041
:101A2E00496E69742E2E2E005374642E20436170FD
:101A3E006163697479004869676820436170616306
:041A4E00697479003E
:1010BA00758E0C758F017F0F121C497FE0121C512F
:1010CA007F10121C40E4F526F527AE26AF27E4FC74
:1010DA00FD7B607AEAF9F8C3120C3F400A0527E55E
:1010EA002770E7052680E37F10121C517F807E253A
:1010FA00121B14121ADC7BFF7A1979FE1204577B31
:10110A00FF7A1A7926E4FDFF1217077F807E1A7D7F
:10111A00067C0012167B8F28E528600C7F10121CB3
:10112A00407F53121BC080FE7F40121C40120003F6
:10113A008F28E528600C7F10121C407F43121BC0C9
:10114A0080FE7F40121C517F807E1A7D067C001231
:10115A00167B8F28E528600C7F10121C407F5012E6
:10116A001BC080FEE4F526F52774002527F5827456
:10117A00003526F58374FFF00527E527700205265A
:10118A00B400E6E526B402E1121C318F29E529B440
:10119A00090F7BFF7A1A7936E4FD7F401217078020
:1011AA0010E529700C7BFF7A1A7944FD7F401217EB
:1011BA00077BFF7A1A79171204571214F6A929A87D
:1011CA0001120C798F258E248D238C227F80121C8C
:1011DA0040E52860077F10121C4080FE7E007F00D9
:1011EA001207518F287F80121C51E52860077F1053
:1011FA00121C4080FE7B017A0079007D007C02127D
:04120A00194A80AD50
:101A52002570200025322E326258200041646472C3
:101A62002E20202030202031202032202033202020
:101A720034202035202036202037202038202039DD
:101A820020204120204220204320204420204520A5
:051A920020460A0D00D2
:10178C008B328A3389348B448A4589467BFF7A1A9B
:10179C007952120457E4F535AB32AA33A9348535A6
:1017AC0082758300120A6CF5367BFF7A1A7956F52E
:1017BC00441204570535E535C3941040DBE4F53588
:1017CC00AB32AA33A934853582758300120A6CF5C5
:1017DC0036C394204007E536D3947F400375362EEC
:1017EC00AF36121BC00535E535C3941040D27F0DC2
:0817FC00121BC07F0A021BC092
:0A194A008B2A8A2B892C8C2D8D2E00
:101954008B2F8A308931AE02AF0153070F7E00C34B
:10196400E99FF9EA9E8B2FF53089317BFF7A1A794A
:101974005E120457AB2FAA30A93112178C741025AC
:1019840031F531E43530F530AB2AE52C252EF9E577
:101994002B352DFAEB8A838982C3E5319582E530B4
:0419A400958340D017
:0119A800221C
:100CF5005344204361726420496E697469616C696B
:100D05007A6174696F6E202E2E2E200A0D00434DD8
:100D150044302073656E74202E2E2E20005265738C
:100D2500706F6E7365203D2025322E3262580A0D94
:100D350000434D44382073656E74202E2E2E2000FE
:100D4500526573706F6E7365203D200025322E321B
:100D55006258200A0D0056657273696F6E20312046
:100D650053442043617264206465746563746564EB
:100D75002E0A0D005374616E6461726420436170C4
:100D85006163697479204361726420646574656385
:100D95007465642E0A0D0025322E326258200056E5
:100DA500657273696F6E203220534420436172640B
:100DB5002064657465637465642E0A0D00434D44B3
:100DC50035382073656E74202E2E2E200041434D3C
:100DD5004434312073656E74202E2E2E2000546904
:100DE5006D656F7574203D20256C75200A0D0048D2
:100DF5006967682043617061636974792043617232
:100E0500642044657465637465640A0D00537461F8
:100E15006E64617264204361706163697479204313
:100E25006172642044657465637465640A0D0043EA
:100E35004D4431362073656E74202E2E2E200052BF
:100E45006573706F6E7365203D2025322E326258B2
:100E5500200A0D00426C6F636B2073697A652073FD
:100E6500657420746F203531322062797465730A98
:100E75000D0053442054696D656F75742045727279
:100E85006F7200496C6C6567616C20436F6D6D61B5
:100E95006E640A0D00526573706F6E73652045723E
:100EA500726F72004461746120546F6B656E2045EA
:100EB50072726F7200496E636F6D70617469626CF6
:100EC5006520566F6C7461676500436172642069C3
:100ED5007320496E61637469766500535049206FCC
:100EE500722054696D656F7574204572726F72005A
:0E0EF500556E6B6E6F776E204572726F7200D5
:0B120E00E4F550F54FF54EF54D7F3A2A
:021219008F4CF8
:10121B00E4F552E54CC394404003021313E54C44F0
:10122B0040F5517B007A007953FF121A978F54E5E2
:10123B0054701CAF50AE4FAD4EAC4D7818120C66BF
:10124B008F517B007A007953121A978F5480037554
:10125B005287E552702FE554702BE550F550E54F52
:10126B00F54FE54EF54EE4F54DAF50AE4FAD4EACF0
:10127B004D7810120C668F517B007A007953121A3D
:10128B00978F548003755287E552702DE554702962
:10129B00E550F550E54FF54FE4F54EF54DAF50AE3B
:1012AB004FAD4EAC4D7808120C668F517B007A0017
:1012BB007953121A978F548003755287E552701821
:1012CB00E5547014E550FFE48F51FB7A007953AF6E
:1012DB0051121A978F548003755287E552702CE583
:1012EB00547028E54C7005755195800DE54CB4088C
:1012FB000575518780037551017B007A007953AFD7
:0D130B0051121A978F548003755282AF5211
:0113180022B2
:0715C700FB7A00792D7F0182
:0815CE008F3E8B3F8A408941EA
:1015D600E4F545F546F5427B007A0079447FFF1233
:1015E6001A978F430546E54670020545E544B4FF64
:1015F6000AE54645456004E54360DCE5436005755C
:1016060042878061E546454570057542818056AB47
:101616003FAA40A941E544120A99E54460046401E1
:101626007040E53ED39401403C754500754601C3C4
:10163600E546953EE5459400502B7B007A007944BB
:101646007FFF121A978F43AB3FAA40A94185468276
:10165600854583E544120AAB0546E54670D1054546
:1016660080CD7542837B007A0079447FFF121A97FA
:041676008F43AF42AD
:01167A00224D
:0A1319008E4C8F4D8B4E8A4F895089
:10132300E4F554F555F5527B007A0079537FFF12AB
:101333001A978F510555E55570020554E55330E76B
:101343000AE55545546004E55160DCE551600675D6
:101353005287021408E555455470067552810214EC
:1013630008E5536003021405F554F5557B007A0034
:1013730079537FFF121A978F510555E55570020572
:1013830054E553B4FF0AE55545546004E55160DC68
:10139300E5516005755287806CE5554554700575B8
:1013A30052818061E55364FE7053F554F555C3E5EE
:1013B30055954DE554954C50287B007A0079537F21
:1013C300FF121A978F51AB4EAA4FA95085558285AC
:1013D3005483E553120AAB0555E55570D105548086
:1013E300CD7B007A0079537FFF121A978F517B00D0
:1013F3007A0079537FFF121A978F518008755284B0
:1014030080037552837B007A0079537FFF121A970A
:041413008F51AF52F4
:0114170022B2
:10000300E4F52B781E76FF7F10121C457BFF7A0CDC
:1000130079F5120457E4F52A7B007A0079357FFFDE
:10002300121A978F2C052AE52AC3940A40EA7F8087
:10003300121C407BFF7A0D79131204577F10121C98
:1000430036E4F550F54FF54EF54DFF1212198F2C8E
:10005300E52C70131215C78F2C7BFF7A0D7922853F
:100063002D4412045780057F10121C407F10121C70
:10007300457F80121C51E52C6002F52BE52B6003B4
:100083000201627F80121C407BFF7A0D79361204D5
:10009300577F10121C36E47550AA754F01F54EF5C3
:1000A3004D7F081212198F2CE52C6003020153FBBC
:1000B3007A00792D7F051215CE8F2C7F10121C45E7
:1000C3007F80121C51E52C603F7BFF7A0D7945122E
:1000D30004577BFF7A0D7951852D44120457E52C83
:1000E300B48320E52DB4051BE4F52B781E76097B3C
:1000F300FF7A0D795B1204577BFF7A0D797912042D
:1001030057805C852C2B80577BFF7A0D7945120431
:1001130057E4F52A7BFF7A0D799C742D252AF8E69E
:10012300F544120457052AE52AC3940540E67F0DDA
:10013300121B737F0A121B73E53164AA6003752CCB
:1001430083781E76027BFF7A0D79A4120457800F01
:100153007F10121C457F80121C517F10121C40E53A
:100163002B60030201ED7F80121C407BFF7A0D7927
:10017300C21204577F10121C3612120E8F2CE52C5C
:100183007053FB7A00792D7F051215CE8F2C7F10CB
:10019300121C457F80121C517BFF7A0D7945120496
:1001A30057E4F52A7BFF7A0D799C742D252AF8E60E
:1001B300F544120457052AE52AC3940540E67F0D4A
:1001C300121B737F0A121B73E52F54FC64FC60142B
:1001D300752C85800F7F10121C457F80121C517F68
:1001E30010121C40E52C6002F52BE52B6003020284
:1001F300DD781EE6B4020CE4F539F538F5377536CB
:10020300408009E4F539F538F537F536E4F53DF581
:100213003CF53BF53A7F20121C407BFF7A0D79D2E7
:100223001204577F10121C36E4F550F54FF54EF5C6
:100233004D7F371212198F2CE52C70051215C78FBD
:100243002CE52D64016004E52D7013853950853844
:100253004F85374E85364D7F291212198F2CE52C89
:1002630070031215C77F10121C45E53D2401F53DAF
:10027300E4353CF53CE4353BF53BE4353AF53AE40B
:10028300FFFEFDFCAB3DAA3CA93BA83AC3120C55AB
:100293007003752C81E52D30E004E52C6085E52C99
:1002A30070137F20121C517BFF7A0D7922852D4418
:1002B300120457800A7F80121C517F10121C407B4E
:1002C300FF7A0D79E3853D47853C46853B45853A75
:1002D30044120457E52C6002F52BE52B600302035F
:1002E300EA781EE6640260030203EA7F80121C4080
:1002F3007BFF7A0D79C21204577F10121C3612123B
:100303000E8F2CE52C60030203D0FB7A00792D7F3E
:10031300051215CE8F2C7F10121C457F80121C51A5
:100323007BFF7A0D7945120457E4F52A7BFF7A0D9A
:10033300799C742D252AF8E6F544120457052AE51D
:100343002AC3940540E67F0D121B737F0A121B73A9
:10035300E52E20E706752C860203DFE52E54C0FF49
:10036300BFC00FE4781EF67BFF7A0D79F4120457B1
:10037300806A781E76097BFF7A0E79121204577F02
:1003830080121C407BFF7A0E79341204577F1012BF
:100393001C36E4F550754F02F54EF54D7F101212E1
:1003A300198F2CE52C70351215C78F2C7F10121C5A
:1003B300457F80121C517BFF7A0E7944852D4412B0
:1003C30004577BFF7A0E7959120457800F7F10125E
:1003D3001C457F80121C517F10121C40E52C6007C6
:1003E300F52BAF2B121804E52B6004FF121804AF92
:0103F3002BDE
:0103F40022E6
:051C3100781EE6FF2211
:101804008F3EE53EB481097BFF7A0E797702045757
:10181400E53EB482097BFF7A0E7988020457E53EDF
:10182400B483097BFF7A0E799A020457E53EB484A7
:10183400097BFF7A0E79A9020457E53EB485097B3A
:10184400FF7A0E79BA020457E53EB486097BFF7A23
:101854000E79CF020457E53EB487097BFF7A0E79EF
:0E186400E00204577BFF7A0E79F5120457223A
:10167B00E4F52AAB07AA06A905A804FF7E407D194D
:10168B007C01120BADEFD39402500575C3708069CA
:10169B00EFD39402400BEFD39404500575C37180C4
:1016AB0058EFD39404400BEFD39408500575C372D5
:1016BB008047EFD39408400BEFD39410500575C3BC
:1016CB00738036EFD39410400BEFD39420500575F5
:1016DB00C3F08025EFD39420400BEFD394405005FB
:1016EB0075C3F18014EFD39440400BEFD39480502B
:0B16FB000575C3F28003752A0FAF2AAB
:0117060022C0
:101A9700E4FDFC8FC5AFC47556008F570DBD00011F
:101AA7000CE55754F07004ED4C70EAED4C601AE504
:101AB700575470700AE5C5120A99E4FCFD80137447
:101AC700FF120A99E4FCFD800974FF120A997C0051
:041AD7007D80AF055A
:011ADB0022E8
:041C4500EF429022B8
:051C3600EFF4529022C2
:101B140053873F438780C2AC759852E4F59BFCFD24
:101B24007BC0FAF9F8120B22A804A905AA06AB0790
:101B3400E4FFFE7D2F7C0D120BADEFF404F59A75D6
:051B44009B1ED2992256
:101BC000E4FDFC0DBD00010C209904ED4C70F4ED1A
:0F1BD0004C60088F99AE07C29980027EF1AF0674
:011BDF0022E3
:071C22003098FDAF99C29854
:011C29002298
:101ADC007D38E4FF121B497F017E00121B9A7D4862
:101AEC00E4FF121B497F017E00121B9A7D01E4FF6B
:101AFC00121B497F027E00121B9A7D0CE4FF121B05
:081B0C00497F017E00021B9AD3
:081707008D2A8B2B8A2C892D01
:10170F00EFF46010EF4480FDE4FF121B497F017E70
:10171F0000121B9AE52A7038F52EAB2BAA2CA92D97
:10172F00852E82F583120A6CF52FE52F604EFD7F13
:10173F0001121B497F017E00121B9A052EAB2BAAAB
:10174F002CA92D852E82758300120A6CF52F80DA55
:10175F00E4F52EE52EC3952A5022AB2BAA2CA92DEA
:10176F00852E82758300120A6CF52FFD7F01121BE7
:0C177F00497F017E00121B9A052E80D7C6
:01178B00223B
:1014F600E4F52A742C252AF8E4F6052AE52AB40B25
:10150600F274FFF53AF539F538F537E4F52A121C89
:10151600228F2BE52BC394304017E52BD3943950FB
:1015260010742C252AF8A62B052AAF2B121B7380C4
:1015360050E52B64086005E52BB47F1A152A742C38
:10154600252AF8E4F67F08121BC07F20121BC07FF5
:1015560008121BC0802BE52B640D6005E52BB40A31
:101566001D7B007A00792C1214188F3A8E398D382B
:101576008C377F0D121BC07F0A121BC08003E4F557
:101586002BE52AB40A1B7B007A00792C1214188FDB
:101596003A8E398D388C377F0D121BC07F0A121B8D
:1015A600C074FFFFFEFDFCAB3AAA39A938A837C3C1
:1015B600120C557003021514AF3AAE39AD38AC377C
:0115C6002202
:101B49008D30EF70077F40121C3B80057F40121CCF
:101B59004D7F80121C4DAF30121C557F80121C3BEB
:0A1B69007FFF121C557F40021C4D47
:101B9A005389F0438901C2A9758CF4758A3DC28DB7
:101BAA00D28C308DFDC28CEF1F70011ED3EF9400D2
:061BBA00EE940050E3224E
:031C55008F80225B
:051C3B00EFF452B0229D
:041C4900EF42A022A4
:041C4D00EF42B02290
:051C4000EFF452A022A8
:041C5100EF42A0229C
:0819A9008F448E438D428C41F6
:1019B100E4F54B121C318F4A7F10121C36AF44AE36
:1019C10043AD42AC41A94AA801120C798F508E4F08
:1019D1008D4E8C4D7F111212198F4BE54B700FAB51
:1019E10047AA48A949AF46AE451213198F4B7F103C
:0C19F100121C45E54B6003754B01AF4B29
:0119FD0022C7
:100F030044656275673A3A204F66667365742030AC
:100F1300206F6620536563746F72203020697320DD
:100F230025780D0A0044656275673A3A204F666674
:100F330073657420307830316336206F66205365D3
:100F430063746F72203020697320256C78200D0A3A
:100F53000044656275673A3A204F6666736574208C
:100F630030206F662052656C617469766520536525
:100F730063746F72732069732025780D0A004572BC
:100F8300726F7220425042206E6F7420466F756EEE
:100F930064210D0A0042504220466F756E64210D94
:100FA3000A0042797465735065725365633A3A2057
:100FB30025780D0A00536563506572436C75733A67
:100FC3003A202562780D0A00527376645365637480
:100FD3006F72436F756E743A3A2025780D0A004E8E
:100FE300756D464154533A3A202562780D0A0052F2
:100FF3006F6F74456E747279436E743A3A20257834
:101003000D0A00546F74616C536563746F727331AE
:10101300363A3A2025780D0A00464154737A313620
:101023003A3A2025780D0A00546F74616C53656356
:10103300746F727333323A3A20256C780D0A004686
:101043004154737A33323A3A20256C780D0A0052B0
:101053006F6F74436C75737465723A3A20256C78BC
:101063000D0A0053746172746F664641543A3A2014
:10107300256C780D0A00526F6F744469725365636F
:10108300733A3A20256C780D0A00466972737444EA
:101093006174615365633A3A20256C780D0A004602
:1010A30069727374526F6F744469725365633A3A29
:0710B30020256C780D0A00F6
:071C2A007B007A007908221B
:0B1BE0008F32AA2AA92B7B01E4FFFE34
:081BEB008F828E83120A6CFF49
:011BF30022CF
:0A18E0008E418F428B438A448945F4
:1018EA00E4F549F548F547F546F54AAB43E545259C
:1018FA0042F9E5443541FAC37401954AFFE494007C
:10190A00FEE92FF9EA3EFA120A53FBAF49AE48AD97
:10191A0047AC467808120C798F498E488D478C4619
:10192A00AF03E4E5494FF549E548F548E547F5478A
:0F193A00E546F546054AE54AB402B0AE48AF4966
:01194900227B
:0A1872008E418F428B438A44894562
:10187C00E4F549F548F547F546F54AAB43E545250A
:10188C0042F9E5443541FAC37403954AFFE49400E8
:10189C00FEE92FF9EA3EFA120A53FBAF49AE48AD06
:1018AC0047AC467808120C798F498E488D478C4688
:1018BC00AF03E4E5494FF549E548F548E547F547F9
:1018CC00E546F546054AE54AB404B0AF49AE48AD25
:0318DC0047AC46D0
:0118DF0022E6
:040751008E2A8F2B32
:10075500754502754600AA06A9077547018A4889A5
:10076500497F007E007D007C001219A9121BE08FD5
:100775002D7BFF7A0F7903852D44120457E52D64EF
:10078500EB6077E52D64E96071AA2AA92B7B017FCF
:10079500C67E011218728F318E308D2F8C2E7BFF05
:1007A5007A0F79288F478E468D458C44120457AFB2
:1007B50031AE30AD2FAC2E7545027546007547013B
:1007C500852A48852B491219A9121BE08F407BFF0A
:1007D5007A0F7954854044120457E52D64EB601176
:1007E500E52D64E9600B7BFF7A0F79811204578050
:1007F500097BFF7A0F7998120457AA2AA92B7B0146
:100805007F0B7E001218E0780CA60608A6077BFF72
:100815007A0F79A518E6F54408E6F545120457AAB6
:100825002AA92B7B017F0D7E00121BEB7808A607FA
:100835007BFF7A0F79B8E6F544120457AA2AA92B4B
:100845007B017F0E7E001218E08E338F347BFF7A9A
:100855000F79CB853344853445120457AA2AA92B31
:100865007B017F107E00121BEB8F357BFF7A0F79A2
:10087500E2853544120457AA2AA92B7B017F117EF4
:10088500001218E08E368F377BFF7A0F79F28536A6
:1008950044853745120457AA2AA92B7B017F137E6D
:1008A500001218E07BFF7A1079068E448F451204FA
:1008B50057AA2AA92B7B017F167E001218E07BFF21
:1008C5007A10791C8E448F45120457AA2AA92B7BCE
:1008D500017F207E001218727BFF7A10792B8F47DB
:1008E5008E468D458C44120457AA2AA92B7B017F7D
:1008F500247E001218728F3B8E3A8D398C387BFF1F
:100905007A1079428F478E468D458C44120457AA3A
:100915002AA92B7B017F2C7E001218728F3F8E3EF9
:100925008D3D8C3C7BFF7A1079528F478E468D45E5
:100935008C441204577E00E5342540FFEE3533FE26
:10094500E4FCFD7816120CA57BFF7A107966781603
:10095500120C8C8F478E468D458C44120457E53713
:10096500AE367805C333CE33CED8F9FF780CE6FC26
:1009750008E6FD24FFFBEC34FFCB2FFFEB3EFE1218
:100985000ACDE4FCFD781A120CA57BFF7A10797963
:10099500781A120C8C8F478E468D458C441204575D
:1009A500AF35E4FCFDFEAB3BAA3AA939A838120BDA
:1009B50022A804A905AA06AB07E4FCFDEB2534FF34
:1009C500EA3533FEED39FDEC38FC781A120C98EF58
:1009D5002BFFEE3AFEED39FDEC38FC7812120CA532
:1009E5007BFF7A10798D7812120C8C8F478E468D8D
:1009F500458C44120457E53F24FEFFE53E34FFFED7
:100A0500E53D34FFFDE53C34FFFCC004A905AA061D
:100A1500AB077808E6FFE4FCFDFED000120B227858
:100A250012120C98EF2BFFEE3AFEED39FDEC38FC77
:100A3500780E120CA57BFF7A1079A2780E120C8C19
:0D0A45008F478E468D458C44120457AF320A
:010A52002281
:03000000021C16C9
:0C1C1600787FE4F6D8FD7581570210BA03
:100A5300BB010689828A83E0225002E722BBFE02A1
:090A6300E32289828A83E49322D4
:100A6C00BB010CE58229F582E5833AF583E022503F
:100A7C0006E92582F8E622BBFE06E92582F8E22289
:0D0A8C00E58229F582E5833AF583E49322A3
:100A9900BB010689828A83F0225002F722BBFE013C
:020AA900F32236
:100AAB00F8BB010DE58229F582E5833AF583E8F081
:100ABB00225006E92582C8F622BBFE05E92582C82D
:020ACB00F22215
:100ACD00BC000BBE0029EF8DF084FFADF022E4CC0D
:100ADD00F875F008EF2FFFEE33FEEC33FCEE9DECD6
:100AED00984005FCEE9DFE0FD5F0E9E4CEFD22ED1C
:100AFD00F8F5F0EE8420D21CFEADF075F008EF2F66
:100B0D00FFED33FD4007985006D5F0F222C398FD56
:050B1D000FD5F0EA22F3
:100B2200E88FF0A4CC8BF0A42CFCE98EF0A42CFC72
:100B32008AF0EDA42CFCEA8EF0A4CDA8F08BF0A4F0
:100B42002DCC3825F0FDE98FF0A42CCD35F0FCEB4F
:100B52008EF0A4FEA9F0EB8FF0A4CFC5F02ECD3914
:0F0B6200FEE43CFCEAA42DCE35F0FDE43CFC2281
:100B710075F008758200EF2FFFEE33FECD33CDCC3B
:100B810033CCC58233C5829BED9AEC99E5829840BE
:100B91000CF582EE9BFEED9AFDEC99FC0FD5F0D69B
:100BA100E4CEFBE4CDFAE4CCF9A88222B800C1B9C5
:100BB1000059BA002DEC8BF084CFCECDFCE5F0CB03
:100BC100F97818EF2FFFEE33FEED33FDEC33FCEB3C
:100BD10033FB10D703994004EB99FB0FD8E5E4F9F7
:100BE100FA227818EF2FFFEE33FEED33FDEC33FCE4
:100BF100C933C910D7059BE99A4007EC9BFCE99AD8
:100C0100F90FD8E0E4C9FAE4CCFB2275F010EF2F1C
:100C1100FFEE33FEED33FDCC33CCC833C810D7071C
:100C21009BEC9AE899400AED9BFDEC9AFCE899F857
:0E0C31000FD5F0DAE4CDFBE4CCFAE4C8F922EA
:100C3F00EB9FF5F0EA9E42F0E99D42F0EC6480C82C
:060C4F0064809845F022CC
:100C5500EB9FF5F0EA9E42F0E99D42F0E89C45F0F5
:010C6500226C
:100C6600E8600FECC313FCED13FDEE13FEEF13FF6C
:030C7600D8F12290
:100C7900E8600FEFC333FFEE33FEED33FDEC33FCD9
:030C8900D8F1227D
:0C0C8C00E6FC08E6FD08E6FE08E6FF2294
:0D0C9800E6FB08E6F908E6FA08E6CBF822CC
:0C0CA500ECF608EDF608EEF608EFF6227B
:101B7300EFB40A07740D121B7E740A309811A899EA
:101B8300B8130CC2983098FDA899C298B811F630D2
:071B930099FDC299F59922AA
:1003F500E5502444F8E60550227841300702784458
:10040500E475F001120CBF020A532000EB7F2ED2D7
:10041500008018EF540F2490D43440D4FF30040BDF
:10042500EF24BFB41A0050032461FFE551600215A3
:10043500510554E5547002055330070D7841E475B4
:10044500F001120CBFEF020A99021B737403D20765
:100455008003E4C207F5508B418A428943E4F55194
:10046500F553F554E55160077F2012043080F5758A
:1004750052FFC201C200C202C203C205C206C208BF
:100485001203FEFF700D3007057F00120441AF54C3
:10049500AE5322B4255FC2D5C2041203FEFF24D099
:1004A500B40A00501A75F00A785130D50508B6FF20
:1004B5000106C6A426F620D5047002D20380D924ED
:1004C500CFB41A00EF5004C2E5D204020641D201AE
:1004D50080C6D20080C0D20280BCD2D580BAD205F7
:1004E50080B47F201204302002077401B55100400A
:1004F500F11203F5FF120430020469D208D2068016
:10050500951203F5FB1203F5FA1203F5F94A4B7040
:100515000679127A077BFF20022EE551602A7E00BC
:100525008E82758300120A6C60060EEE655270F0BD
:10053500C2D5EBC0E0EAC0E0E9C0E0EE120688D023
:10054500E0F9D0E0FAD0E0FB120A53FF60AAEBC055
:10055500E0EAC0E0E9C0E0120430D0E02401F9D0BF
:10056500E03400FAD0E0FBE5520460DCD552D980D6
:10057500877BFF7A067984D202809C791080027984
:1005850008C206C2088008D2D5790A8004790AC251
:10059500D5E552047002F552E4FAFDFEFF1203F5AB
:1005A500FC7B082001131203F5FD7B1030000A12B5
:1005B50003F5FE1203F5FF7B20EC3382D592D5506F
:1005C50013C3E43000069FFFE49EFEE42001039D73
:1005D500FDE49CFCE4CBF8C201EC700CCFCECDCC95
:1005E500E824F8F870F38017C3EF33FFEE33FEED20
:1005F50033FDEC33FCEB33FB994002FB0FD8E9EB01
:10060500300105F8D0E0C448B201C0E00AEC4D4E17
:100615004F78207B0070C2EAB5520040BCC0E012A2
:10062500068AD0F0D0E0200104C4C0E0C4B201C005
:10063500F0120419D0F0D5F0EB020469120CCF05C5
:10064500065305805804D74C04D34205844F058CC6
:1006550044058C4904EC43059255057646057645D7
:1006650005764707325004DB2D04DF2E05022B04E7
:10067500E32305002007202A049B48000004FA3FD5
:100685003F3F00790AA2D5200314300509B91002AD
:100695000404B9080104A2D5200602500104200271
:0506A500689202B5514E
:1006AA00005034C0E07F203003197F30A202720666
:1006BA007205500F1206E1C202C206C205C2087FC5
:1006CA0030800F300503E9C0E0120430300503D052
:1006DA00E0F9D0E0B551CC3005177F30B9100C12D3
:1006EA0004307F583004077F788003B90803120466
:1006FA00303002057F2D0204307F202008F87F2B3E
:10070A002006F322920280CF286E756C6C29002D88
:10071A0050434958D2011203F53001F8C201785109
:10072A0030D50108F602049B1203F52403B4050030
:10073A004001E490071993120421743A120421D259
:07074A000375510402058054
:101418008B3B8A3C893DAB3BAA3CA93D120A53FF52
:10142800121BF4500D7401253DF53DE4353CF53CA7
:1014380080E4D200AB3BAA3CA93D120A53FF642BBF
:101448006004EFB42D1BAB3B053DE53DAA3C7002A3
:10145800053C14F9120A53642D6003D38001C3922A
:1014680000E4F541F540F53FF53EAB3BAA3CA93D0C
:10147800120A53FF121C07505CE47F0AFEFDFCAB06
:1014880041AA40A93FA83E120B22C8ECC8EDC0E013
:10149800EEC0E0EFC0E0AB3BAA3CA93D120A53FF07
:1014A8003395E0FEEF24D0FFEE34FFFEE4FCFDD0E0
:1014B800E0FBD0E0FAD0E0F9EB2FF541EA3EF54049
:1014C800ED39F53FEC38F53E7401253DF53DE43541
:1014D8003CF53C809530000AAF41AE40AD3FAC3E94
:0E14E800800BAF41AE40AD3FAC3E120CB122C6
:0E0CB100C3E49FFFE49EFEE49DFDE49CFC2254
:100CBF00FAE6FB0808E6F925F0F618E6CA3AF62236
:100CCF00D083D082F8E4937012740193700DA3A3B4
:100CDF0093F8740193F5828883E4737402936860C8
:060CEF00EFA3A3A380DFC8
:0F1C0700EFC394304007EF943A50028001C3229C
:101BF400EFC394094005EF940E4003BF2003D38044
:031C040001C322F7
:00000001FF
