:101E0E005344204361726420546573742050726F82
:101E1E006772616D0A0D0A0A00496E70757420456D
:101E2E006E74727920233A2000456E74727920699F
:101E3E00732061206469726563746F72792E2E2E21
:101E4E004F70656E696E67206E6F772E2E2E0D0A9F
:101E5E0000456E74727920697320612066696C6525
:101E6E002E2E2E4F70656E696E67206E6F772E2E3A
:101E7E002E0D0A005344204361726420496E69742A
:101E8E002E2E2E005374642E20436170616369748C
:101E9E0079004869676820436170616369747900ED
:10160D001224868B368A378938758E0C758F017F3B
:10161D000F1224A57FE01224AD7F1012249CE4F557
:10162D002AF52BAE2AAF2BE4FCFD7B607AEAF9F8A4
:10163D00C3120C8C400A052BE52B70E7052A80E3BD
:10164D007F101224AD7F807E2512236C1223347BF4
:10165D00FF7A1E790E1204577BFF7A1E7982E4FD04
:10166D00FF121F3A7F807E1A7D067C00121EAE8F00
:10167D002CE52C600C7F1012249C7F5312241880B3
:10168D00FE7F4012249C1200038F2CE52C600C7FF2
:10169D001012249C7F4312241880FE7F401224AD2B
:1016AD007F807E1A7D067C00121EAE8F2CE52C608D
:1016BD000C7F1012249C7F5012241880FEE4F52A12
:1016CD00F52B7400252BF5827400352AF58374FFF4
:1016DD00F0052BE52B7002052AB400E6E52AB402CD
:1016ED00E112248D8F2DE52DB4090F7BFF7A1E7924
:1016FD0092E4FD7F40121F3A8010E52D700C7BFFA8
:10170D007A1E79A0FD7F40121F3A7E007F001207DE
:10171D00518F2CAB36AA37A938900006120CD98FF1
:10172D00358E348D338C32AF35AE34AD33AC32753E
:10173D003D00753E0012141E7BFF7A1E79271204A0
:10174D0057121BDB8F258E248D238C227F80122434
:10175D009CAF35AE34AD33AC3285243D85253E7519
:10176D003F00754000120FDD8F318E308D2F8C2E86
:10177D00E4FFFEFDE52E5410FCE4FBFAF9F8C3126C
:10178D000CA260307BFF7A1E7937120457E531F5D4
:10179D0031E530F530E52FF52FE52E540FF52EAF51
:1017AD0031AE30AD2FFC121FC78F358E348D338C7B
:1017BD00320217347BFF7A1E795F120457E531F53B
:1017CD0031E530F530E52FF52FE52E540FF52EAF21
:1017DD0031AE30AD2FFC753D02753E001218FA0288
:0217ED001734AF
:1022AA002570200025322E32625820004164647263
:1022BA002E202020302020312020322020332020C0
:1022CA00342020352020362020372020382020397D
:1022DA002020412020422020432020442020452045
:0522EA0020460A0D0072
:102038008B578A5889598B5F8A6089617BFF7A221E
:1020480079AA120457E4F55AAB57AA58A959855AE0
:1020580082758300120AB9F55B7BFF7A2279AEF5A7
:102068005F120457055AE55AC3941040DBE4F55A49
:10207800AB57AA58A959855A82758300120AB9F52F
:102088005BC394204007E55BD3947F4003755B2EC8
:10209800AF5B122418055AE55AC3941040D27F0D3D
:0820A8001224187F0A0224181B
:0A21F6008B4F8A5089518C528D5393
:102200008B548A558956AE02AF0153070F7E00C327
:10221000E99FF9EA9E8B54F55589567BFF7A22791E
:10222000B6120457AB54AA55A9561220387410257B
:1022300056F556E43555F555AB4FE5512553F9E5BF
:10224000503552FAEB8A838982C3E5569582E5556B
:04225000958340D062
:012254002267
:101210005344204361726420496E697469616C694A
:101220007A6174696F6E202E2E2E200A0D00434DB8
:1012300044302073656E74202E2E2E20005265736C
:10124000706F6E7365203D2025322E3262580A0D74
:1012500000434D44382073656E74202E2E2E2000DE
:10126000526573706F6E7365203D200025322E32FB
:101270006258200A0D0056657273696F6E20312026
:1012800053442043617264206465746563746564CB
:101290002E0A0D005374616E6461726420436170A4
:1012A0006163697479204361726420646574656365
:1012B0007465642E0A0D0025322E326258200056C5
:1012C000657273696F6E20322053442043617264EB
:1012D0002064657465637465642E0A0D00434D4493
:1012E00035382073656E74202E2E2E200041434D1C
:1012F0004434312073656E74202E2E2E20005469E4
:101300006D656F7574203D20256C75200A0D0048B1
:101310006967682043617061636974792043617211
:10132000642044657465637465640A0D00537461D8
:101330006E646172642043617061636974792043F3
:101340006172642044657465637465640A0D0043CA
:101350004D4431362073656E74202E2E2E2000529F
:101360006573706F6E7365203D2025322E32625892
:10137000200A0D00426C6F636B2073697A652073DD
:10138000657420746F203531322062797465730A78
:101390000D0053442054696D656F75742045727259
:1013A0006F7200496C6C6567616C20436F6D6D6195
:1013B0006E640A0D00526573706F6E73652045721E
:1013C000726F72004461746120546F6B656E2045CA
:1013D00072726F7200496E636F6D70617469626CD6
:1013E0006520566F6C7461676500436172642069A3
:1013F0007320496E61637469766500535049206FAC
:10140000722054696D656F7574204572726F720039
:0E141000556E6B6E6F776E204572726F7200B4
:0B17EF00E4F566F565F564F5637F3AEC
:0217FA008F62FC
:1017FC00E4F568E562C3944040030218F4E56244E2
:10180C0040F5677B007A007969FF1222EF8F6AE559
:10181C006A701CAF66AE65AD64AC637818120CB31D
:10182C008F677B007A0079691222EF8F6A800375CB
:10183C006887E568702FE56A702BE566F566E565E7
:10184C00F565E564F564E4F563AF66AE65AD64AC6F
:10185C00637810120CB38F677B007A0079691222BF
:10186C00EF8F6A8003756887E568702DE56A7029CB
:10187C00E566F566E565F565E4F564F563AF66AEBA
:10188C0065AD64AC637808120CB38F677B007A008B
:10189C0079691222EF8F6A8003756887E568701882
:1018AC00E56A7014E566FFE48F67FB7A007969AF2F
:1018BC00671222EF8F6A8003756887E568702CE5E4
:1018CC006A7028E5627005756795800DE562B4084D
:1018DC000575678780037567017B007A007969AFAE
:0D18EC00671222EF8F6A8003756882AF6873
:0118F90022CC
:071CAC00FB7A00793C7F0187
:081CB3008F4D8B4E8A4F8950C2
:101CBB00E4F554F555F5517B007A0079537FFF120B
:101CCB0022EF8F520555E55570020554E553B4FFCD
:101CDB000AE55545546004E55260DCE55260057534
:101CEB0051878061E555455470057551818056AB20
:101CFB004EAA4FA950E553120AE6E553600464015E
:101D0B007040E54DD39401403C755400755501C3AB
:101D1B00E555954DE5549400502B7B007A00795393
:101D2B007FFF1222EF8F52AB4EAA4FA950855582DF
:101D3B00855483E553120AF80555E55570D10554C2
:101D4B0080CD7551837B007A0079537FFF1222EF90
:041D5B008F52AF51A3
:011D5F002261
:0A19FE008E628F638B648A65896630
:101A0800E4F56AF56BF5687B007A0079697FFF1267
:101A180022EF8F67056BE56B7002056AE56930E7B1
:101A28000AE56B456A6004E56760DCE56760067592
:101A38006887021AEDE56B456A7006756881021AB7
:101A4800EDE5696003021AEAF56AF56B7B007A0036
:101A580079697FFF1222EF8F67056BE56B700205CE
:101A68006AE569B4FF0AE56B456A6004E56760DC0E
:101A7800E5676005756887806CE56B456A70057574
:101A880068818061E56964FE7053F56AF56BC3E5AA
:101A98006B9563E56A956250287B007A0079697FC7
:101AA800FF1222EF8F67AB64AA65A966856B8285F2
:101AB8006A83E569120AF8056BE56B70D1056A80DF
:101AC800CD7B007A0079697FFF1222EF8F677B0058
:101AD8007A0079697FFF1222EF8F67800875688422
:101AE80080037568837B007A0079697FFF1222EF93
:041AF8008F67AF68DD
:011AFC0022C7
:10000300E4F53A781E76FF7F101224A17BFF7A1263
:100013007910120457E4F5397B007A0079447FFFA5
:100023001222EF8F3B0539E539C3940A40EA7F80FA
:1000330012249C7BFF7A12792E1204577F1012240C
:1000430092E4F566F565F564F563FF1217FA8F3BE5
:10005300E53B7013121CAC8F3B7BFF7A12793D8515
:100063003C5F12045780057F1012249C7F101224DA
:10007300A17F801224ADE53B6002F53AE53A6003C7
:100083000201627F8012249C7BFF7A127951120451
:10009300577F10122492E47566AA756501F564F51D
:1000A300637F081217FA8F3BE53B6003020153FBA2
:1000B3007A00793C7F05121CB38F3B7F101224A179
:1000C3007F801224ADE53B603F7BFF7A127960129B
:1000D30004577BFF7A12796C853C5F120457E53B2A
:1000E300B48320E53CB4051BE4F53A781E76097B1E
:1000F300FF7A1279761204577BFF7A1279941204ED
:1001030057805C853B3A80577BFF7A1279601204F3
:1001130057E4F5397BFF7A1279B7743C2539F8E651
:10012300F55F1204570539E539C3940540E67F0DA1
:100133001223CB7F0A1223CBE54064AA6003753BED
:1001430083781E76027BFF7A1279BF120457800FE1
:100153007F101224A17F801224AD7F1012249CE50E
:100163003A60030201ED7F8012249C7BFF7A1279AF
:10017300DD1204577F101224921217EF8F3BE53BD9
:100183007053FB7A00793C7F05121CB38F3B7F10C1
:100193001224A17F801224AD7BFF7A1279601204AE
:1001A30057E4F5397BFF7A1279B7743C2539F8E6C1
:1001B300F55F1204570539E539C3940540E67F0D11
:1001C3001223CB7F0A1223CBE53E54FC64FC60145C
:1001D300753B85800F7F101224A17F801224AD7F91
:1001E3001012249CE53B6002F53AE53A60030202F3
:1001F300DD781EE6B4020CE4F548F547F54675458F
:10020300408009E4F548F547F546F545E4F54CF536
:100213004BF54AF5497F2012249C7BFF7A1279ED36
:100223001204577F10122492E4F566F565F564F520
:10023300637F371217FA8F3BE53B7005121CAC8FB7
:100243003BE53C64016004E53C70138548668547E3
:10025300658546648545637F291217FA8F3BE53B25
:100263007003121CAC7F101224A1E54C2401F54C41
:10027300E4354BF54BE4354AF54AE43549F549E4B1
:10028300FFFEFDFCAB4CAA4BA94AA849C3120CA222
:100293007003753B81E53C30E004E53B6085E53B5D
:1002A30070137F201224AD7BFF7A12793D853C5F6A
:1002B300120457800A7F801224AD7F1012249C7B86
:1002C300FF7A1279FE854C62854B61854A608549C8
:1002D3005F120457E53B6002F53AE53A6003020317
:1002E300EA781EE6640260030203EA7F8012249C1C
:1002F3007BFF7A1279DD1204577F101224921217B2
:10030300EF8F3BE53B60030203D0FB7A00793C7F30
:1003130005121CB38F3B7F101224A17F801224ADE2
:100323007BFF7A127960120457E4F5397BFF7A1266
:1003330079B7743C2539F8E6F55F1204570539E5BA
:1003430039C3940540E67F0D1223CB7F0A1223CBDA
:10035300E53D20E706753B860203DFE53D54C0FF1C
:10036300BFC00FE4781EF67BFF7A13790F12045790
:10037300806A781E76097BFF7A13792D1204577FE2
:100383008012249C7BFF7A13794F1204577F10123B
:100393002492E4F566756502F564F5637F10121720
:1003A300FA8F3BE53B7035121CAC8F3B7F10122458
:1003B300A17F801224AD7BFF7A13795F853C5F12A6
:1003C30004577BFF7A137974120457800F7F10123E
:1003D30024A17F801224AD7F1012249CE53B60078B
:1003E300F53AAF3A1220B0E53A6004FF1220B0AFFD
:0103F3003ACF
:0103F40022E6
:05248D00781EE6FF22AD
:1020B0008F4DE54DB481097BFF7A13799202045765
:1020C000E54DB482097BFF7A1379A3020457E54DED
:1020D000B483097BFF7A1379B5020457E54DB484C4
:1020E000097BFF7A1379C4020457E54DB485097B57
:1020F000FF7A1379D5020457E54DB486097BFF7A40
:102100001379EA020457E54DB487097BFF7A137906
:0E211000FB0204577BFF7A1479101204572249
:101EAE00E4F539AB07AA06A905A804FF7E407D1903
:101EBE007C01120BFAEFD39402500575C370806942
:101ECE00EFD39402400BEFD39404500575C3718089
:101EDE0058EFD39404400BEFD39408500575C3729A
:101EEE008047EFD39408400BEFD39410500575C381
:101EFE00738036EFD39410400BEFD39420500575BA
:101F0E00C3F08025EFD39420400BEFD394405005BF
:101F1E0075C3F18014EFD39440400BEFD3948050EF
:0B1F2E000575C3F2800375390FAF3951
:011F39002285
:1022EF00E4FDFC8FC5AFC4756C008F6D0DBD000193
:1022FF000CE56D54F07004ED4C70EAED4C601AE58E
:10230F006D5470700AE5C5120AE6E4FCFD80137483
:10231F00FF120AE6E4FCFD800974FF120AE67C0056
:04232F007D80AF05F9
:012333002287
:0424A100EF42902254
:05249200EFF45290225E
:10236C0053873F438780C2AC759852E4F59BFCFDC4
:10237C007BC0FAF9F8120B6FA804A905AA06AB07E3
:10238C00E4FFFE7D2F7C0D120BFAEFF404F59A7529
:05239C009B1ED29922F6
:10241800E4FDFC0DBD00010C209904ED4C70F4EDB9
:0F2428004C60088F99AE07C29980027EF1AF0613
:012437002282
:07247E003098FDAF99C298F0
:012485002234
:102334007D38E4FF1223A17F017E001223F27D4841
:10234400E4FF1223A17F017E001223F27D01E4FF4A
:102354001223A17F027E001223F27D0CE4FF1223DC
:08236400A17F017E000223F2BB
:081F3A008D398B3A8A3B893C8A
:101F4200EFF46010EF4480FDE4FF1223A17F017ED5
:101F5200001223F2E5397038F53DAB3AAA3BA93CB1
:101F6200853D82F583120AB9F53EE53E604EFD7F5E
:101F7200011223A17F017E001223F2053DAB3AAA92
:101F82003BA93C853D82758300120AB9F53E80DA91
:101F9200E4F53DE53DC395395022AB3AAA3BA93C55
:101FA200853D82758300120AB9F53EFD7F01122339
:0C1FB200A17F017E001223F2053D80D7C4
:011FBE002200
:101BDB00E4F54774492547F8E4F60547E547B40BA8
:101BEB00F274FFF557F556F555F554E4F547122405
:101BFB007E8F48E548C394304017E548D39439505D
:101C0B001074492547F8A6480547AF481223CB80E7
:101C1B0050E54864086005E548B47F1A15477449D8
:101C2B002547F8E4F67F081224187F201224187F2A
:101C3B0008122418802BE548640D6005E548B40AAA
:101C4B001D7B007A007949121AFD8F578E568D55E0
:101C5B008C547F0D1224187F0A1224188003E4F58C
:101C6B0048E547B40A1B7B007A007949121AFD8FAD
:101C7B00578E568D558C547F0D1224187F0A1224C3
:101C8B001874FFFFFEFDFCAB57AA56A955A854C309
:101C9B00120CA27003021BF9AF57AE56AD55AC54E4
:011CAB002216
:1023A1008D3FEF70077F4012249780057F401224F4
:1023B100A97F801224A9AF3F1224B17F80122497F4
:0A23C1007FFF1224B17F400224A91F
:1023F2005389F0438901C2A9758CF4758A3DC28D57
:10240200D28C308DFDC28CEF1F70011ED3EF940071
:06241200EE940050E322ED
:0324B1008F8022F7
:05249700EFF452B02239
:0424A500EF42A02240
:0424A900EF42B0222C
:05249C00EFF452A02244
:0424AD00EF42A02238
:082255008F5A8E598D588C57E9
:10225D00E4F56112248D8F607F10122492AF5AAE77
:10226D0059AD58AC57A960A801120CC68F668E6582
:10227D008D648C637F111217FA8F61E561700FAB5E
:10228D005DAA5EA95FAF5CAE5B1219FE8F617F1018
:0C229D001224A1E56160037561F0AF61DF
:0122A9002212
:100D9A002535642E20005B4449525D0A0045727273
:100DAA006F7220686173206F6363757265640044B3
:100DBA00656275673A3A204F66667365742030201B
:100DCA006F6620536563746F722030206973202523
:100DDA00780D0A00466F756E64204D42522E2E2EF3
:100DEA000D0A0044656275673A3A204F6666736574
:100DFA00742030206F662052656C617469766520B4
:100E0A00536563746F727320697320256C780D0AB9
:100E1A000044656275673A3A2074656D70382069D6
:100E2A00732025780D0A004572726F722042504273
:100E3A00206E6F7420466F756E64210D0A00425051
:100E4A004220466F756E64210D0A004279746573FB
:100E5A005065725365633A3A2025780D0A00536546
:100E6A0063506572436C75733A3A202562780D0AAD
:100E7A000052737664536563746F72436F756E7450
:100E8A003A3A2025780D0A004E756D464154533A78
:100E9A003A202562780D0A00526F6F74456E74729B
:100EAA0079436E743A3A2025780D0A00546F7461BA
:100EBA006C536563746F727331363A3A2025780D34
:100ECA000A00464154737A31363A3A2025780D0A97
:100EDA0000546F74616C536563746F727333323A82
:100EEA003A20256C780D0A00464154737A33323A17
:100EFA003A20256C780D0A00526F6F74436C757333
:100F0A007465723A3A20256C780D0A00537461723E
:100F1A00746F664641543A3A20256C780D0A00529D
:100F2A006F6F74446972536563733A3A20256C781B
:100F3A000D0A004669727374446174615365633AB9
:100F4A003A20256C780D0A004669727374526F6FE5
:100F5A00744469725365633A3A20256C780D0A0025
:100F6A00436C75737465722023203D20256C7820AC
:100F7A002C536563746F722023203D20256C780DF5
:100F8A000A00312E20436F6E74696E756520746F86
:100F9A00206E65787420636C75737465720D0A32FD
:100FAA002E204261636B20746F206D61696E206D23
:100FBA00656E750D0A496E70757420456E74727986
:100FCA0020233A20005175697474696E672E2E2E9B
:030FDA000D0A00FD
:072486007B007A00790822B7
:0F243800E54E240BFFE4354DFEAB54AA55A956D3
:082447008F828E83120AB9FF97
:01244F00226A
:0A218C008E4F8F508B518A528953F9
:10219600E4F557F556F555F554F558AB51E5532585
:1021A60050F9E552354FFAC374019558FFE494008F
:1021B600FEE92FF9EA3EFA120AA0FBAF57AE56AD7A
:1021C60055AC547808120CC68F578E568D558C54C4
:1021D600AF03E4E5574FF557E556F556E555F55582
:0F21E600E554F5540558E558B402B0AE56AF575E
:0121F50022C7
:0A211E008E518F528B538A5489555D
:10212800E4F559F558F557F556F55AAB53E55525E5
:1021380052F9E5543551FAC37403955AFFE49400F3
:10214800FEE92FF9EA3EFA120AA0FBAF59AE58ADE4
:1021580057AC567808120CC68F598E588D578C5626
:10216800AF03E4E5594FF559E558F558E557F557E4
:10217800E556F556055AE55AB404B0AF59AE58AD10
:0321880057AC56FB
:01218B002231
:08141E008F3C8E3B8D3A8C39A6
:10142600755001853D51853E52E4F549F54AF5472B
:10143600F5487809E6B4020F781A120D098F468E20
:10144600458D448C43800D7808E6FFE48F46F545CC
:10145600F544F543853C42853B41853A4085393F15
:10146600AF42AE41AD40AC3F780CE6F55B08E6F521
:101476005C85505D85515E85525F1222558F4FE522
:101486004F60030215FAAB50AA51A952AF48AE47B6
:101496001224478F4BE54B64E5700302156CE54B50
:1014A600700302156CE548240BFFE43547FEAB508C
:1014B600AA51A9521224478F4DE54D540E600302DE
:1014C600156C054AE54A700205497BFF7A0D799A43
:1014D60085495FF560120457E4F54C7E00E5482522
:1014E6004CFFEE3547FEAB50AA51A9521224478F46
:1014F6004E1223CB054CE54CC3940840DEE54D3037
:10150600E430754C087E00E548254CFFEE3547FE75
:10151600AB50AA51A9521224478F4E1223CB054C29
:10152600E54CC3940B40DE7BFF7A0D79A01204577D
:1015360080347F2E1223CB754C087E00E548254C5F
:10154600FFEE3547FEAB50AA51A9521224478F4EE3
:101556001223CB054CE54CC3940B40DE7F0D1223C2
:10156600CB7F0A1223CB74202548F548E43547F58E
:1015760047D3E54894FEE5479401406FE5422401D0
:10158600F542E43541F541E43540F540E4353FF5B3
:101596003FC3E542953CFFE541953BFEE540953A64
:1015A600FDE53F9539FCAB46AA45A944A843D312AD
:1015B6000CA24031AF42AE41AD40AC3F780CE6F5EF
:1015C6005B08E6F55C85505D85515E85525F1222AB
:1015D600558F4FE54F6007E4F549F54AF54BE4F5BD
:1015E60047F5488006434980E4F54BE54B60030226
:1015F600148C800E7BFF7A0D79A7120457E4F54907
:06160600F54AAE49AF4AAF
:01160C0022BB
:080FDD008F3C8E3B8D3A8C39EC
:100FE500755401853F55854056E4F54FF550F54D4F
:100FF500F54EF54CF54BF54AF5497809E6B4020F7F
:10100500781A120D098F488E478D468C45800D78CC
:1010150008E6FFE48F48F547F546F545853C4485E8
:101025003B43853A42853941AF44AE43AD42AC417D
:10103500780CE6F55B08E6F55C85545D85555E85BF
:10104500565F1222558F53E55360030211E1AB54ED
:10105500AA55A956AF4EAE4D1224478F51E551649E
:10106500E57003021151E551700302115112243844
:101075008F52E552540E60030211510550E5507030
:1010850002054F653E7004E54F653D600302115151
:101095007809E664047050E54E241512243CE48F6B
:1010A5004CF54BF54AF549AE4BAD4AAC49780812BB
:1010B5000CC68F4C8E4B8D4A8C49E54E2414122458
:1010C5003CE4E54C4FF54CE54BF54BE54AF54AE577
:1010D50049F549AF4CAE4BAD4AFC7808120CC68FAA
:1010E5004C8E4B8D4A8C49E54E241B12243CE4E57D
:1010F5004C4FF54CE54BF54BE54AF54AE549F549C5
:10110500AF4CAE4BAD4AFC7808120CC68F4C8E4BDB
:101115008D4A8C49E54E241A12243CE4E54C4FF5E2
:101125004CE54BF54BE54AF54AE549F549122438B6
:101135008F52E55230E412E54CF54CE54BF54BE5A5
:101145004AF54AE5494410F549E4F5517420254E20
:10115500F54EE4354DF54DD3E54E94FEE54D940140
:101165004071E5442401F544E43543F543E4354253
:10117500F542E43541F541C3E544953CFFE543952A
:101185003BFEE542953AFDE5419539FCAB48AA475A
:10119500A946A845D3120CA24036AF44AE43AD4292
:1011A500AC41780CE6F55B08E6F55C85545D855544
:1011B5005E85565F1222558F53E553600CE4F54C5E
:1011C500F54BF54A754980F551E4F54DF54E80032B
:1011D500E4F551E5516003021053800AE4F54CF53E
:1011E5004BF54A754980E4FFFEFDFCAB4CAA4BA9C3
:1011F5004AA849C3120CA27009F54CF54BF54A757E
:0A1205004980AF4CAE4BAD4AAC4936
:01120F0022BC
:040751008E398F3A14
:10075500755B02755C00AA06A907755D018A5E894D
:100765005F7F007E007D007C001222558F3DAA39F7
:10077500A93A7B01E4FFFE1224478F3C7BFF7A0DEB
:1007850079B9853C5F120457E53C64EB70030208B8
:1007950024E53C64E970030208247BFF7A0D79DEC9
:1007A500120457AA39A93A7B017FC67E0112211E80
:1007B5008F4E8E4D8D4C8C4B7BFF7A0D79ED8F6274
:1007C5008E618D608C5F120457AF4EAE4DAD4CAC53
:1007D5004B755B02755C00755D0185395E853A5F19
:1007E5001222558F3DAA39A93A7B01E4FFFE122456
:1007F500478F3C7BFF7A0E791B853C5F120457E5DA
:100805003C64EB6011E53C64E9600B7BFF7A0E7993
:100815003112045780097BFF7A0E7948120457AAD2
:1008250039A93A7B017D007C021221F6AA39A93A41
:100835007B017F0B7E0012218C780CA60608A6078B
:100845007BFF7A0E795518E6F55F08E6F560120428
:1008550057AA39A93A7B017F0D7E001224477808F3
:10086500A6077BFF7A0E7968E6F55F120457AA3969
:10087500A93A7B017F0E7E0012218C8E3E8F3F7B35
:10088500FF7A0E797B853E5F853F60120457AA3952
:10089500A93A7B017F107E001224478F407BFF7AA7
:1008A5000E799285405F120457AA39A93A7B017FD8
:1008B500117E0012218C8E418F427BFF7A0E79A228
:1008C50085415F854260120457AA39A93A7B017FA9
:1008D500137E0012218C7BFF7A0E79B68E5F8F60B6
:1008E500120457AA39A93A7B017F167E0012218C82
:1008F5007BFF7A0E79CC8E5F8F60120457AA39A9D7
:100905003A7B017F207E0012211E7BFF7A0E79DB68
:100915008F628E618D608C5F120457AA39A93A7B6C
:10092500017F247E0012211E8F468E458D448C4307
:100935007BFF7A0E79F28F628E618D608C5F120477
:1009450057AA39A93A7B017F2C7E0012211E8F4AB6
:100955008E498D488C477BFF7A0F79028F628E61B5
:100965008D608C5F120457E4E53F254EFFE53E356B
:100975004DFEE4354CFDE4354BFC7816120D227B1B
:10098500FF7A0F79167816120D098F628E618D60C8
:100995008C5F120457E542AE417805C333CE33CEA2
:1009A500D8F9FF780CE6FC08E6FD24FFFBEC34FFE4
:1009B500CB2FFFEB3EFE120B1AE4FCFD781A120D4D
:1009C500227BFF7A0F7929781A120D098F628E61C1
:1009D5008D608C5F120457AF40E4FCFDFEAB46AA68
:1009E50045A944A843120B6FA804A905AA06AB079D
:1009F500E4FCFDEB253FFFEA353EFEED39FDEC3825
:100A0500FC781A120D15EF2BFFEE3AFEED39FDECD1
:100A150038FCEF254EFFEE354DFEED354CFDEC3542
:100A25004BFC7812120D227BFF7A0F793D7812125A
:100A35000D098F628E618D608C5F120457E54A2423
:100A4500FEFFE54934FFFEE54834FFFDE54734FF89
:100A5500FCC004A905AA06AB077808E6FFE4FCFD7F
:100A6500FED000120B6F7812120D15EF2BFFEE3A28
:100A7500FEED39FDEC38FC780E120D227BFF7A0F66
:100A85007952780E120D098F628E618D608C5F121E
:0A0A9500045778097604780B760206
:010A9F002234
:081FBF008F3C8E3B8D3A8C39FA
:081FC7008F4A8E498D488C47BA
:101FCF00E4FFFEFDFCAB4AAA49A948A847C3120C7F
:101FDF00A2700F780E120D098F4E8E4D8D4C8C4BBB
:101FEF00803EE54A24FEFFE54934FFFEE54834FF15
:101FFF00FDE54734FFFCC004A905AA06AB07780826
:10200F00E6FFE4FCFDFED000120B6F7812120D15E7
:10201F00EF2BF54EEE3AF54DED39F54CEC38F54B1F
:08202F00AF4EAE4DAD4CAC4BC1
:012037002286
:081D60008F4A8E498D488C4723
:101D6800E47F04FEFDFCAB4AAA49A948A847120B28
:101D78006F8F508E4F8D4E8C4D780CE6FE08E6FF27
:101D8800E4FCFDF8F9AA06AB07AF50AE4FAD4EAC78
:101D98004D120BFA7816120D15EF2BFFEE3AFEEDE9
:101DA80039FDEC38FC780CE6F55B08E6F55C755D0A
:101DB80001854B5E854C5F122255AF50AE4FAD4E3C
:101DC800AC4DC004C005C006C007780CE6FE08E6A6
:101DD800FFE4FCFDF8F9AA06AB07D007D006D0054A
:101DE800D004120BFAAC00AD01AE02AF038F508ED7
:101DF8004F8D4E8C4DAA4BA94C7B0112211EEFEE44
:051E0800EDEC540FFC9D
:011E0D0022B2
:1018FA00121FBF8F428E418D408C3F7BFF7A0F793A
:10190A006A853C62853B61853A6085395F8F668E60
:10191A00658D648C63120457AF42AE41AD40AC3F53
:10192A00780CE6F55B08E6F55C755D01853D5E853C
:10193A003E5F122255AA3DA93E7B01780CE6FC08BF
:10194A00E6FD1221F67BFF7A0F798C120457121BDF
:10195A00DB8F468E458D448C43E47F01FEFDFCAB54
:10196A0046AA45A944A843C3120CA27064AF3CAE70
:10197A003BAD3AAC39853D4B853E4C121D60121F7A
:10198A00BF8F428E418D408C3F780CE6F55B08E6AE
:10199A00F55C755D01853D5E853E5F1222557BFFD4
:1019AA007A0F796A853C62853B61853A6085395F41
:1019BA00854266854165854064853F63120457AA5E
:1019CA003DA93E7B01780CE6FC08E6FD1221F68073
:1019DA00097BFF7A0F79CF120457E47F01FEFDFCE1
:1019EA00AB46AA45A944A843C3120CA27003021924
:0319FA004F7F001C
:0119FD0022C7
:0300000002247265
:0C247200787FE4F6D8FD75816F02160D2E
:100AA000BB010689828A83E0225002E722BBFE0254
:090AB000E32289828A83E4932287
:100AB900BB010CE58229F582E5833AF583E02250F2
:100AC90006E92582F8E622BBFE06E92582F8E2223C
:0D0AD900E58229F582E5833AF583E4932256
:100AE600BB010689828A83F0225002F722BBFE01EF
:020AF600F322E9
:100AF800F8BB010DE58229F582E5833AF583E8F034
:100B0800225006E92582C8F622BBFE05E92582C8DF
:020B1800F222C7
:100B1A00BC000BBE0029EF8DF084FFADF022E4CCBF
:100B2A00F875F008EF2FFFEE33FEEC33FCEE9DEC88
:100B3A00984005FCEE9DFE0FD5F0E9E4CEFD22EDCE
:100B4A00F8F5F0EE8420D21CFEADF075F008EF2F18
:100B5A00FFED33FD4007985006D5F0F222C398FD09
:050B6A000FD5F0EA22A6
:100B6F00E88FF0A4CC8BF0A42CFCE98EF0A42CFC25
:100B7F008AF0EDA42CFCEA8EF0A4CDA8F08BF0A4A3
:100B8F002DCC3825F0FDE98FF0A42CCD35F0FCEB02
:100B9F008EF0A4FEA9F0EB8FF0A4CFC5F02ECD39C7
:0F0BAF00FEE43CFCEAA42DCE35F0FDE43CFC2234
:100BBE0075F008758200EF2FFFEE33FECD33CDCCEE
:100BCE0033CCC58233C5829BED9AEC99E582984071
:100BDE000CF582EE9BFEED9AFDEC99FC0FD5F0D64E
:100BEE00E4CEFBE4CDFAE4CCF9A88222B800C1B978
:100BFE000059BA002DEC8BF084CFCECDFCE5F0CBB6
:100C0E00F97818EF2FFFEE33FEED33FDEC33FCEBEE
:100C1E0033FB10D703994004EB99FB0FD8E5E4F9A9
:100C2E00FA227818EF2FFFEE33FEED33FDEC33FC96
:100C3E00C933C910D7059BE99A4007EC9BFCE99A8A
:100C4E00F90FD8E0E4C9FAE4CCFB2275F010EF2FCF
:100C5E00FFEE33FEED33FDCC33CCC833C810D707CF
:100C6E009BEC9AE899400AED9BFDEC9AFCE899F80A
:0E0C7E000FD5F0DAE4CDFBE4CCFAE4C8F9229D
:100C8C00EB9FF5F0EA9E42F0E99D42F0EC6480C8DF
:060C9C0064809845F0227F
:100CA200EB9FF5F0EA9E42F0E99D42F0E89C45F0A8
:010CB200221F
:100CB300E8600FECC313FCED13FDEE13FEEF13FF1F
:030CC300D8F12243
:100CC600E8600FEFC333FFEE33FEED33FDEC33FC8C
:030CD600D8F12230
:100CD900BB010DE58229F582E5833AF583020D3CD6
:100CE9005007E92582F8020D09BBFE07E92582F8BC
:100CF900020D48E58229F582E5833AF583020D5410
:0C0D0900E6FC08E6FD08E6FE08E6FF2216
:0D0D1500E6FB08E6F908E6FA08E6CBF8224E
:0C0D2200ECF608EDF608EEF608EFF622FD
:1023CB00EFB40A07740D1223D6740A309811A8992A
:1023DB00B8130CC2983098FDA899C298B811F63072
:0723EB0099FDC299F599224A
:1003F500E56B245FF8E6056B22785C300702785FD1
:10040500E475F001120D64020AA02000EB7F2ED2E4
:10041500008018EF540F2490D43440D4FF30040BDF
:10042500EF24BFB41A0050032461FFE56C60021588
:100435006C056FE56F7002056E30070D785CE4752D
:10044500F001120D64EF020AE60223CB7403D20712
:100455008003E4C207F56B8B5C8A5D895EE4F56C0D
:10046500F56EF56FE56C60077F2012043080F57539
:100475006DFFC201C200C202C203C205C206C208A4
:100485001203FEFF700D3007057F00120441AF6FA8
:10049500AE6E22B4255FC2D5C2041203FEFF24D07E
:1004A500B40A00501A75F00A786C30D50508B6FF05
:1004B5000106C6A426F620D5047002D20380D924ED
:1004C500CFB41A00EF5004C2E5D204020641D201AE
:1004D50080C6D20080C0D20280BCD2D580BAD205F7
:1004E50080B47F201204302002077401B56C0040EF
:1004F500F11203F5FF120430020469D208D2068016
:10050500951203F5FB1203F5FA1203F5F94A4B7040
:100515000679127A077BFF20022EE56C602A7E00A1
:100525008E82758300120AB960060EEE656D70F055
:10053500C2D5EBC0E0EAC0E0E9C0E0EE120688D023
:10054500E0F9D0E0FAD0E0FB120AA0FF60AAEBC008
:10055500E0EAC0E0E9C0E0120430D0E02401F9D0BF
:10056500E03400FAD0E0FBE56D0460DCD56DD980A0
:10057500877BFF7A067984D202809C791080027984
:1005850008C206C2088008D2D5790A8004790AC251
:10059500D5E56D047002F56DE4FAFDFEFF1203F575
:1005A500FC7B082001131203F5FD7B1030000A12B5
:1005B50003F5FE1203F5FF7B20EC3382D592D5506F
:1005C50013C3E43000069FFFE49EFEE42001039D73
:1005D500FDE49CFCE4CBF8C201EC700CCFCECDCC95
:1005E500E824F8F870F38017C3EF33FFEE33FEED20
:1005F50033FDEC33FCEB33FB994002FB0FD8E9EB01
:10060500300105F8D0E0C448B201C0E00AEC4D4E17
:100615004F78207B0070C2EAB56D0040BCC0E01287
:10062500068AD0F0D0E0200104C4C0E0C4B201C005
:10063500F0120419D0F0D5F0EB020469120D74051F
:10064500065305805804D74C04D34205844F058CC6
:1006550044058C4904EC43059255057646057645D7
:1006650005764707325004DB2D04DF2E05022B04E7
:10067500E32305002007202A049B48000004FA3FD5
:100685003F3F00790AA2D5200314300509B91002AD
:100695000404B9080104A2D5200602500104200271
:0506A500689202B56C33
:1006AA00005034C0E07F203003197F30A202720666
:1006BA007205500F1206E1C202C206C205C2087FC5
:1006CA0030800F300503E9C0E0120430300503D052
:1006DA00E0F9D0E0B56CCC3005177F30B9100C12B8
:1006EA0004307F583004077F788003B90803120466
:1006FA00303002057F2D0204307F202008F87F2B3E
:10070A002006F322920280CF286E756C6C29002D88
:10071A0050434958D2011203F53001F8C201786CEE
:10072A0030D50108F602049B1203F52403B4050030
:10073A004001E490071993120421743A120421D259
:07074A0003756C0402058039
:101AFD008B588A59895AAB58AA59A95A120AA0FF6C
:101B0D00122450500D7401255AF55AE43559F559E2
:101B1D0080E4D200AB58AA59A95A120AA0FF642B2F
:101B2D006004EFB42D1BAB58055AE55AAA59700243
:101B3D00055914F9120AA0642D6003D38001C392D4
:101B4D0000E4F55EF55DF55CF55BAB58AA59A95A55
:101B5D00120AA0FF122463505CE47F0AFEFDFCAB69
:101B6D005EAA5DA95CA85B120B6FC8ECC8EDC0E066
:101B7D00EEC0E0EFC0E0AB58AA59A95A120AA0FF77
:101B8D003395E0FEEF24D0FFEE34FFFEE4FCFDD0F4
:101B9D00E0FBD0E0FAD0E0F9EB2FF55EEA3EF55D23
:101BAD00ED39F55CEC38F55B7401255AF55AE435E1
:101BBD0059F559809530000AAF5EAE5DAD5CAC5BFA
:0E1BCD00800BAF5EAE5DAD5CAC5B120D2E22E8
:0E0D2E00C3E49FFFE49EFEE49DFDE49CFC22D6
:0C0D3C00E0FCA3E0FDA3E0FEA3E0FF222A
:0C0D4800E2FC08E2FD08E2FE08E2FF22E7
:100D5400E493FC740193FD740293FE740393FF22E5
:100D6400FAE6FB0808E6F925F0F618E6CA3AF62290
:100D7400D083D082F8E4937012740193700DA3A30E
:100D840093F8740193F5828883E473740293686022
:060D9400EFA3A3A380DF22
:0F246300EFC394304007EF943A50028001C32238
:10245000EFC394094005EF940E4003BF2003D380DF
:0324600001C32293
:00000001FF
