:10160C005344204361726420546573742050726F8C
:10161C006772616D0A0D0A0A00496E70757420427A
:10162C006C6F636B233A2000534420436172642037
:10163C00496E69742E2E2E005374642E20436170F3
:10164C0061636974790048696768204361706163FC
:04165C006974790034
:100C7D00758E0C758F017F0F1218DD7FE01218E550
:100C8D007F101218D4E4F526F527AE26AF27E4FC25
:100C9D00FD7B607AEAF9F8C31209C5400A0527E51C
:100CAD002770E7052680E37F101218E57F807E25EB
:100CBD001217A81217707BFF7A16790C1204577B46
:100CCD00FF7A167934E4FDFF1213ED7F807E1A7DD5
:100CDD00067C001213618F28E528600C7F10121816
:100CED00D47F5312185480FE7F401218D412000383
:100CFD008F28E528600C7F101218D47F43121854EA
:100D0D0080FE7F401218E57F807E1A7D067C0012E2
:100D1D0013618F28E528600C7F101218D47F5012B4
:100D2D00185480FEE4F526F52774002527F5827406
:100D3D00003526F58374FFF00527E527700205269B
:100D4D00B400E6E526B402E11218C58F29E529B4F1
:100D5D00090F7BFF7A167944E4FD7F401213ED8075
:100D6D0010E529700C7BFF7A167952FD7F40121326
:100D7D00ED7BFF7A1679251204571210B9A929A80F
:100D8D00011209FF8F258E248D238C227F8012184E
:100D9D00D4E52860077F101218D480FE7E007F00F6
:100DAD0012123E8F287F801218E5E52860077F100C
:100DBD001218D480FE7B017A0079007D007C02122E
:040DCD00155880AD88
:101660002570200025322E326258200041646472B9
:101670002E20202030202031202032202033202016
:1016800034202035202036202037202038202039D3
:10169000202041202042202043202044202045209B
:0516A00020460A0D00C8
:101472008B328A3389348B428A4389447BFF7A16C2
:101482007960120457E4F535AB32AA33A9348535B5
:1014920082758300120847F5367BFF7A167964F568
:1014A200421204570535E535C3941040DBE4F535A7
:1014B200AB32AA33A934853582758300120847F509
:1014C20036C394204007E536D3947F400375362E09
:1014D200AF361218540535E535C3941040D27F0D4E
:0814E2001218547F0A0218548D
:0A1558008B2A8A2B892C8C2D8D2EF6
:101562008B2F8A308931AE02AF0153070F7E00C341
:10157200E99FF9EA9E8B2FF53089317BFF7A167944
:101582006C120457AB2FAA30A931121472741025B1
:1015920031F531E43530F530AB2AE52C252EF9E56D
:1015A2002B352DFAEB8A838982C3E5319582E530AA
:0415B200958340D00D
:0115B6002212
:100A6F005344204361726420496E697469616C69F3
:100A7F007A6174696F6E202E2E2E200A0D00434D61
:100A8F0044302073656E74202E2E2E200052657315
:100A9F00706F6E7365203D2025322E3262580A0D1D
:100AAF0000434D44382073656E74202E2E2E200087
:100ABF00526573706F6E7365203D200025322E32A4
:100ACF006258200A0D0056657273696F6E203120CF
:100ADF005344204361726420646574656374656474
:100AEF002E0A0D005374616E64617264204361704D
:100AFF00616369747920436172642064657465630E
:100B0F007465642E0A0D0025322E3262582000566D
:100B1F00657273696F6E2032205344204361726493
:100B2F002064657465637465642E0A0D00434D443B
:100B3F0035382073656E74202E2E2E200041434DC4
:100B4F004434312073656E74202E2E2E200054698C
:100B5F006D656F7574203D20256C75200A0D00485A
:100B6F0069676820436170616369747920436172BA
:100B7F00642044657465637465640A0D0053746181
:100B8F006E6461726420436170616369747920439C
:100B9F006172642044657465637465640A0D004373
:100BAF004D4431362073656E74202E2E2E20005248
:100BBF006573706F6E7365203D2025322E3262583B
:100BCF00200A0D00426C6F636B2073697A65207386
:100BDF00657420746F203531322062797465730A21
:100BEF000D0053442054696D656F75742045727202
:100BFF006F7200496C6C6567616C20436F6D6D613E
:100C0F006E640A0D00526573706F6E7365204572C6
:100C1F00726F72004461746120546F6B656E204572
:100C2F0072726F7200496E636F6D70617469626C7E
:100C3F006520566F6C74616765004361726420694B
:100C4F007320496E61637469766500535049206F54
:100C5F00722054696D656F7574204572726F7200E2
:0E0C6F00556E6B6E6F776E204572726F72005D
:0B0DD100E4F542F541F540F53F7F3AA4
:020DDC008F3E48
:100DDE00E4F544E53EC394404003020ED6E53E449E
:100DEE0040F5437B007A007945FF1216A58F46E544
:100DFE0046701CAF42AE41AD40AC3F78181209ECC4
:100E0E008F437B007A0079451216A58F46800375B5
:100E1E004487E544702FE546702BE542F542E541E7
:100E2E00F541E540F540E4F53FAF42AE41AD40AC93
:100E3E003F78101209EC8F437B007A007945121629
:100E4E00A58F468003754487E544702DE5467029CD
:100E5E00E542F542E541F541E4F540F53FAF42AEDE
:100E6E0041AD40AC3F78081209EC8F437B007A000D
:100E7E0079451216A58F468003754487E544701890
:100E8E00E5467014E542FFE48F43FB7A007945AFE7
:100E9E00431216A58F468003754487E544702CE5F2
:100EAE00467028E53E7005754395800DE53EB40805
:100EBE000575438780037543017B007A007945AF42
:0D0ECE00431216A58F468003754482AF4481
:010EDB0022F4
:07118A00FB7A00792D7F01C3
:081191008F3E8B3F8A4089412B
:10119900E4F545F546F5427B007A0079447FFF1274
:1011A90016A58F430546E54670020545E544B4FF9B
:1011B9000AE54645456004E54360DCE5436005759D
:1011C90042878061E546454570057542818056AB89
:1011D9003FAA40A941E544120874E544600464014A
:1011E9007040E53ED39401403C754500754601C306
:1011F900E546953EE5459400502B7B007A007944FD
:101209007FFF1216A58F43AB3FAA40A941854682AD
:10121900854583E5441208860546E54670D10545AE
:1012290080CD7542837B007A0079447FFF1216A531
:041239008F43AF42EE
:01123D00228E
:0A0EDC008E3A8F3B8B3C8A3D893E25
:100EE600E4F542F543F5407B007A0079417FFF1235
:100EF60016A58F3F0543E54370020542E54130E7FD
:100F06000AE54345426004E53F60DCE53F6006755F
:100F16004087020FCBE54345427006754081020FBC
:100F2600CBE5416003020FC8F542F5437B007A002A
:100F360079417FFF1216A58F3F0543E543700205F1
:100F460042E541B4FF0AE54345426004E53F60DC03
:100F5600E53F6005754087806CE543454270057541
:100F660040818061E54164FE7053F542F543C3E577
:100F760043953BE542953A50287B007A0079417FBC
:100F8600FF1216A58F3FAB3CAA3DA93E854382853D
:100F96004283E5411208860543E54370D105428048
:100FA600CD7B007A0079417FFF1216A58F3F7B002B
:100FB6007A0079417FFF1216A58F3F80087540841D
:100FC60080037540837B007A0079417FFF1216A566
:040FD6008F3FAF405A
:010FDA0022F4
:10000300E4F52B780E76FF7F101218D97BFF7A0A5E
:10001300796F120457E4F52A7B007A0079357FFF64
:100023001216A58F2C052AE52AC3940A40EA7F807D
:100033001218D47BFF7A0A798D1204577F10121895
:10004300CAE4F542F541F540F53FFF120DDC8F2C74
:10005300E52C701312118A8F2C7BFF7A0A799C8509
:100063002D4212045780057F101218D47F101218E6
:10007300D97F801218E5E52C6002F52BE52B600390
:100083000201627F801218D47BFF7A0A79B01204CE
:10009300577F101218CAE47542AA754101F540F55D
:1000A3003F7F08120DDC8F2CE52C6003020153FB0C
:1000B3007A00792D7F051211918F2C7F101218D998
:1000C3007F801218E5E52C603F7BFF7A0A79BF1227
:1000D30004577BFF7A0A79CB852D42120457E52C0E
:1000E300B48320E52DB4051BE4F52B780E76097B4C
:1000F300FF7A0A79D51204577BFF7A0A79F312043F
:1001030057805C852C2B80577BFF7A0A79BF1204BA
:1001130057E4F52A7BFF7A0B7916742D252AF8E626
:10012300F542120457052AE52AC3940540E67F0DDC
:100133001218077F0A121807E53164AA6003752CA9
:1001430083780E76027BFF7A0B791E120457800F99
:100153007F101218D97F801218E57F101218D4E58A
:100163002B60030201ED7F801218D47BFF7A0B7999
:100173003C1204577F101218CA120DD18F2CE52C94
:100183007053FB7A00792D7F051211918F2C7F100C
:100193001218D97F801218E57BFF7A0A79BF1204FF
:1001A30057E4F52A7BFF7A0B7916742D252AF8E696
:1001B300F542120457052AE52AC3940540E67F0D4C
:1001C3001218077F0A121807E52F54FC64FC601409
:1001D300752C85800F7F101218D97F801218E57F48
:1001E300101218D4E52C6002F52BE52B60030202F4
:1001F300DD780EE6B4020CE4F539F538F5377536DB
:10020300408009E4F539F538F537F536E4F53DF581
:100213003CF53BF53A7F201218D47BFF7A0B794CDF
:100223001204577F101218CAE4F542F541F540F560
:100233003F7F37120DDC8F2CE52C700512118A8F4E
:100243002CE52D64016004E52D7013853942853852
:100253004185374085363F7F29120DDC8F2CE52CF5
:10026300700312118A7F101218D9E53D2401F53D60
:10027300E4353CF53CE4353BF53BE4353AF53AE40B
:10028300FFFEFDFCAB3DAA3CA93BA83AC31209DB28
:100293007003752C81E52D30E004E52C6085E52C99
:1002A30070137F201218E57BFF7A0A799C852D4213
:1002B300120457800A7F801218E57F101218D47B2E
:1002C300FF7A0B795D853D45853C44853B43853A03
:1002D30042120457E52C6002F52BE52B6003020361
:1002E300EA780EE6640260030203EA7F801218D400
:1002F3007BFF7A0B793C1204577F101218CA120D38
:10030300D18F2CE52C60030203D0FB7A00792D7F7B
:10031300051211918F2C7F101218D97F801218E5C6
:100323007BFF7A0A79BF120457E4F52A7BFF7A0B25
:100333007916742D252AF8E6F542120457052AE5A5
:100343002AC3940540E67F0D1218077F0A12180787
:10035300E52E20E706752C860203DFE52E54C0FF49
:10036300BFC00FE4780EF67BFF7A0B796E12045749
:10037300806A780E76097BFF7A0B798C1204577F9B
:10038300801218D47BFF7A0B79AE1204577F1012B8
:1003930018CAE4F542754102F540F53F7F10120D8E
:1003A300DC8F2CE52C703512118A8F2C7F101218DC
:1003B300D97F801218E57BFF7A0B79BE852D421217
:1003C30004577BFF7A0B79D3120457800F7F1012E7
:1003D30018D97F801218E57F101218D4E52C600716
:1003E300F52BAF2B1214EAE52B6004FF1214EAAFCE
:0103F3002BDE
:0103F40022E6
:0518C500780EE6FF2291
:1014EA008F3EE53EB481097BFF7A0B79F1020457FE
:1014FA00E53EB482097BFF7A0C7902020457E53E85
:10150A00B483097BFF7A0C7914020457E53EB4844C
:10151A00097BFF7A0C7923020457E53EB485097BDF
:10152A00FF7A0C7934020457E53EB486097BFF7AC8
:10153A000C7949020457E53EB487097BFF7A0C7996
:0E154A005A0204577BFF7A0C796F1204572265
:10136100E4F52AAB07AA06A905A804FF7E407D196A
:101371007C01120933EFD39402500575C370806963
:10138100EFD39402400BEFD39404500575C37180E1
:1013910058EFD39404400BEFD39408500575C372F2
:1013A1008047EFD39408400BEFD39410500575C3D9
:1013B100738036EFD39410400BEFD3942050057512
:1013C100C3F08025EFD39420400BEFD39440500518
:1013D10075C3F18014EFD39440400BEFD394805048
:0B13E1000575C3F28003752A0FAF2AC8
:0113EC0022DE
:1016A500E4FDFC8FC5AFC47547008F480DBD000133
:1016B5000CE54854F07004ED4C70EAED4C601AE509
:1016C500485470700AE5C5120874E4FCFD80137473
:1016D500FF120874E4FCFD800974FF1208747C0095
:0416E5007D80AF0550
:0116E90022DE
:0418D900EF42902228
:0518CA00EFF452902232
:1017A80053873F438780C2AC759852E4F59BFCFD94
:1017B8007BC0FAF9F81208A8A804A905AA06AB077D
:1017C800E4FFFE7D2F7C0D120933EFF404F59A75C2
:0517D8009B1ED29922C6
:10185400E4FDFC0DBD00010C209904ED4C70F4ED89
:0F1864004C60088F99AE07C29980027EF1AF06E3
:011873002252
:0718B6003098FDAF99C298C4
:0118BD002208
:101770007D38E4FF1217DD7F017E0012182E7D48B0
:10178000E4FF1217DD7F017E0012182E7D01E4FFB9
:101790001217DD7F027E0012182E7D0CE4FF121757
:0817A000DD7F017E0002182E1E
:0813ED008D2A8B2B8A2C892D1F
:1013F500EFF46010EF4480FDE4FF1217DD7F017EFE
:101405000012182EE52A7038F52EAB2BAA2CA92D23
:10141500852E82F583120847F52FE52F604EFD7F57
:10142500011217DD7F017E0012182E052EAB2BAAA7
:101435002CA92D852E82758300120847F52F80DA99
:10144500E4F52EE52EC3952A5022AB2BAA2CA92D07
:10145500852E82758300120847F52FFD7F0112172F
:0C146500DD7F017E0012182E052E80D7BE
:011471002258
:1010B900E4F52A742C252AF8E4F6052AE52AB40B66
:1010C900F274FFF53AF539F538F537E4F52A1218CF
:1010D900B68F2BE52BC394304017E52BD3943950A9
:1010E90010742C252AF8A62B052AAF2B1218078075
:1010F90050E52B64086005E52BB47F1A152A742C7A
:10110900252AF8E4F67F081218547F201218547F14
:1011190008121854802BE52B640D6005E52BB40AE1
:101129001D7B007A00792C120FDB8F3A8E398D38AE
:101139008C377F0D1218547F0A1218548003E4F576
:101149002BE52AB40A1B7B007A00792C120FDB8F5E
:101159003A8E398D388C377F0D1218547F0A121840
:101169005474FFFFFEFDFCAB3AAA39A938A837C36E
:101179001209DB70030210D7AF3AAE39AD38AC377C
:011189002243
:1017DD008D30EF70077F401218CF80057F401218B3
:1017ED00E17F801218E1AF301218E97F801218CF17
:0A17FD007FFF1218E97F400218E197
:10182E005389F0438901C2A9758CF4758A3DC28D26
:10183E00D28C308DFDC28CEF1F70011ED3EF940041
:06184E00EE940050E322BD
:0318E9008F8022CB
:0518CF00EFF452B0220D
:0418DD00EF42A02214
:0418E100EF42B02200
:0518D400EFF452A02218
:0418E500EF42A0220C
:0815B7008F328E318D308C2F34
:1015BF00E4F5391218C58F387F101218CAAF32AE42
:1015CF0031AD30AC2FA938A8011209FF8F428E41DF
:1015DF008D408C3F7F11120DDC8F39E539700FABC9
:1015EF0035AA36A937AF34AE33120EDC8F397F10E0
:0C15FF001218D9E5396003753901AF39C5
:01160B0022BC
:1012D00044656275673A3A204F66667365742030DC
:1012E000206F6620536563746F722030206973200D
:1012F00025780D0A0044656275673A3A204F6666A4
:1013000073657420307830316336206F6620536502
:1013100063746F7220302069732025780D0A0044B1
:10132000656275673A3A204F6666736574203020AF
:101330006F662052656C61746976652053656374CD
:101340006F72732069732025780D0A004572726FE1
:101350007220425042206E6F7420466F756E642179
:01136000008C
:0718BE007B007A0079532240
:0B1874008F2EAA2AA92B7B01E4FFFEA7
:08187F008F828E83120847FFDF
:01188700223E
:04172F008E088F0988
:101733007F02E4FEEEC39F501CEE7C002509FDEC06
:1017430035088D82F583120847FDC3EF9E2409F8FF
:10175300A6050E80DF780A7C007D007B007A007985
:0C1763000C7E007F02120821AE0CAF0DBE
:01176F002257
:0416EA008E2F8F3080
:1016EE007F04E4FEEEC39F501CEE7C002530FDEC23
:1016FE00352F8D82F583120847FDC3EF9E2430F8F7
:10170E00A6050E80DF78317C007D007B007A0079A3
:10171E00357E007F02120821AF38AE37AD36AC35BC
:01172E002298
:04123E008E2A8F2B3A
:10124200753302753400AA06A9077535018A3689F5
:10125200377F007E007D007C001215B71218748F54
:101262002D7BFF7A1279D0852D42120457E52DB4D9
:10127200EB0464E96055AA2AA92B7B017FC47E0195
:101282001216EA8F2D7BFF7A1279F5852D42120410
:1012920057AF2DE4FCFDFE753302F534753501853B
:1012A2002A36852B371215B71218748F2D7BFF7AC9
:1012B20013791F852D42120457E52DB4EB0464E91E
:0D12C20060097BFF7A13794C120457AF2EA0
:0112CF0022FC
:030000000218AA39
:0C18AA00787FE4F6D8FD758168020C7DA3
:10075100E709F608DFFA8046E709F208DFFA803E8A
:1007610088828C83E709F0A3DFFA8032E309F60877
:10077100DFFA8078E309F208DFFA807088828C83DF
:10078100E309F0A3DFFA806489828A83E0A3F60893
:10079100DFFA805889828A83E0A3F208DFFA804C6D
:1007A10080D280FA80C680D4806980F28033801044
:1007B10080A680EA809A80A880DA80E280CA8033AD
:1007C10089828A83ECFAE493A3C8C582C8CCC58325
:1007D100CCF0A3C8C582C8CCC583CCDFE9DEE780F5
:1007E1000D89828A83E493A3F608DFF9ECFAA9F074
:1007F100EDFB2289828A83ECFAE0A3C8C582C8CCCA
:10080100C583CCF0A3C8C582C8CCC583CCDFEADEE2
:10081100E880DB89828A83E493A3F208DFF980CC44
:1008210088F0EF60010E4E60C388F0ED2402B4043D
:100831000050B9F582EB2402B4040050AF232345E4
:0608410082239007A17361
:10084700BB010CE58229F582E5833AF583E0225066
:1008570006E92582F8E622BBFE06E92582F8E222B0
:0D086700E58229F582E5833AF583E49322CA
:10087400BB010689828A83F0225002F722BBFE0163
:02088400F3225D
:10088600F8BB010DE58229F582E5833AF583E8F0A8
:10089600225006E92582C8F622BBFE05E92582C854
:0208A600F2223C
:1008A800E88FF0A4CC8BF0A42CFCE98EF0A42CFCEF
:1008B8008AF0EDA42CFCEA8EF0A4CDA8F08BF0A46D
:1008C8002DCC3825F0FDE98FF0A42CCD35F0FCEBCC
:1008D8008EF0A4FEA9F0EB8FF0A4CFC5F02ECD3991
:0F08E800FEE43CFCEAA42DCE35F0FDE43CFC22FE
:1008F70075F008758200EF2FFFEE33FECD33CDCCB8
:1009070033CCC58233C5829BED9AEC99E58298403A
:100917000CF582EE9BFEED9AFDEC99FC0FD5F0D617
:10092700E4CEFBE4CDFAE4CCF9A88222B800C1B941
:100937000059BA002DEC8BF084CFCECDFCE5F0CB7F
:10094700F97818EF2FFFEE33FEED33FDEC33FCEBB8
:1009570033FB10D703994004EB99FB0FD8E5E4F973
:10096700FA227818EF2FFFEE33FEED33FDEC33FC60
:10097700C933C910D7059BE99A4007EC9BFCE99A54
:10098700F90FD8E0E4C9FAE4CCFB2275F010EF2F99
:10099700FFEE33FEED33FDCC33CCC833C810D70799
:1009A7009BEC9AE899400AED9BFDEC9AFCE899F8D4
:0E09B7000FD5F0DAE4CDFBE4CCFAE4C8F92267
:1009C500EB9FF5F0EA9E42F0E99D42F0EC6480C8A9
:0609D50064809845F02249
:1009DB00EB9FF5F0EA9E42F0E99D42F0E89C45F072
:0109EB0022E9
:1009EC00E8600FECC313FCED13FDEE13FEEF13FFE9
:0309FC00D8F1220D
:1009FF00E8600FEFC333FFEE33FEED33FDEC33FC56
:030A0F00D8F122F9
:10180700EFB40A07740D121812740A309811A899C8
:10181700B8130CC2983098FDA899C298B811F63041
:0718270099FDC299F5992219
:1003F500E54E2442F8E6054E22783F300702784262
:10040500E475F001120A39020A122000EB7F2ED2A0
:10041500008018EF540F2490D43440D4FF30040BDF
:10042500EF24BFB41A0050032461FFE54F600215A5
:100435004F0552E5527002055130070D783FE475BE
:10044500F001120A39EF0208740218077403D20783
:100455008003E4C207F54E8B3F8A408941E4F54F9E
:10046500F551F552E54F60077F2012043080F57590
:1004750050FFC201C200C202C203C205C206C208C1
:100485001203FEFF700D3007057F00120441AF52C5
:10049500AE5122B4255FC2D5C2041203FEFF24D09B
:1004A500B40A00501A75F00A784F30D50508B6FF22
:1004B5000106C6A426F620D5047002D20380D924ED
:1004C500CFB41A00EF5004C2E5D204020641D201AE
:1004D50080C6D20080C0D20280BCD2D580BAD205F7
:1004E50080B47F201204302002077401B54F00400C
:1004F500F11203F5FF120430020469D208D2068016
:10050500951203F5FB1203F5FA1203F5F94A4B7040
:100515000679127A077BFF20022EE54F602A7E00BE
:100525008E8275830012084760060EEE655070F0E6
:10053500C2D5EBC0E0EAC0E0E9C0E0EE120688D023
:10054500E0F9D0E0FAD0E0FB120A12FF60AAEBC096
:10055500E0EAC0E0E9C0E0120430D0E02401F9D0BF
:10056500E03400FAD0E0FBE5500460DCD550D980DA
:10057500877BFF7A067984D202809C791080027984
:1005850008C206C2088008D2D5790A8004790AC251
:10059500D5E550047002F550E4FAFDFEFF1203F5AF
:1005A500FC7B082001131203F5FD7B1030000A12B5
:1005B50003F5FE1203F5FF7B20EC3382D592D5506F
:1005C50013C3E43000069FFFE49EFEE42001039D73
:1005D500FDE49CFCE4CBF8C201EC700CCFCECDCC95
:1005E500E824F8F870F38017C3EF33FFEE33FEED20
:1005F50033FDEC33FCEB33FB994002FB0FD8E9EB01
:10060500300105F8D0E0C448B201C0E00AEC4D4E17
:100615004F78207B0070C2EAB5500040BCC0E012A4
:10062500068AD0F0D0E0200104C4C0E0C4B201C005
:10063500F0120419D0F0D5F0EB020469120A49054D
:10064500065305805804D74C04D34205844F058CC6
:1006550044058C4904EC43059255057646057645D7
:1006650005764707325004DB2D04DF2E05022B04E7
:10067500E32305002007202A049B48000004FA3FD5
:100685003F3F00790AA2D5200314300509B91002AD
:100695000404B9080104A2D5200602500104200271
:0506A500689202B54F50
:1006AA00005034C0E07F203003197F30A202720666
:1006BA007205500F1206E1C202C206C205C2087FC5
:1006CA0030800F300503E9C0E0120430300503D052
:1006DA00E0F9D0E0B54FCC3005177F30B9100C12D5
:1006EA0004307F583004077F788003B90803120466
:1006FA00303002057F2D0204307F202008F87F2B3E
:10070A002006F322920280CF286E756C6C29002D88
:10071A0050434958D2011203F53001F8C201784F0B
:10072A0030D50108F602049B1203F52403B4050030
:10073A004001E490071993120421743A120421D259
:07074A0003754F0402058056
:100FDB008B3B8A3C893DAB3BAA3CA93D120A12FFD5
:100FEB00121888500D7401253DF53DE4353CF53C58
:100FFB0080E4D200AB3BAA3CA93D120A12FF642B42
:10100B006004EFB42D1BAB3B053DE53DAA3C7002E4
:10101B00053C14F9120A12642D6003D38001C392AC
:10102B0000E4F541F540F53FF53EAB3BAA3CA93D4D
:10103B00120A12FF12189B505CE47F0AFEFDFCABF8
:10104B0041AA40A93FA83E1208A8C8ECC8EDC0E0D1
:10105B00EEC0E0EFC0E0AB3BAA3CA93D120A12FF89
:10106B003395E0FEEF24D0FFEE34FFFEE4FCFDD021
:10107B00E0FBD0E0FAD0E0F9EB2FF541EA3EF5408A
:10108B00ED39F53FEC38F53E7401253DF53DE43582
:10109B003CF53C809530000AAF41AE40AD3FAC3ED5
:0E10AB00800BAF41AE40AD3FAC3E120A2B228F
:100A1200BB010689828A83E0225002E722BBFE02E2
:090A2200E32289828A83E4932215
:0E0A2B00C3E49FFFE49EFEE49DFDE49CFC22DC
:100A3900FAE6FB0808E6F925F0F618E6CA3AF622BE
:100A4900D083D082F8E4937012740193700DA3A33C
:100A590093F8740193F5828883E473740293686050
:060A6900EFA3A3A380DF50
:0F189B00EFC394304007EF943A50028001C3220C
:10188800EFC394094005EF940E4003BF2003D380B3
:0318980001C32267
:00000001FF
