:10136B005344204361726420546573742050726F30
:10137B006772616D0A0D0A0A00416D2049206D618B
:10138B006B696E6720697420686572653F00496EF2
:10139B0070757420426C6F636B233A2000534420AA
:1013AB004361726420496E69742E2E2E005374644F
:1013BB002E20436170616369747900486967682006
:0913CB00436170616369747900EB
:100B8700758E0C758F017F0F12160F7FE0121617E7
:100B97007F10121606E4F526F527AE26AF27E4FCEC
:100BA700FD7B607AEAF9F8C31208CF400A0527E50A
:100BB7002770E7052680E37F101216177F807E25B2
:100BC7001214F51214BD7BFF7A13796B1204577B4D
:100BD700FF7A1379A8E4FDFF1212007F807E1A7D49
:100BE700067C001211748F28E528600C7F101216FE
:100BF700067F531215A180FE7F40121606120003CE
:100C07008F28E528600C7F101216067F431215A166
:100C170080FE7F401216177F807E1A7D067C0012A9
:100C270011748F287BFF7A137984120457E52860A3
:100C37000C7F101216067F501215A180FEE4F526D0
:100C4700F52774002527F58274003526F58374FF90
:100C5700F00527E52770020526B400E6E526B4026D
:100C6700E11215F78F29E529B4090F7BFF7A13796C
:100C7700B8E4FD7F401212008010E529700C7BFF5D
:100C87007A1379C6FD7F401212007BFF7A13799998
:100C9700120457120FEFA929A8011209098F258EEF
:100CA700248D238C227F801216067F101215FC8557
:100CB700254285244185234085223F7F11120D124D
:100CC7008F28E52860077F1012160680FE7B017AC1
:100CD7000079007F007E02120E128F287F80121685
:100CE700177F1012160BE52860077F101216068073
:100CF700FE7B017A0079007D007C021213D4808A82
:101433002570200025322E326258200041646472E8
:101443002E20202030202031202032202033202045
:101453003420203520203620203720203820203902
:1014630020204120204220204320204420204520CA
:0514730020460A0D00F7
:101285008B328A3389348B428A4389447BFF7A14B3
:101295007933120457E4F535AB32AA33A9348535D1
:1012A50082758300120751F5367BFF7A147937F57D
:1012B500421204570535E535C3941040DBE4F53596
:1012C500AB32AA33A934853582758300120751F5EF
:1012D50036C394204007E536D3947F400375362EF8
:1012E500AF361215A10535E535C3941040D27F0DF3
:0812F5001215A17F0A0215A1E8
:0A13D4008B2A8A2B892C8C2D8D2E7C
:1013DE008B2F8A308931AE02AF0153070F7E00C3C7
:1013EE00E99FF9EA9E8B2FF53089317BFF7A1479CC
:1013FE003F120457AB2FAA30A93112128574102553
:10140E0031F531E43530F530AB2AE52C252EF9E5F2
:10141E002B352DFAEB8A838982C3E5319582E5302F
:04142E00958340D092
:011432002297
:100979005344204361726420496E697469616C69EA
:100989007A6174696F6E202E2E2E200A0D00434D58
:1009990044302073656E74202E2E2E20005265730C
:1009A900706F6E7365203D2025322E3262580A0D14
:1009B90000434D44382073656E74202E2E2E20007E
:1009C900526573706F6E7365203D200025322E329B
:1009D9006258200A0D0056657273696F6E203120C6
:1009E900534420436172642064657465637465646B
:1009F9002E0A0D005374616E646172642043617044
:100A09006163697479204361726420646574656304
:100A19007465642E0A0D0025322E32625820005664
:100A2900657273696F6E203220534420436172648A
:100A39002064657465637465642E0A0D00434D4432
:100A490035382073656E74202E2E2E200041434DBB
:100A59004434312073656E74202E2E2E2000546983
:100A69006D656F7574203D20256C75200A0D004851
:100A790069676820436170616369747920436172B1
:100A8900642044657465637465640A0D0053746178
:100A99006E64617264204361706163697479204393
:100AA9006172642044657465637465640A0D00436A
:100AB9004D4431362073656E74202E2E2E2000523F
:100AC9006573706F6E7365203D2025322E32625832
:100AD900200A0D00426C6F636B2073697A6520737D
:100AE900657420746F203531322062797465730A18
:100AF9000D0053442054696D656F757420457272F9
:100B09006F7200496C6C6567616C20436F6D6D6134
:100B19006E640A0D00526573706F6E7365204572BD
:100B2900726F72004461746120546F6B656E204569
:100B390072726F7200496E636F6D70617469626C75
:100B49006520566F6C746167650043617264206942
:100B59007320496E61637469766500535049206F4B
:100B6900722054696D656F7574204572726F7200D9
:0E0B7900556E6B6E6F776E204572726F720054
:0B0D0700E4F542F541F540F53F7F3A6E
:020D12008F3E12
:100D1400E4F544E53EC394404003020E0CE53E4432
:100D240040F5437B007A007945FF1214788F46E53D
:100D340046701CAF42AE41AD40AC3F78181208F685
:100D44008F437B007A0079451214788F46800375AF
:100D54004487E544702FE546702BE542F542E541B2
:100D6400F541E540F540E4F53FAF42AE41AD40AC5E
:100D74003F78101208F68F437B007A0079451214ED
:100D8400788F468003754487E544702DE5467029C5
:100D9400E542F542E541F541E4F540F53FAF42AEA9
:100DA40041AD40AC3F78081208F68F437B007A00CF
:100DB40079451214788F468003754487E54470188A
:100DC400E5467014E542FFE48F43FB7A007945AFB2
:100DD400431214788F468003754487E544702CE5EC
:100DE400467028E53E7005754395800DE53EB408D0
:100DF4000575438780037543017B007A007945AF0D
:0D0E0400431214788F468003754482AF447A
:010E110022BE
:0710C000FB7A00792D7F018E
:0810C7008F3E8B3F8A408941F6
:1010CF00E4F545F546F5427B007A0079447FFF123F
:1010DF0014788F430546E54670020545E544B4FF95
:1010EF000AE54645456004E54360DCE54360057568
:1010FF0042878061E546454570057542818056AB54
:10110F003FAA40A941E54412077EE544600464010B
:10111F007040E53ED39401403C754500754601C3D0
:10112F00E546953EE5459400502B7B007A007944C7
:10113F007FFF1214788F43AB3FAA40A941854682A7
:10114F00854583E5441207900546E54670D1054570
:10115F0080CD7542837B007A0079447FFF1214782B
:04116F008F43AF42B9
:011173002259
:0A0E12008E2A8F2B8B2C8A2D892E3F
:100E1C00E4F532F533F5307B007A0079317FFF123F
:100E2C0014788F2F0533E53370020532E53130E746
:100E3C000AE53345326004E52F60DCE52F6006756A
:100E4C003087020F01E53345327006753081020F91
:100E5C0001E5316003020EFEF532F5337B007A00BA
:100E6C0079317FFF1214788F2F0533E5337002052B
:100E7C0032E531B4FF0AE53345326004E52F60DC1E
:100E8C00E52F6005753087806CE53345327005754C
:100E9C0030818061E53164FE7053F532F533C3E582
:100EAC0033952BE532952A50287B007A0079317FD7
:100EBC00FF1214788F2FAB2CAA2DA92E8533828587
:100ECC003283E5311207900533E53370D10532805A
:100EDC00CD7B007A0079317FFF1214788F2F7B0045
:100EEC007A0079317FFF1214788F2F800875308447
:100EFC0080037530837B007A0079317FFF12147880
:040F0C008F2FAF3044
:010F100022BE
:10000300E4F52B780876FF7F1012160B7BFF7A0935
:100013007979120457E4F52A7B007A0079357FFF5A
:100023001214788F2C052AE52AC3940A40EA7F80AC
:100033001216067BFF7A0979971204577F1012155F
:10004300FCE4F542F541F540F53FFF120D128F2C0C
:10005300E52C70131210C08F2C7BFF7A0979A685CB
:100063002D4212045780057F101216067F101216B8
:100073000B7F80121617E52C6002F52BE52B60032E
:100083000201627F801216067BFF7A0979BA120495
:10009300577F101215FCE47542AA754101F540F52E
:1000A3003F7F08120D128F2CE52C6003020153FBD6
:1000B3007A00792D7F051210C78F2C7F1012160B33
:1000C3007F80121617E52C603F7BFF7A0979C912EE
:1000D30004577BFF7A0979D5852D42120457E52C05
:1000E300B48320E52DB4051BE4F52B780876097B52
:1000F300FF7A0979DF1204577BFF7A0979FD12042D
:1001030057805C852C2B80577BFF7A0979C91204B1
:1001130057E4F52A7BFF7A0A7920742D252AF8E61D
:10012300F542120457052AE52AC3940540E67F0DDC
:100133001215547F0A121554E53164AA6003752C15
:1001430083780876027BFF7A0A7928120457800F96
:100153007F1012160B7F801216177F10121606E5FA
:100163002B60030201ED7F801216067BFF7A0A796A
:10017300461204577F101215FC120D078F2CE52C25
:100183007053FB7A00792D7F051210C78F2C7F10D7
:1001930012160B7F801216177BFF7A0979C9120496
:1001A30057E4F52A7BFF7A0A7920742D252AF8E68D
:1001B300F542120457052AE52AC3940540E67F0D4C
:1001C3001215547F0A121554E52F54FC64FC601475
:1001D300752C85800F7F1012160B7F801216177FE8
:1001E30010121606E52C6002F52BE52B60030202C4
:1001F300DD7808E6B4020CE4F539F538F5377536E1
:10020300408009E4F539F538F537F536E4F53DF581
:100213003CF53BF53A7F201216067BFF7A0A7956A6
:100223001204577F101215FCE4F542F541F540F531
:100233003F7F37120D128F2CE52C70051210C08FE3
:100243002CE52D64016004E52D7013853942853852
:100253004185374085363F7F29120D128F2CE52CBF
:1002630070031210C07F1012160BE53D2401F53DFB
:10027300E4353CF53CE4353BF53BE4353AF53AE40B
:10028300FFFEFDFCAB3DAA3CA93BA83AC31208E51F
:100293007003752C81E52D30E004E52C6085E52C99
:1002A30070137F201216177BFF7A0979A6852D42DA
:1002B300120457800A7F801216177F101216067BCE
:1002C300FF7A0A7967853D45853C44853B43853AFA
:1002D30042120457E52C6002F52BE52B6003020361
:1002E300EA7808E6640260030203EA7F80121606D6
:1002F3007BFF7A0A79461204577F101215FC120D00
:10030300078F2CE52C60030203D0FB7A00792D7F45
:10031300051210C78F2C7F1012160B7F8012161731
:100323007BFF7A0979C9120457E4F52A7BFF7A0A1D
:100333007920742D252AF8E6F542120457052AE59B
:100343002AC3940540E67F0D1215547F0A121554F3
:10035300E52E20E706752C860203DFE52E54C0FF49
:10036300BFC00FE47808F67BFF7A0A797812045746
:10037300806A780876097BFF7A0A79961204577F98
:10038300801216067BFF7A0A79B81204577F10127F
:1003930015FCE4F542754102F540F53F7F10120D5F
:1003A300128F2CE52C70351210C08F2C7F10121673
:1003B3000B7F801216177BFF7A0A79C8852D4212AC
:1003C30004577BFF7A0A79DD120457800F7F1012DE
:1003D300160B7F801216177F10121606E52C600786
:1003E300F52BAF2B1212FDE52B6004FF1212FDAFAC
:0103F3002BDE
:0103F40022E6
:0515F7007808E6FF2268
:1012FD008F3EE53EB481097BFF7A0A79FB020457E4
:10130D00E53EB482097BFF7A0B790C020457E53E6A
:10131D00B483097BFF7A0B791E020457E53EB48432
:10132D00097BFF7A0B792D020457E53EB485097BC5
:10133D00FF7A0B793E020457E53EB486097BFF7AAE
:10134D000B7953020457E53EB487097BFF7A0B797D
:0E135D00640204577BFF7A0B79791204572241
:10117400E4F52AAB07AA06A905A804FF7E407D1959
:101184007C0112083DEFD39402500575C370806949
:10119400EFD39402400BEFD39404500575C37180D0
:1011A40058EFD39404400BEFD39408500575C372E1
:1011B4008047EFD39408400BEFD39410500575C3C8
:1011C400738036EFD39410400BEFD3942050057501
:1011D400C3F08025EFD39420400BEFD39440500507
:1011E40075C3F18014EFD39440400BEFD394805037
:0B11F4000575C3F28003752A0FAF2AB7
:0111FF0022CD
:10147800E4FDFC8FC5AFC47547008F480DBD000162
:101488000CE54854F07004ED4C70EAED4C601AE538
:10149800485470700AE5C512077EE4FCFD80137499
:1014A800FF12077EE4FCFD800974FF12077E7C00B2
:0414B8007D80AF057F
:0114BC00220D
:04160B00EF429022F8
:0515FC00EFF452902203
:1014F50053873F438780C2AC759852E4F59BFCFD4A
:101505007BC0FAF9F81207B2A804A905AA06AB0729
:10151500E4FFFE7D2F7C0D12083DEFF404F59A756E
:051525009B1ED299227B
:1015A100E4FDFC0DBD00010C209904ED4C70F4ED3F
:0F15B1004C60088F99AE07C29980027EF1AF0699
:0115C0002208
:0715EF003098FDAF99C2988E
:0115F60022D2
:1014BD007D38E4FF12152A7F017E0012157B7D48D1
:1014CD00E4FF12152A7F017E0012157B7D01E4FFDA
:1014DD0012152A7F027E0012157B7D0CE4FF12157A
:0814ED002A7F017E0002157B3D
:081200008D2A8B2B8A2C892D0D
:10120800EFF46010EF4480FDE4FF12152A7F017EA1
:101218000012157BE52A7038F52EAB2BAA2CA92DC8
:10122800852E82F583120751F52FE52F604EFD7F3D
:101238000112152A7F017E0012157B052EAB2BAA01
:101248002CA92D852E82758300120751F52F80DA7F
:10125800E4F52EE52EC3952A5022AB2BAA2CA92DF6
:10126800852E82758300120751F52FFD7F01121517
:0C1278002A7F017E0012157B052E80D716
:011284002247
:100FEF00E4F52A742C252AF8E4F6052AE52AB40B31
:100FFF00F274FFF53AF539F538F537E4F52A12159D
:10100F00EF8F2BE52BC394304017E52BD39439503A
:10101F0010742C252AF8A62B052AAF2B12155480F5
:10102F0050E52B64086005E52BB47F1A152A742C44
:10103F00252AF8E4F67F081215A17F201215A17F4B
:10104F00081215A1802BE52B640D6005E52BB40A62
:10105F001D7B007A00792C120F118F3A8E398D3843
:10106F008C377F0D1215A17F0A1215A18003E4F5AD
:10107F002BE52AB40A1B7B007A00792C120F118FF3
:10108F003A8E398D388C377F0D1215A17F0A1215C4
:10109F00A174FFFFFEFDFCAB3AAA39A938A837C3EC
:1010AF001208E5700302100DAF3AAE39AD38AC3708
:0110BF00220E
:10152A008D30EF70077F4012160180057F4012163A
:10153A00137F80121613AF3012161B7F801216010A
:0A154A007FFF12161B7F40021613EC
:10157B005389F0438901C2A9758CF4758A3DC28DDC
:10158B00D28C308DFDC28CEF1F70011ED3EF9400F7
:06159B00EE940050E32273
:03161B008F80229B
:05160100EFF452B022DD
:04160F00EF42A022E4
:04161300EF42B022D0
:05160600EFF452A022E8
:04161700EF42A022DC
:030000000215E303
:0C15E300787FE4F6D8FD758152020B877A
:10075100BB010CE58229F582E5833AF583E022505D
:1007610006E92582F8E622BBFE06E92582F8E222A7
:0D077100E58229F582E5833AF583E49322C1
:10077E00BB010689828A83F0225002F722BBFE015A
:02078E00F32254
:10079000F8BB010DE58229F582E5833AF583E8F09F
:1007A000225006E92582C8F622BBFE05E92582C84B
:0207B000F22233
:1007B200E88FF0A4CC8BF0A42CFCE98EF0A42CFCE6
:1007C2008AF0EDA42CFCEA8EF0A4CDA8F08BF0A464
:1007D2002DCC3825F0FDE98FF0A42CCD35F0FCEBC3
:1007E2008EF0A4FEA9F0EB8FF0A4CFC5F02ECD3988
:0F07F200FEE43CFCEAA42DCE35F0FDE43CFC22F5
:1008010075F008758200EF2FFFEE33FECD33CDCCAE
:1008110033CCC58233C5829BED9AEC99E582984031
:100821000CF582EE9BFEED9AFDEC99FC0FD5F0D60E
:10083100E4CEFBE4CDFAE4CCF9A88222B800C1B938
:100841000059BA002DEC8BF084CFCECDFCE5F0CB76
:10085100F97818EF2FFFEE33FEED33FDEC33FCEBAF
:1008610033FB10D703994004EB99FB0FD8E5E4F96A
:10087100FA227818EF2FFFEE33FEED33FDEC33FC57
:10088100C933C910D7059BE99A4007EC9BFCE99A4B
:10089100F90FD8E0E4C9FAE4CCFB2275F010EF2F90
:1008A100FFEE33FEED33FDCC33CCC833C810D70790
:1008B1009BEC9AE899400AED9BFDEC9AFCE899F8CB
:0E08C1000FD5F0DAE4CDFBE4CCFAE4C8F9225E
:1008CF00EB9FF5F0EA9E42F0E99D42F0EC6480C8A0
:0608DF0064809845F02240
:1008E500EB9FF5F0EA9E42F0E99D42F0E89C45F069
:0108F50022E0
:1008F600E8600FECC313FCED13FDEE13FEEF13FFE0
:03090600D8F12203
:10090900E8600FEFC333FFEE33FEED33FDEC33FC4C
:03091900D8F122F0
:10155400EFB40A07740D12155F740A309811A89934
:10156400B8130CC2983098FDA899C298B811F630F7
:0715740099FDC299F59922CF
:1003F500E54E2442F8E6054E22783F300702784262
:10040500E475F00112094302091C2000EB7F2ED28E
:10041500008018EF540F2490D43440D4FF30040BDF
:10042500EF24BFB41A0050032461FFE54F600215A5
:100435004F0552E5527002055130070D783FE475BE
:10044500F001120943EF02077E0215547403D20727
:100455008003E4C207F54E8B3F8A408941E4F54F9E
:10046500F551F552E54F60077F2012043080F57590
:1004750050FFC201C200C202C203C205C206C208C1
:100485001203FEFF700D3007057F00120441AF52C5
:10049500AE5122B4255FC2D5C2041203FEFF24D09B
:1004A500B40A00501A75F00A784F30D50508B6FF22
:1004B5000106C6A426F620D5047002D20380D924ED
:1004C500CFB41A00EF5004C2E5D204020641D201AE
:1004D50080C6D20080C0D20280BCD2D580BAD205F7
:1004E50080B47F201204302002077401B54F00400C
:1004F500F11203F5FF120430020469D208D2068016
:10050500951203F5FB1203F5FA1203F5F94A4B7040
:100515000679127A077BFF20022EE54F602A7E00BE
:100525008E8275830012075160060EEE655070F0DD
:10053500C2D5EBC0E0EAC0E0E9C0E0EE120688D023
:10054500E0F9D0E0FAD0E0FB12091CFF60AAEBC08D
:10055500E0EAC0E0E9C0E0120430D0E02401F9D0BF
:10056500E03400FAD0E0FBE5500460DCD550D980DA
:10057500877BFF7A067984D202809C791080027984
:1005850008C206C2088008D2D5790A8004790AC251
:10059500D5E550047002F550E4FAFDFEFF1203F5AF
:1005A500FC7B082001131203F5FD7B1030000A12B5
:1005B50003F5FE1203F5FF7B20EC3382D592D5506F
:1005C50013C3E43000069FFFE49EFEE42001039D73
:1005D500FDE49CFCE4CBF8C201EC700CCFCECDCC95
:1005E500E824F8F870F38017C3EF33FFEE33FEED20
:1005F50033FDEC33FCEB33FB994002FB0FD8E9EB01
:10060500300105F8D0E0C448B201C0E00AEC4D4E17
:100615004F78207B0070C2EAB5500040BCC0E012A4
:10062500068AD0F0D0E0200104C4C0E0C4B201C005
:10063500F0120419D0F0D5F0EB0204691209530544
:10064500065305805804D74C04D34205844F058CC6
:1006550044058C4904EC43059255057646057645D7
:1006650005764707325004DB2D04DF2E05022B04E7
:10067500E32305002007202A049B48000004FA3FD5
:100685003F3F00790AA2D5200314300509B91002AD
:100695000404B9080104A2D5200602500104200271
:0506A500689202B54F50
:1006AA00005034C0E07F203003197F30A202720666
:1006BA007205500F1206E1C202C206C205C2087FC5
:1006CA0030800F300503E9C0E0120430300503D052
:1006DA00E0F9D0E0B54FCC3005177F30B9100C12D5
:1006EA0004307F583004077F788003B90803120466
:1006FA00303002057F2D0204307F202008F87F2B3E
:10070A002006F322920280CF286E756C6C29002D88
:10071A0050434958D2011203F53001F8C201784F0B
:10072A0030D50108F602049B1203F52403B4050030
:10073A004001E490071993120421743A120421D259
:07074A0003754F0402058056
:100F11008B3B8A3C893DAB3BAA3CA93D12091CFF96
:100F21001215C1500D7401253DF53DE4353CF53CEC
:100F310080E4D200AB3BAA3CA93D12091CFF642B03
:100F41006004EFB42D1BAB3B053DE53DAA3C7002AF
:100F5100053C14F912091C642D6003D38001C3926E
:100F610000E4F541F540F53FF53EAB3BAA3CA93D18
:100F710012091CFF1215D4505CE47F0AFEFDFCAB84
:100F810041AA40A93FA83E1207B2C8ECC8EDC0E093
:100F9100EEC0E0EFC0E0AB3BAA3CA93D12091CFF4B
:100FA1003395E0FEEF24D0FFEE34FFFEE4FCFDD0EC
:100FB100E0FBD0E0FAD0E0F9EB2FF541EA3EF54055
:100FC100ED39F53FEC38F53E7401253DF53DE4354D
:100FD1003CF53C809530000AAF41AE40AD3FAC3EA0
:0E0FE100800BAF41AE40AD3FAC3E1209352251
:10091C00BB010689828A83E0225002E722BBFE02D9
:09092C00E32289828A83E493220C
:0E093500C3E49FFFE49EFEE49DFDE49CFC22D3
:10094300FAE6FB0808E6F925F0F618E6CA3AF622B5
:10095300D083D082F8E4937012740193700DA3A333
:1009630093F8740193F5828883E473740293686047
:06097300EFA3A3A380DF47
:0F15D400EFC394304007EF943A50028001C322D6
:1015C100EFC394094005EF940E4003BF2003D3807D
:0315D10001C32231
:00000001FF
