:101DC1005344204361726420546573742050726FD0
:101DD1006772616D0A0D0A0A00496E7075742045BB
:101DE1006E74727920233A2000456E7472792069ED
:101DF100732061206469726563746F72792E2E2E6F
:101E01004F70656E696E67206E6F772E2E2E0D0AEC
:101E110000456E74727920697320612066696C6572
:101E21002E2E2E4F70656E696E67206E6F772E2E87
:101E31002E0D0A005344204361726420496E697477
:101E41002E2E2E005374642E2043617061636974D9
:101E5100790048696768204361706163697479003A
:1015D3001224318B368A378938758E0C758F017FCB
:1015E3000F1224507FE01224587F10122447E4F591
:1015F3002AF52BAE2AAF2BE4FCFD7B607AEAF9F8DF
:10160300C3120C8C400A052BE52B70E7052A80E3F7
:101613007F101224587F807E251223171222DF7B2E
:10162300FF7A1D79C11204577BFF7A1E7935E4FDD9
:10163300FF121EED7F807E1A7D067C00121E618FD5
:101643002CE52C600C7F101224477F531223C38098
:10165300FE7F401224471200038F2CE52C600C7F81
:10166300101224477F431223C380FE7F4012245865
:101673007F807E1A7D067C00121E618F2CE52C6014
:101683000C7F101224477F501223C380FEE4F52AF7
:10169300F52B7400252BF5827400352AF58374FF2E
:1016A300F0052BE52B7002052AB400E6E52AB40207
:1016B300E11224388F2DE52DB4090F7BFF7A1E79B3
:1016C30045E4FD7F40121EED8010E52D700C7BFF7D
:1016D3007A1E7953FD7F40121EED7E007F001207B4
:1016E300518F2CAB36AA37A938900006120CD98F2C
:1016F300358E348D338C32AF35AE34AD33AC327579
:101703003D00753E001213E47BFF7A1D79DA120463
:1017130057121B918F258E248D238C227F801224B8
:1017230047AF35AE34AD33AC3285243D85253E75A8
:101733003F00754000120D9A8F318E308D2F8C2E05
:10174300E4FFFEFDE52E5410FCE4FBFAF9F8C312A6
:101753000CA260307BFF7A1D79EA120457E531F55C
:1017630031E530F530E52FF52FE52E540FF52EAF8B
:1017730031AE30AD2FFC121FEA8F358E348D338C92
:10178300320216FA7BFF7A1E7912120457E531F5FD
:1017930031E530F530E52FF52FE52E540FF52EAF5B
:1017A30031AE30AD2FFC753D02753E001219BF02FC
:0217B30016FA24
:102255002570200025322E326258200041646472B8
:102265002E20202030202031202032202033202015
:1022750034202035202036202037202038202039D2
:10228500202041202042202043202044202045209A
:0522950020460A0D00C7
:101F72008B578A5889598B5F8A6089617BFF7A22E5
:101F82007955120457E4F55AAB57AA58A959855AFC
:101F920082758300120AB9F55B7BFF7A227959F5C3
:101FA2005F120457055AE55AC3941040DBE4F55A10
:101FB200AB57AA58A959855A82758300120AB9F5F6
:101FC2005BC394204007E55BD3947F4003755B2E8F
:101FD200AF5B1223C3055AE55AC3941040D27F0D5A
:081FE2001223C37F0A0223C38E
:0A21A1008B4F8A5089518C528D53E8
:1021AB008B548A558956AE02AF0153070F7E00C37D
:1021BB00E99FF9EA9E8B54F55589567BFF7A227974
:1021CB0061120457AB54AA55A956121F72741025ED
:1021DB0056F556E43555F555AB4FE5512553F9E515
:1021EB00503552FAEB8A838982C3E5569582E555C1
:0421FB00958340D0B8
:0121FF0022BD
:100FCD005344204361726420496E697469616C6990
:100FDD007A6174696F6E202E2E2E200A0D00434DFE
:100FED0044302073656E74202E2E2E2000526573B2
:100FFD00706F6E7365203D2025322E3262580A0DBA
:10100D0000434D44382073656E74202E2E2E200023
:10101D00526573706F6E7365203D200025322E3240
:10102D006258200A0D0056657273696F6E2031206B
:10103D005344204361726420646574656374656410
:10104D002E0A0D005374616E6461726420436170E9
:10105D0061636974792043617264206465746563AA
:10106D007465642E0A0D0025322E3262582000560A
:10107D00657273696F6E2032205344204361726430
:10108D002064657465637465642E0A0D00434D44D8
:10109D0035382073656E74202E2E2E200041434D61
:1010AD004434312073656E74202E2E2E2000546929
:1010BD006D656F7574203D20256C75200A0D0048F7
:1010CD006967682043617061636974792043617257
:1010DD00642044657465637465640A0D005374611E
:1010ED006E64617264204361706163697479204339
:1010FD006172642044657465637465640A0D004310
:10110D004D4431362073656E74202E2E2E200052E4
:10111D006573706F6E7365203D2025322E326258D7
:10112D00200A0D00426C6F636B2073697A65207322
:10113D00657420746F203531322062797465730ABD
:10114D000D0053442054696D656F7574204572729E
:10115D006F7200496C6C6567616C20436F6D6D61DA
:10116D006E640A0D00526573706F6E736520457263
:10117D00726F72004461746120546F6B656E20450F
:10118D0072726F7200496E636F6D70617469626C1B
:10119D006520566F6C7461676500436172642069E8
:1011AD007320496E61637469766500535049206FF1
:1011BD00722054696D656F7574204572726F72007F
:0E11CD00556E6B6E6F776E204572726F7200FA
:0B17B500E4F566F565F564F5637F3A26
:0217C0008F6236
:1017C200E4F568E562C3944040030218BAE5624456
:1017D20040F5677B007A007969FF12229A8F6AE5E9
:1017E2006A701CAF66AE65AD64AC637818120CB358
:1017F2008F677B007A00796912229A8F6A8003755B
:101802006887E568702FE56A702BE566F566E56521
:10181200F565E564F564E4F563AF66AE65AD64ACA9
:10182200637810120CB38F677B007A0079691222F9
:101832009A8F6A8003756887E568702DE56A70295A
:10184200E566F566E565F565E4F564F563AF66AEF4
:1018520065AD64AC637808120CB38F677B007A00C5
:10186200796912229A8F6A8003756887E568701811
:10187200E56A7014E566FFE48F67FB7A007969AF69
:101882006712229A8F6A8003756887E568702CE573
:101892006A7028E5627005756795800DE562B40887
:1018A2000575678780037567017B007A007969AFE8
:0D18B2006712229A8F6A8003756882AF6802
:0118BF002206
:071C6200FB7A00793C7F01D1
:081C69008F4D8B4E8A4F89500C
:101C7100E4F554F555F5517B007A0079537FFF1255
:101C8100229A8F520555E55570020554E553B4FF6C
:101C91000AE55545546004E55260DCE5526005757E
:101CA10051878061E555455470057551818056AB6A
:101CB1004EAA4FA950E553120AE6E55360046401A8
:101CC1007040E54DD39401403C755400755501C3F6
:101CD100E555954DE5549400502B7B007A007953DE
:101CE1007FFF12229A8F52AB4EAA4FA9508555827F
:101CF100855483E553120AF80555E55570D105540D
:101D010080CD7551837B007A0079537FFF12229A2F
:041D11008F52AF51ED
:011D150022AB
:0A18C0008E628F638B648A6589666F
:1018CA00E4F56AF56BF5687B007A0079697FFF12A7
:1018DA00229A8F67056BE56B7002056AE56930E746
:1018EA000AE56B456A6004E56760DCE567600675D2
:1018FA0068870219AFE56B456A7006756881021937
:10190A00AFE56960030219ACF56AF56B7B007A00F2
:10191A0079697FFF12229A8F67056BE56B70020562
:10192A006AE569B4FF0AE56B456A6004E56760DC4D
:10193A00E5676005756887806CE56B456A700575B3
:10194A0068818061E56964FE7053F56AF56BC3E5E9
:10195A006B9563E56A956250287B007A0079697F06
:10196A00FF12229A8F67AB64AA65A966856B828586
:10197A006A83E569120AF8056BE56B70D1056A801E
:10198A00CD7B007A0079697FFF12229A8F677B00EC
:10199A007A0079697FFF12229A8F678008756884B6
:1019AA0080037568837B007A0079697FFF12229A27
:0419BA008F67AF681C
:0119BE002206
:10000300E4F53A781E76FF7F1012244C7BFF7A0FBB
:1000130079CD120457E4F5397B007A0079447FFFE8
:1000230012229A8F3B0539E539C3940A40EA7F804F
:100033001224477BFF7A0F79EB1204577F101224A7
:100043003DE4F566F565F564F563FF1217C08F3B74
:10005300E53B7013121C628F3B7BFF7A0F79FA85A5
:100063003C5F12045780057F101224477F1012242F
:100073004C7F80122458E53B6002F53AE53A600371
:100083000201627F801224477BFF7A10790E1204EB
:10009300577F1012243DE47566AA756501F564F572
:1000A300637F081217C08F3BE53B6003020153FBDC
:1000B3007A00793C7F05121C698F3B7F1012244C18
:1000C3007F80122458E53B603F7BFF7A10791D1235
:1000D30004577BFF7A107929853C5F120457E53B6F
:1000E300B48320E53CB4051BE4F53A781E76097B1E
:1000F300FF7A1079331204577BFF7A107951120477
:1001030057805C853B3A80577BFF7A10791D120438
:1001130057E4F5397BFF7A107974743C2539F8E696
:10012300F55F1204570539E539C3940540E67F0DA1
:100133001223767F0A122376E54064AA6003753B97
:1001430083781E76027BFF7A10797C120457800F26
:100153007F1012244C7F801224587F10122447E50D
:100163003A60030201ED7F801224477BFF7A107906
:100173009A1204577F1012243D1217B58F3BE53BAB
:100183007053FB7A00793C7F05121C698F3B7F100B
:1001930012244C7F801224587BFF7A10791D12049D
:1001A30057E4F5397BFF7A107974743C2539F8E606
:1001B300F55F1204570539E539C3940540E67F0D11
:1001C3001223767F0A122376E53E54FC64FC601406
:1001D300753B85800F7F1012244C7F801224587F3B
:1001E30010122447E53B6002F53AE53A6003020248
:1001F300DD781EE6B4020CE4F548F547F54675458F
:10020300408009E4F548F547F546F545E4F54CF536
:100213004BF54AF5497F201224477BFF7A1079AAD0
:100223001204577F1012243DE4F566F565F564F575
:10023300637F371217C08F3BE53B7005121C628F3B
:100243003BE53C64016004E53C70138548668547E3
:10025300658546648545637F291217C08F3BE53B5F
:100263007003121C627F1012244CE54C2401F54CE0
:10027300E4354BF54BE4354AF54AE43549F549E4B1
:10028300FFFEFDFCAB4CAA4BA94AA849C3120CA222
:100293007003753B81E53C30E004E53B6085E53B5D
:1002A30070137F201224587BFF7A0F79FA853C5F05
:1002B300120457800A7F801224587F101224477B30
:1002C300FF7A1079BB854C62854B61854A6085490D
:1002D3005F120457E53B6002F53AE53A6003020317
:1002E300EA781EE6640260030203EA7F8012244771
:1002F3007BFF7A10799A1204577F1012243D12174C
:10030300B58F3BE53B60030203D0FB7A00793C7F6A
:1003130005121C698F3B7F1012244C7F80122458D6
:100323007BFF7A10791D120457E4F5397BFF7A10AD
:100333007974743C2539F8E6F55F1204570539E5FD
:1003430039C3940540E67F0D1223767F0A12237684
:10035300E53D20E706753B860203DFE53D54C0FF1C
:10036300BFC00FE4781EF67BFF7A1079CC120457D6
:10037300806A781E76097BFF7A1079EA1204577F28
:10038300801224477BFF7A11790C1204577F1012D5
:10039300243DE4F566756502F564F5637F10121775
:1003A300C08F3BE53B7035121C628F3B7F101224DC
:1003B3004C7F801224587BFF7A11791C853C5F1295
:1003C30004577BFF7A117931120457800F7F101283
:1003D300244C7F801224587F10122447E53B60078A
:1003E300F53AAF3A12205BE53A6004FF12205BAFA7
:0103F3003ACF
:0103F40022E6
:05243800781EE6FF2202
:10205B008F4DE54DB481097BFF7A11794F020457FF
:10206B00E54DB482097BFF7A117960020457E54D87
:10207B00B483097BFF7A117972020457E54DB4845E
:10208B00097BFF7A117981020457E54DB485097BF1
:10209B00FF7A117992020457E54DB486097BFF7ADA
:1020AB001179A7020457E54DB487097BFF7A1179A3
:0E20BB00B80204577BFF7A1179CD1204572228
:101E6100E4F539AB07AA06A905A804FF7E407D1950
:101E71007C01120BFAEFD39402500575C37080698F
:101E8100EFD39402400BEFD39404500575C37180D6
:101E910058EFD39404400BEFD39408500575C372E7
:101EA1008047EFD39408400BEFD39410500575C3CE
:101EB100738036EFD39410400BEFD3942050057507
:101EC100C3F08025EFD39420400BEFD3944050050D
:101ED10075C3F18014EFD39440400BEFD39480503D
:0B1EE1000575C3F2800375390FAF399F
:011EEC0022D3
:10229A00E4FDFC8FC5AFC4756C008F6D0DBD0001E8
:1022AA000CE56D54F07004ED4C70EAED4C601AE5E3
:1022BA006D5470700AE5C5120AE6E4FCFD801374D9
:1022CA00FF120AE6E4FCFD800974FF120AE67C00AC
:0422DA007D80AF054F
:0122DE0022DD
:04244C00EF429022A9
:05243D00EFF4529022B3
:1023170053873F438780C2AC759852E4F59BFCFD19
:102327007BC0FAF9F8120B6FA804A905AA06AB0738
:10233700E4FFFE7D2F7C0D120BFAEFF404F59A757E
:052347009B1ED299224B
:1023C300E4FDFC0DBD00010C209904ED4C70F4ED0F
:0F23D3004C60088F99AE07C29980027EF1AF0669
:0123E20022D8
:072429003098FDAF99C29845
:012430002289
:1022DF007D38E4FF12234C7F017E0012239D7D4841
:1022EF00E4FF12234C7F017E0012239D7D01E4FF4A
:1022FF0012234C7F027E0012239D7D0CE4FF1223DC
:08230F004C7F017E0002239DBA
:081EED008D398B3A8A3B893CD8
:101EF500EFF46010EF4480FDE4FF12234C7F017E78
:101F05000012239DE5397038F53DAB3AAA3BA93C53
:101F1500853D82F583120AB9F53EE53E604EFD7FAB
:101F25000112234C7F017E0012239D053DAB3AAA89
:101F35003BA93C853D82758300120AB9F53E80DADE
:101F4500E4F53DE53DC395395022AB3AAA3BA93CA2
:101F5500853D82758300120AB9F53EFD7F01122386
:0C1F65004C7F017E0012239D053D80D7BB
:011F7100224D
:101B9100E4F539743B2539F8E4F60539E539B40B38
:101BA100F274FFF549F548F547F546E4F539122495
:101BB100298F3AE53AC394304017E53AD394395026
:101BC10010743B2539F8A63A0539AF3A12237680CD
:101BD10050E53A64086005E53AB47F1A1539743B5B
:101BE1002539F8E4F67F081223C37F201223C37F2F
:101BF100081223C3802BE53A640D6005E53AB40A67
:101C01001D7B007A00793B121AB38F498E488D47AC
:101C11008C467F0D1223C37F0A1223C38003E4F590
:101C21003AE539B40A1B7B007A00793B121AB38F6B
:101C3100498E488D478C467F0D1223C37F0A12239C
:101C4100C374FFFFFEFDFCAB49AA48A947A846C3E0
:101C5100120CA27003021BAFAF49AE48AD47AC46B0
:011C61002260
:10234C008D3FEF70077F4012244280057F4012249E
:10235C00547F80122454AF3F12245C7F801224429D
:0A236C007FFF12245C7F400224541E
:10239D005389F0438901C2A9758CF4758A3DC28DAC
:1023AD00D28C308DFDC28CEF1F70011ED3EF9400C7
:0623BD00EE940050E32243
:03245C008F80224C
:05244200EFF452B0228E
:04245000EF42A02295
:04245400EF42B02281
:05244700EFF452A02299
:04245800EF42A0228D
:082200008F5A8E598D588C573E
:10220800E4F5611224388F607F1012243DAF5AAE76
:1022180059AD58AC57A960A801120CC68F668E65D7
:102228008D648C637F111217C08F61E561700FABED
:102238005DAA5EA95FAF5CAE5B1218C08F617F10AC
:0C22480012244CE56160037561F0AF6189
:012254002267
:1011DB002535642E20005B4449525D0A004572722E
:1011EB006F7220686173206F63637572656400446E
:1011FB00656275673A3A204F6666736574203020D6
:10120B006F6620536563746F7220302069732025DD
:10121B00780D0A00466F756E64204D42522E2E2EAD
:10122B000D0A0044656275673A3A204F666673652E
:10123B00742030206F662052656C6174697665206E
:10124B00536563746F727320697320256C780D0A74
:10125B000044656275673A3A2074656D7038206991
:10126B00732025780D0A004572726F72204250422E
:10127B00206E6F7420466F756E64210D0A0042500C
:10128B004220466F756E64210D0A004279746573B6
:10129B005065725365633A3A2025780D0A00536501
:1012AB0063506572436C75733A3A202562780D0A68
:1012BB000052737664536563746F72436F756E740B
:1012CB003A3A2025780D0A004E756D464154533A33
:1012DB003A202562780D0A00526F6F74456E747256
:1012EB0079436E743A3A2025780D0A00546F746175
:1012FB006C536563746F727331363A3A2025780DEF
:10130B000A00464154737A31363A3A2025780D0A51
:10131B0000546F74616C536563746F727333323A3C
:10132B003A20256C780D0A00464154737A33323AD1
:10133B003A20256C780D0A00526F6F74436C7573ED
:10134B007465723A3A20256C780D0A0053746172F9
:10135B00746F664641543A3A20256C780D0A005258
:10136B006F6F74446972536563733A3A20256C78D6
:10137B000D0A004669727374446174615365633A74
:10138B003A20256C780D0A004669727374526F6FA0
:10139B00744469725365633A3A20256C780D0A00E0
:1013AB00436C75737465722023203D20256C782067
:1013BB002C536563746F722023203D20256C780DB0
:1013CB000A00436C7573746572206E756D6265727D
:0913DB003A20256C78200D0A006F
:072431007B007A007908220C
:0F23E300E54E240BFFE4354DFEAB54AA55A95629
:0823F2008F828E83120AB9FFED
:0123FA0022C0
:0A2137008E4F8F508B518A5289534E
:10214100E4F557F556F555F554F558AB51E55325DA
:1021510050F9E552354FFAC374019558FFE49400E4
:10216100FEE92FF9EA3EFA120AA0FBAF57AE56ADCF
:1021710055AC547808120CC68F578E568D558C5419
:10218100AF03E4E5574FF557E556F556E555F555D7
:0F219100E554F5540558E558B402B0AE56AF57B3
:0121A000221C
:0A20C9008E558F568B578A5889599F
:1020D300E4F55DF55CF55BF55AF55EAB57E559251F
:1020E30056F9E5583555FAC37403955EFFE4940039
:1020F300FEE92FF9EA3EFA120AA0FBAF5DAE5CAD32
:102103005BAC5A7808120CC68F5D8E5C8D5B8C5A63
:10211300AF03E4E55D4FF55DE55CF55CE55BF55B21
:10212300E55AF55A055EE55EB404B0AF5DAE5CAD4D
:032133005BAC5A48
:012136002286
:0813E4008F3C8E3B8D3A8C39E1
:1013EC00755001853D51853E52E4F549F54AF54766
:1013FC00F5487809E6B4020F781A120D098F468E5B
:10140C00458D448C43800D7808E6FFE48F46F54506
:10141C00F544F543853C42853B41853A4085393F4F
:10142C00AF42AE41AD40AC3F780CE6F55B08E6F55B
:10143C005C85505D85515E85525F1222008F4FE5B1
:10144C004F60030215C0AB50AA51A952AF48AE472A
:10145C001223F28F4BE54B64E57003021532E54B1A
:10146C007003021532E548240BFFE43547FEAB5000
:10147C00AA51A9521223F28F4DE54D540E6003026E
:10148C001532054AE54A700205497BFF7A1179DB72
:10149C0085495FF560120457E4F54C7E00E548255C
:1014AC004CFFEE3547FEAB50AA51A9521223F28FD6
:1014BC004E122376054CE54CC3940840DEE54D30C6
:1014CC00E430754C087E00E548254CFFEE3547FEB0
:1014DC00AB50AA51A9521223F28F4E122376054C0F
:1014EC00E54CC3940B40DE7BFF7A1179E112045773
:1014FC0080347F2E122376754C087E00E548254CEF
:10150C00FFEE3547FEAB50AA51A9521223F28F4E73
:10151C00122376054CE54CC3940B40DE7F0D122351
:10152C00767F0A12237674202548F548E43547F572
:10153C0047D3E54894FEE5479401406FE54224010A
:10154C00F542E43541F541E43540F540E4353FF5ED
:10155C003FC3E542953CFFE541953BFEE540953A9E
:10156C00FDE53F9539FCAB46AA45A944A843D312E7
:10157C000CA24031AF42AE41AD40AC3F780CE6F529
:10158C005B08E6F55C85505D85515E85525F1222E5
:10159C00008F4FE54F6007E4F549F54AF54BE4F54C
:1015AC0047F5488006434980E4F54BE54B60030260
:1015BC001452800E7BFF7A1179E8120457E4F54936
:0615CC00F54AAE49AF4AEA
:0115D20022F6
:080D9A008F3C8E3B8D3A8C3931
:100DA200755401853F55854056E4F54FF550F54D94
:100DB200F54EF54CF54BF54AF5497809E6B4020FC4
:100DC200781A120D098F488E478D468C45800D7812
:100DD20008E6FFE48F48F547F546F545853C44852E
:100DE2003B43853A42853941AF44AE43AD42AC41C3
:100DF200780CE6F55B08E6F55C85545D85555E8505
:100E0200565F1222008F53E5536003020F9EAB54CC
:100E1200AA55A956AF4EAE4D1223F28F51E5516439
:100E2200E57003020F0EE5517003020F0E1223E369
:100E32008F52E552540E6003020F0E0550E55070BA
:100E420002054F653E7004E54F653D6003020F0EDB
:100E52007809E664047050E54E24151223E7E48F06
:100E62004CF54BF54AF549AE4BAD4AAC4978081200
:100E72000CC68F4C8E4B8D4A8C49E54E241412239E
:100E8200E7E4E54C4FF54CE54BF54BE54AF54AE511
:100E920049F549AF4CAE4BAD4AFC7808120CC68FEF
:100EA2004C8E4B8D4A8C49E54E241B1223E7E4E518
:100EB2004C4FF54CE54BF54BE54AF54AE549F5490A
:100EC200AF4CAE4BAD4AFC7808120CC68F4C8E4B21
:100ED2008D4A8C49E54E241A1223E7E4E54C4FF57E
:100EE2004CE54BF54BE54AF54AE549F5491223E352
:100EF2008F52E55230E412E54CF54CE54BF54BE5EB
:100F02004AF54AE5494410F549E4F5517420254E65
:100F1200F54EE4354DF54DD3E54E94FEE54D940185
:100F22004071E5442401F544E43543F543E4354298
:100F3200F542E43541F541C3E544953CFFE543956F
:100F42003BFEE542953AFDE5419539FCAB48AA479F
:100F5200A946A845D3120CA24036AF44AE43AD42D7
:100F6200AC41780CE6F55B08E6F55C85545D855589
:100F72005E85565F1222008F53E553600CE4F54CF8
:100F8200F54BF54A754980F551E4F54DF54E800370
:100F9200E4F551E5516003020E10800AE4F54CF5C8
:100FA2004BF54A754980E4FFFEFDFCAB4CAA4BA908
:100FB2004AA849C3120CA27009F54CF54BF54A75C3
:0A0FC2004980AF4CAE4BAD4AAC497C
:010FCC002202
:040751008E398F3A14
:10075500755B02755C00AA06A907755D018A5E894D
:100765005F7F007E007D007C001222008F3DAA394C
:10077500A93A7B01E4FFFE1223F28F3C7BFF7A113D
:1007850079FA853C5F120457E53C64EB7003020877
:1007950024E53C64E970030208247BFF7A12791F83
:1007A500120457AA39A93A7B017FC67E011220C9D6
:1007B5008F4E8E4D8D4C8C4B7BFF7A12792E8F622E
:1007C5008E618D608C5F120457AF4EAE4DAD4CAC53
:1007D5004B755B02755C00755D0185395E853A5F19
:1007E5001222008F3DAA39A93A7B01E4FFFE1223AC
:1007F500F28F3C7BFF7A12795C853C5F120457E5EA
:100805003C64EB6011E53C64E9600B7BFF7A12798F
:100815007212045780097BFF7A127989120457AA4C
:1008250039A93A7B017D007C021221A1AA39A93A96
:100835007B017F0B7E00122137780CA60608A607E0
:100845007BFF7A12799618E6F55F08E6F5601204E3
:1008550057AA39A93A7B017F0D7E001223F2780849
:10086500A6077BFF7A1279A9E6F55F120457AA3924
:10087500A93A7B017F0E7E001221378E3E8F3F7B8A
:10088500FF7A1279BC853E5F853F60120457AA390D
:10089500A93A7B017F107E001223F28F407BFF7AFD
:1008A5001279D385405F120457AA39A93A7B017F93
:1008B500117E001221378E418F427BFF7A1279E338
:1008C50085415F854260120457AA39A93A7B017FA9
:1008D500137E001221377BFF7A1279F78E5F8F60C6
:1008E500120457AA39A93A7B017F167E00122137D7
:1008F5007BFF7A13790D8E5F8F60120457AA39A991
:100905003A7B017F207E001220C97BFF7A13791C78
:100915008F628E618D608C5F120457AA39A93A7B6C
:10092500017F247E001220C98F468E458D448C435D
:100935007BFF7A1379338F628E618D608C5F120431
:1009450057AA39A93A7B017F2C7E001220C98F4A0C
:100955008E498D488C477BFF7A1379438F628E6170
:100965008D608C5F120457E4E53F254EFFE53E356B
:100975004DFEE4354CFDE4354BFC7816120D227B1B
:10098500FF7A1379577816120D098F628E618D6083
:100995008C5F120457E542AE417805C333CE33CEA2
:1009A500D8F9FF780CE6FC08E6FD24FFFBEC34FFE4
:1009B500CB2FFFEB3EFE120B1AE4FCFD781A120D4D
:1009C500227BFF7A13796A781A120D098F628E617C
:1009D5008D608C5F120457AF40E4FCFDFEAB46AA68
:1009E50045A944A843120B6FA804A905AA06AB079D
:1009F500E4FCFDEB253FFFEA353EFEED39FDEC3825
:100A0500FC781A120D15EF2BFFEE3AFEED39FDECD1
:100A150038FCEF254EFFEE354DFEED354CFDEC3542
:100A25004BFC7812120D227BFF7A13797E78121215
:100A35000D098F628E618D608C5F120457E54A2423
:100A4500FEFFE54934FFFEE54834FFFDE54734FF89
:100A5500FCC004A905AA06AB077808E6FFE4FCFD7F
:100A6500FED000120B6F7812120D15EF2BFFEE3A28
:100A7500FEED39FDEC38FC780E120D227BFF7A1362
:100A85007993780E120D098F628E618D608C5F12DD
:0A0A9500045778097604780B760206
:010A9F002234
:081FEA008F4E8E4D8D4C8C4B87
:101FF200E4FFFEFDFCAB4EAA4DA94CA84BC3120C4C
:10200200A2700F780E120D098F528E518D508C4F87
:10201200803EE54E24FEFFE54D34FFFEE54C34FFE5
:10202200FDE54B34FFFCC004A905AA06AB077808FE
:10203200E6FFE4FCFDFED000120B6F7812120D15C4
:10204200EF2BF552EE3AF551ED39F550EC38F54FEC
:08205200AF52AE51AD50AC4F8E
:01205A002263
:081D16008F4E8E4D8D4C8C4B5D
:101D1E00E47F04FEFDFCAB4EAA4DA94CA84B120B62
:101D2E006FC004C005C006C007780CE6FE08E6FFCB
:101D3E00E4FCFDF8F9AA06AB07D007D006D005D013
:101D4E0004120BFA7816120D15EF2BFFEE3AFEED7C
:101D5E0039FDEC38FC780CE6F55B08E6F55C755D54
:101D6E0001854F5E85505F122200E47F04FEFDFC6C
:101D7E00AB4EAA4DA94CA84B120B6FC004C005C0A8
:101D8E0006C007780CE6FE08E6FFE4FCFDF8F9AAAB
:101D9E0006AB07D007D006D005D004120BFAAE0260
:101DAE00AF03AA4FA9507B011220C9EFEEEDEC5400
:021DBE000FFC18
:011DC0002200
:0819BF008F3C8E3B8D3A8C3900
:1019C700AF3CAE3BAD3AAC39121FEA8F468E458D20
:1019D700448C438F428E418D408C3F7808E6FFE46C
:1019E700EF2546FFE43545FEE43544FDE43543FC89
:1019F700AB42AA41A940A83FC3120CA26055AF420F
:101A0700AE41AD40AC3F780CE6F55B08E6F55C759A
:101A17005D01853D5E853E5F1222007BFF7A13796B
:101A2700AB853C62853B61853A6085395F85426657
:101A3700854165854064853F63120457E54224016B
:101A4700F542E43541F541E43540F540E4353FF5ED
:101A57003F8088AF3CAE3BAD3AAC39853D4F853EC4
:101A670050121D168F3C8E3B8D3A8C3974FFFFFE4A
:101A7700FD7C0FAB3CAA3BA93AA839C3120CA26064
:101A8700030219C7AA3DA93E7B01780CE6FC08E6CC
:101A9700FD1221A17BFF7A1379CD853C62853B61DD
:0B1AA700853A6085395F1204577F000C
:011AB2002211
:0300000002241DBA
:0C241D00787FE4F6D8FD75816F0215D3BE
:100AA000BB010689828A83E0225002E722BBFE0254
:090AB000E32289828A83E4932287
:100AB900BB010CE58229F582E5833AF583E02250F2
:100AC90006E92582F8E622BBFE06E92582F8E2223C
:0D0AD900E58229F582E5833AF583E4932256
:100AE600BB010689828A83F0225002F722BBFE01EF
:020AF600F322E9
:100AF800F8BB010DE58229F582E5833AF583E8F034
:100B0800225006E92582C8F622BBFE05E92582C8DF
:020B1800F222C7
:100B1A00BC000BBE0029EF8DF084FFADF022E4CCBF
:100B2A00F875F008EF2FFFEE33FEEC33FCEE9DEC88
:100B3A00984005FCEE9DFE0FD5F0E9E4CEFD22EDCE
:100B4A00F8F5F0EE8420D21CFEADF075F008EF2F18
:100B5A00FFED33FD4007985006D5F0F222C398FD09
:050B6A000FD5F0EA22A6
:100B6F00E88FF0A4CC8BF0A42CFCE98EF0A42CFC25
:100B7F008AF0EDA42CFCEA8EF0A4CDA8F08BF0A4A3
:100B8F002DCC3825F0FDE98FF0A42CCD35F0FCEB02
:100B9F008EF0A4FEA9F0EB8FF0A4CFC5F02ECD39C7
:0F0BAF00FEE43CFCEAA42DCE35F0FDE43CFC2234
:100BBE0075F008758200EF2FFFEE33FECD33CDCCEE
:100BCE0033CCC58233C5829BED9AEC99E582984071
:100BDE000CF582EE9BFEED9AFDEC99FC0FD5F0D64E
:100BEE00E4CEFBE4CDFAE4CCF9A88222B800C1B978
:100BFE000059BA002DEC8BF084CFCECDFCE5F0CBB6
:100C0E00F97818EF2FFFEE33FEED33FDEC33FCEBEE
:100C1E0033FB10D703994004EB99FB0FD8E5E4F9A9
:100C2E00FA227818EF2FFFEE33FEED33FDEC33FC96
:100C3E00C933C910D7059BE99A4007EC9BFCE99A8A
:100C4E00F90FD8E0E4C9FAE4CCFB2275F010EF2FCF
:100C5E00FFEE33FEED33FDCC33CCC833C810D707CF
:100C6E009BEC9AE899400AED9BFDEC9AFCE899F80A
:0E0C7E000FD5F0DAE4CDFBE4CCFAE4C8F9229D
:100C8C00EB9FF5F0EA9E42F0E99D42F0EC6480C8DF
:060C9C0064809845F0227F
:100CA200EB9FF5F0EA9E42F0E99D42F0E89C45F0A8
:010CB200221F
:100CB300E8600FECC313FCED13FDEE13FEEF13FF1F
:030CC300D8F12243
:100CC600E8600FEFC333FFEE33FEED33FDEC33FC8C
:030CD600D8F12230
:100CD900BB010DE58229F582E5833AF583020D3CD6
:100CE9005007E92582F8020D09BBFE07E92582F8BC
:100CF900020D48E58229F582E5833AF583020D5410
:0C0D0900E6FC08E6FD08E6FE08E6FF2216
:0D0D1500E6FB08E6F908E6FA08E6CBF8224E
:0C0D2200ECF608EDF608EEF608EFF622FD
:10237600EFB40A07740D122381740A309811A899D4
:10238600B8130CC2983098FDA899C298B811F630C7
:0723960099FDC299F599229F
:1003F500E56B245FF8E6056B22785C300702785FD1
:10040500E475F001120D64020AA02000EB7F2ED2E4
:10041500008018EF540F2490D43440D4FF30040BDF
:10042500EF24BFB41A0050032461FFE56C60021588
:100435006C056FE56F7002056E30070D785CE4752D
:10044500F001120D64EF020AE60223767403D20767
:100455008003E4C207F56B8B5C8A5D895EE4F56C0D
:10046500F56EF56FE56C60077F2012043080F57539
:100475006DFFC201C200C202C203C205C206C208A4
:100485001203FEFF700D3007057F00120441AF6FA8
:10049500AE6E22B4255FC2D5C2041203FEFF24D07E
:1004A500B40A00501A75F00A786C30D50508B6FF05
:1004B5000106C6A426F620D5047002D20380D924ED
:1004C500CFB41A00EF5004C2E5D204020641D201AE
:1004D50080C6D20080C0D20280BCD2D580BAD205F7
:1004E50080B47F201204302002077401B56C0040EF
:1004F500F11203F5FF120430020469D208D2068016
:10050500951203F5FB1203F5FA1203F5F94A4B7040
:100515000679127A077BFF20022EE56C602A7E00A1
:100525008E82758300120AB960060EEE656D70F055
:10053500C2D5EBC0E0EAC0E0E9C0E0EE120688D023
:10054500E0F9D0E0FAD0E0FB120AA0FF60AAEBC008
:10055500E0EAC0E0E9C0E0120430D0E02401F9D0BF
:10056500E03400FAD0E0FBE56D0460DCD56DD980A0
:10057500877BFF7A067984D202809C791080027984
:1005850008C206C2088008D2D5790A8004790AC251
:10059500D5E56D047002F56DE4FAFDFEFF1203F575
:1005A500FC7B082001131203F5FD7B1030000A12B5
:1005B50003F5FE1203F5FF7B20EC3382D592D5506F
:1005C50013C3E43000069FFFE49EFEE42001039D73
:1005D500FDE49CFCE4CBF8C201EC700CCFCECDCC95
:1005E500E824F8F870F38017C3EF33FFEE33FEED20
:1005F50033FDEC33FCEB33FB994002FB0FD8E9EB01
:10060500300105F8D0E0C448B201C0E00AEC4D4E17
:100615004F78207B0070C2EAB56D0040BCC0E01287
:10062500068AD0F0D0E0200104C4C0E0C4B201C005
:10063500F0120419D0F0D5F0EB020469120D74051F
:10064500065305805804D74C04D34205844F058CC6
:1006550044058C4904EC43059255057646057645D7
:1006650005764707325004DB2D04DF2E05022B04E7
:10067500E32305002007202A049B48000004FA3FD5
:100685003F3F00790AA2D5200314300509B91002AD
:100695000404B9080104A2D5200602500104200271
:0506A500689202B56C33
:1006AA00005034C0E07F203003197F30A202720666
:1006BA007205500F1206E1C202C206C205C2087FC5
:1006CA0030800F300503E9C0E0120430300503D052
:1006DA00E0F9D0E0B56CCC3005177F30B9100C12B8
:1006EA0004307F583004077F788003B90803120466
:1006FA00303002057F2D0204307F202008F87F2B3E
:10070A002006F322920280CF286E756C6C29002D88
:10071A0050434958D2011203F53001F8C201786CEE
:10072A0030D50108F602049B1203F52403B4050030
:10073A004001E490071993120421743A120421D259
:07074A0003756C0402058039
:101AB3008B4A8A4B894CAB4AAA4BA94C120AA0FF0A
:101AC3001223FB500D7401254CF54CE4354BF54BBB
:101AD30080E4D200AB4AAA4BA94C120AA0FF642BA4
:101AE3006004EFB42D1BAB4A054CE54CAA4B7002C6
:101AF300054B14F9120AA0642D6003D38001C3922D
:101B030000E4F550F54FF54EF54DAB4AAA4BA94C01
:101B1300120AA0FF12240E505CE47F0AFEFDFCAB08
:101B230050AA4FA94EA84D120B6FC8ECC8EDC0E0E8
:101B3300EEC0E0EFC0E0AB4AAA4BA94C120AA0FFEB
:101B43003395E0FEEF24D0FFEE34FFFEE4FCFDD03E
:101B5300E0FBD0E0FAD0E0F9EB2FF550EA3EF54F89
:101B6300ED39F54EEC38F54D7401254CF54CE43563
:101B73004BF54B809530000AAF50AE4FAD4EAC4D98
:0E1B8300800BAF50AE4FAD4EAC4D120D2E226A
:0E0D2E00C3E49FFFE49EFEE49DFDE49CFC22D6
:0C0D3C00E0FCA3E0FDA3E0FEA3E0FF222A
:0C0D4800E2FC08E2FD08E2FE08E2FF22E7
:100D5400E493FC740193FD740293FE740393FF22E5
:100D6400FAE6FB0808E6F925F0F618E6CA3AF62290
:100D7400D083D082F8E4937012740193700DA3A30E
:100D840093F8740193F5828883E473740293686022
:060D9400EFA3A3A380DF22
:0F240E00EFC394304007EF943A50028001C3228D
:1023FB00EFC394094005EF940E4003BF2003D38035
:03240B0001C322E8
:00000001FF
