:101D4A005344204361726420546573742050726F47
:101D5A006772616D0A0D0A0A00496E707574204235
:101D6A006C6F636B233A20005344204361726420F2
:101D7A00496E69742E2E2E005374642E20436170AE
:101D8A0061636974790048696768204361706163B7
:041D9A0069747900EF
:1012E000758E0C758F017F0F121F9B7FE0121FA35D
:1012F0007F10121F92E4F52AF52BAE2AAF2BE4FCE7
:10130000FD7B607AEAF9F8C3120C9C400A052BE5D4
:101310002B70E7052A80E37F10121FA37F807E25B4
:10132000121E60121E287BFF7A1D794A1207B67BB7
:10133000FF7A1D7972E4FDFF1219E27F807E1A7D2B
:10134000067C001219568F2CE52C600C7F10121FA2
:10135000927F53121F0C80FE7F40121F92120003D7
:101360008F2CE52C600C7F10121F927F43121F0CF4
:1013700080FE7F40121FA37F807E1A7D067C0012B4
:1013800019568F2CE52C600C7F10121F927F501283
:101390001F0C80FEE4F52AF52B7400252BF58274D2
:1013A00000352AF58374FFF0052BE52B7002052A22
:1013B000B400E6E52AB402E1121F838F2DE52DB4B7
:1013C000090F7BFF7A1D7982E4FD7F401219E280CC
:1013D00010E52D700C7BFF7A1D7990FD7F4012196E
:1013E000E27E007F001203F58F2C7BFF7A1D79636C
:1013F0001207B61217238F258E248D238C22E4FE2C
:10140000A82D088005C333CE33CED8F9FFEE33952F
:10141000E08F298E28F527F5267F80121F92E52C74
:1014200060077F10121F9280FE7F80121FA3E52CA1
:0B14300060077F10121F9280FE80FEFC
:101D9E002570200025322E32625820004164647274
:101DAE002E202020302020312020322020332020D1
:101DBE00342020352020362020372020382020398E
:101DCE002020412020422020432020442020452056
:051DDE0020460A0D0083
:101A67008B4C8A4D894E8B618A6289637BFF7A1D15
:101A7700799E1207B6E4F54FAB4CAA4DA94E854F98
:101A870082758300120AC9F5507BFF7A1D79A2F58A
:101A9700611207B6054FE54FC3941040DBE4F54FDD
:101AA700AB4CAA4DA94E854F82758300120AC9F522
:101AB70050C394204007E550D3947F400375502EC0
:101AC700AF50121F0C054FE54FC3941040D27F0D46
:081AD700121F0C7F0A021F0C14
:0A1C96008B448A4589468C478D482F
:101CA0008B498A4A894BAE02AF0153070F7E00C3AE
:101CB000E99FF9EA9E8B49F54A894B7BFF7A1D79AA
:101CC000AA1207B6AB49AA4AA94B121A6774102583
:101CD0004BF54BE4354AF54AAB44E5462548F9E572
:101CE000453547FAEB8A838982C3E54B9582E54AFD
:041CF000958340D0C8
:011CF40022CD
:100D52005344204361726420496E697469616C690D
:100D62007A6174696F6E202E2E2E200A0D00434D7B
:100D720044302073656E74202E2E2E20005265732F
:100D8200706F6E7365203D2025322E3262580A0D37
:100D920000434D44382073656E74202E2E2E2000A1
:100DA200526573706F6E7365203D200025322E32BE
:100DB2006258200A0D0056657273696F6E203120E9
:100DC200534420436172642064657465637465648E
:100DD2002E0A0D005374616E646172642043617067
:100DE2006163697479204361726420646574656328
:100DF2007465642E0A0D0025322E32625820005688
:100E0200657273696F6E20322053442043617264AD
:100E12002064657465637465642E0A0D00434D4455
:100E220035382073656E74202E2E2E200041434DDE
:100E32004434312073656E74202E2E2E20005469A6
:100E42006D656F7574203D20256C75200A0D004874
:100E520069676820436170616369747920436172D4
:100E6200642044657465637465640A0D005374619B
:100E72006E646172642043617061636974792043B6
:100E82006172642044657465637465640A0D00438D
:100E92004D4431362073656E74202E2E2E20005262
:100EA2006573706F6E7365203D2025322E32625855
:100EB200200A0D00426C6F636B2073697A652073A0
:100EC200657420746F203531322062797465730A3B
:100ED2000D0053442054696D656F7574204572721C
:100EE2006F7200496C6C6567616C20436F6D6D6158
:100EF2006E640A0D00526573706F6E7365204572E1
:100F0200726F72004461746120546F6B656E20458C
:100F120072726F7200496E636F6D70617469626C98
:100F22006520566F6C746167650043617264206965
:100F32007320496E61637469766500535049206F6E
:100F4200722054696D656F7574204572726F7200FC
:0E0F5200556E6B6E6F776E204572726F720077
:0B143B00E4F56DF56CF56BF56A7F3A87
:021446008F69AC
:10144800E4F56FE569C394404003021540E569443B
:1014580040F56E7B007A007970FF121DE38F71E50D
:1014680071701CAF6DAE6CAD6BAC6A7818120CC3A2
:101478008F6E7B007A007970121DE38F718003757F
:101488006F87E56F702FE571702BE56DF56DE56C75
:10149800F56CE56BF56BE4F56AAF6DAE6CAD6BACF6
:1014A8006A7810120CC38F6E7B007A007970121D57
:1014B800E38F718003756F87E56F702DE571702973
:1014C800E56DF56DE56CF56CE4F56BF56AAF6DAE41
:1014D8006CAD6BAC6A7808120CC38F6E7B007A0017
:1014E8007970121DE38F718003756F87E56F70182F
:1014F800E5717014E56DFFE48F6EFB7A007970AFCB
:101508006E121DE38F718003756F87E56F702CE590
:10151800717028E5697005756E95800DE569B408E8
:1015280005756E878003756E017B007A007970AF50
:0D1538006E121DE38F718003756F82AF6F1F
:011545002283
:0717F400FB7A0079317F014F
:0817FB008F428B438A448945AB
:10180300E4F549F54AF5467B007A0079487FFF12F3
:101813001DE38F47054AE54A70020549E548B4FFD1
:101823000AE54A45496004E54760DCE5476005751C
:1018330046878061E54A454970057546818056AB08
:1018430043AA44A945E548120AF6E5486004640141
:101853007040E542D39401403C754900754A01C389
:10186300E54A9542E5499400502B7B007A0079487C
:101873007FFF121DE38F47AB43AA44A945854A82E4
:10188300854983E548120B08054AE54A70D10549A5
:1018930080CD7546837B007A0079487FFF121DE374
:0418A3008F47AF4676
:0118A700221E
:0A1546008E698F6A8B6B8A6C896DC9
:10155000E4F571F572F56F7B007A0079707FFF1208
:101560001DE38F6E0572E57270020571E57030E75C
:101570000AE57245716004E56E60DCE56E60067533
:101580006F87021635E57245717006756F81021618
:1015900035E5706003021632F571F5727B007A0052
:1015A00079707FFF121DE38F6E0572E57270020580
:1015B00071E570B4FF0AE57245716004E56E60DCA8
:1015C000E56E6005756F87806CE572457170057515
:1015D0006F818061E57064FE7053F571F572C3E54B
:1015E00072956AE571956950287B007A0079707F61
:1015F000FF121DE38F6EAB6BAA6CA96D857282859D
:101600007183E570120B080572E57270D105718067
:10161000CD7B007A0079707FFF121DE38F6E7B0017
:101620007A0079707FFF121DE38F6E8008756F84DA
:101630008003756F837B007A0079707FFF121DE352
:041640008F6EAF6F8B
:011644002283
:10000300E4F52F781A76FF7F10121F977BFF7A0D86
:1000130079521207B6E4F52E7B007A0079397FFF17
:10002300121DE38F30052EE52EC3940A40EA7F802C
:10003300121F927BFF7A0D79701207B67F10121F81
:1000430088E4F56DF56CF56BF56AFF1214468F3095
:10005300E53070131217F48F307BFF7A0D797F85AB
:1000630031611207B680057F10121F927F10121F95
:10007300977F80121FA3E5306002F52FE52F600301
:100083000201627F80121F927BFF7A0D7993120720
:10009300B67F10121F88E4756DAA756C01F56BF5B8
:1000A3006A7F081214468F30E5306003020153FB68
:1000B3007A0079317F051217FB8F307F10121F975B
:1000C3007F80121FA3E530603F7BFF7A0D79A21278
:1000D30007B67BFF7A0D79AE8531611207B6E5303D
:1000E300B48320E531B4051BE4F52F781A76097B38
:1000F300FF7A0D79B81207B67BFF7A0D79D612070E
:10010300B6805C85302F80577BFF7A0D79A212076A
:10011300B6E4F52E7BFF7A0D79F97431252EF8E6D6
:10012300F5611207B6052EE52EC3940540E67F0D53
:10013300121EBF7F0A121EBFE53564AA6003753025
:1001430083781A76027BFF7A0E79011207B6800F45
:100153007F10121F977F80121FA37F10121F92E53B
:100163002F60030201ED7F80121F927BFF7A0E79CD
:100173001F1207B67F10121F8812143B8F30E53011
:100183007053FB7A0079317F051217FB8F307F1094
:10019300121F977F80121FA37BFF7A0D79A212078C
:1001A300B6E4F52E7BFF7A0D79F97431252EF8E646
:1001B300F5611207B6052EE52EC3940540E67F0DC3
:1001C300121EBF7F0A121EBFE53354FC64FC601489
:1001D300753085800F7F10121F977F80121FA37FBA
:1001E30010121F92E5306002F52FE52F6003020223
:1001F300DD781AE6B4020CE4F53DF53CF53B753ABF
:10020300408009E4F53DF53CF53BF53AE4F541F56D
:1002130040F53FF53E7F20121F927BFF7A0E792F28
:100223001207B67F10121F88E4F56DF56CF56BF5B8
:100233006A7F371214468F30E53070051217F48F3A
:1002430030E53164016004E5317013853D6D853C13
:100253006C853B6B853A6A7F291214468F30E530F3
:1002630070031217F47F10121F97E5412401F54123
:10027300E43540F540E4353FF53FE4353EF53EE4F3
:10028300FFFEFDFCAB41AA40A93FA83EC3120CB23E
:100293007003753081E53130E004E5306085E53089
:1002A30070137F20121FA37BFF7A0D797F85316145
:1002B3001207B6800A7F80121FA37F10121F927B42
:1002C300FF7A0E7940854164854063853F62853EB0
:1002D300611207B6E5306002F52FE52F60030203D4
:1002E300EA781AE6640260030203EA7F80121F922F
:1002F3007BFF7A0E791F1207B67F10121F88121424
:100303003B8F30E53060030203D0FB7A0079317F05
:10031300051217FB8F307F10121F977F80121FA3C8
:100323007BFF7A0D79A21207B6E4F52E7BFF7A0DD7
:1003330079F97431252EF8E6F5611207B6052EE535
:100343002EC3940540E67F0D121EBF7F0A121EBF07
:10035300E53220E7067530860203DFE53254C0FF3D
:10036300BFC00FE4781AF67BFF7A0E79511207B6F5
:10037300806A781A76097BFF7A0E796F1207B67F47
:1003830080121F927BFF7A0E79911207B67F1012AB
:100393001F88E4F56D756C02F56BF56A7F10121416
:1003A300468F30E53070351217F48F307F10121FEF
:1003B300977F80121FA37BFF7A0E79A1853161128B
:1003C30007B67BFF7A0E79B61207B6800F7F10123D
:1003D3001F977F80121FA37F10121F92E5306007C3
:1003E300F52FAF2F121B50E52F6004FF121B50AFE8
:0103F3002FDA
:0103F40022E6
:051F8300781AE6FF22C0
:101B50008F42E542B481097BFF7A0E79D40207B641
:101B6000E542B482097BFF7A0E79E50207B6E542C9
:101B7000B483097BFF7A0E79F70207B6E542B48495
:101B8000097BFF7A0F79060207B6E542B485097B27
:101B9000FF7A0F79170207B6E542B486097BFF7A10
:101BA0000F792C0207B6E542B487097BFF7A0F79DB
:0E1BB0003D0207B67BFF7A0F79521207B6226C
:10195600E4F52EAB07AA06A905A804FF7E407D196B
:101966007C01120C0AEFD39402500575C37080698E
:10197600EFD39402400BEFD39404500575C37180E6
:1019860058EFD39404400BEFD39408500575C372F7
:101996008047EFD39408400BEFD39410500575C3DE
:1019A600738036EFD39410400BEFD3942050057517
:1019B600C3F08025EFD39420400BEFD3944050051D
:1019C60075C3F18014EFD39440400BEFD39480504D
:0B19D6000575C3F28003752E0FAF2EC5
:0119E10022E3
:101DE300E4FDFC8FC5AFC47573008F740DBD000196
:101DF3000CE57454F07004ED4C70EAED4C601AE598
:101E0300745470700AE5C5120AF6E4FCFD8013747D
:101E1300FF120AF6E4FCFD800974FF120AF67C0047
:041E23007D80AF050A
:011E27002298
:041F9700EF42902263
:051F8800EFF45290226D
:101E600053873F438780C2AC759852E4F59BFCFDD5
:101E70007BC0FAF9F8120B7FA804A905AA06AB07E4
:101E8000E4FFFE7D2F7C0D120C0AEFF404F59A7529
:051E90009B1ED2992207
:101F0C00E4FDFC0DBD00010C209904ED4C70F4EDCA
:0F1F1C004C60088F99AE07C29980027EF1AF0624
:011F2B002293
:071F74003098FDAF99C298FF
:011F7B002243
:101E28007D38E4FF121E957F017E00121EE67D4874
:101E3800E4FF121E957F017E00121EE67D01E4FF7D
:101E4800121E957F027E00121EE67D0CE4FF121E14
:081E5800957F017E00021EE6E9
:0819E2008D2E8B2F8A30893114
:1019EA00EFF46010EF4480FDE4FF121E957F017E44
:1019FA0000121EE6E52E7038F532AB2FAA30A93157
:101A0A00853282F583120AC9F533E533604EFD7FCC
:101A1A0001121E957F017E00121EE60532AB2FAA27
:101A2A0030A931853282758300120AC9F53380DA0A
:101A3A00E4F532E532C3952E5022AB2FAA30A931F4
:101A4A00853282758300120AC9F533FD7F01121EA1
:0C1A5A00957F017E00121EE6053280D749
:011A6600225D
:10172300E4F52E7430252EF8E4F6052EE52EB40BE1
:10173300F274FFF53EF53DF53CF53BE4F52E121F43
:10174300748F2FE52FC394304017E52FD39439506E
:10175300107430252EF8A62F052EAF2F121EBF8032
:1017630050E52F64086005E52FB47F1A152E7430F9
:10177300252EF8E4F67F08121F0C7F20121F0C7F22
:1017830008121F0C802BE52F640D6005E52FB40AAA
:101793001D7B007A0079301216458F3E8E3D8D3CBD
:1017A3008C3B7F0D121F0C7F0A121F0C8003E4F584
:1017B3002FE52EB40A1B7B007A0079301216458F71
:1017C3003E8E3D8D3C8C3B7F0D121F0C7F0A121FFA
:1017D3000C74FFFFFEFDFCAB3EAA3DA93CA83BC336
:1017E300120CB27003021741AF3EAE3DAD3CAC3BB1
:0117F30022D3
:101E95008D34EF70077F40121F8D80057F40121F24
:101EA5009F7F80121F9FAF34121FA77F80121F8D47
:0A1EB5007FFF121FA77F40021F9F4E
:101EE6005389F0438901C2A9758CF4758A3DC28D68
:101EF600D28C308DFDC28CEF1F70011ED3EF940083
:061F0600EE940050E322FE
:031FA7008F802206
:051F8D00EFF452B02248
:041F9B00EF42A0224F
:041F9F00EF42B0223B
:051F9200EFF452A02253
:041FA300EF42A02247
:081CF5008F618E608D5F8C5E33
:101CFD00E4F568121F838F677F10121F88AF61AEE6
:101D0D0060AD5FAC5EA967A801120CD68F6D8E6CAD
:101D1D008D6B8C6A7F111214468F68E568700FAB5E
:101D2D0064AA65A966AF63AE621215468F687F100F
:0C1D3D00121F97E5686003756801AF682D
:011D49002277
:100F60002535642E20005B4449525D0A00457272AB
:100F70006F7220686173206F6363757265640044EB
:100F8000656275673A3A204F666673657420302053
:100F90006F6620536563746F72203020697320255B
:100FA000780D0A00466F756E64204D42522E2E2E2B
:100FB0000D0A0044656275673A3A204F66667365AC
:100FC000742030206F662052656C617469766520EC
:100FD000536563746F727320697320256C780D0AF2
:100FE0000044656275673A3A2074656D703820690F
:100FF000732025780D0A004572726F7220425042AC
:10100000206E6F7420466F756E64210D0A00425089
:101010004220466F756E64210D0A00427974657333
:101020005065725365633A3A2025780D0A0053657E
:1010300063506572436C75733A3A202562780D0AE5
:101040000052737664536563746F72436F756E7488
:101050003A3A2025780D0A004E756D464154533AB0
:101060003A202562780D0A00526F6F74456E7472D3
:1010700079436E743A3A2025780D0A00546F7461F2
:101080006C536563746F727331363A3A2025780D6C
:101090000A00464154737A31363A3A2025780D0ACF
:1010A00000546F74616C536563746F727333323ABA
:1010B0003A20256C780D0A00464154737A33323A4F
:1010C0003A20256C780D0A00526F6F74436C75736B
:1010D0007465723A3A20256C780D0A005374617277
:1010E000746F664641543A3A20256C780D0A0052D6
:1010F0006F6F74446972536563733A3A20256C7854
:101100000D0A004669727374446174615365633AF1
:101110003A20256C780D0A004669727374526F6F1D
:10112000744469725365633A3A20256C780D0A005D
:071F7C007B007A0079752259
:101F2C007E00E5532557FFEE3552FEAB5BAA5CA94C
:011F3C005D47
:081F3D008F828E83120AC9FF96
:011F45002279
:0A1C2C008E448F458B468A47894895
:101C3600E4F54CF54BF54AF549F54DAB46E5482537
:101C460045F9E5473544FAC37401954DFFE4940020
:101C5600FEE92FF9EA3EFA120AB0FBAF4CAE4BADE5
:101C66004AAC497808120CD68F4C8E4B8D4A8C495B
:101C7600AF03E4E54C4FF54CE54BF54BE54AF54A29
:0F1C8600E549F549054DE54DB402B0AE4BAF4C05
:011C9500222C
:0A1BBE008E448F458B468A47894804
:101BC800E4F54CF54BF54AF549F54DAB46E54825A6
:101BD80045F9E5473544FAC37403954DFFE494008D
:101BE800FEE92FF9EA3EFA120AB0FBAF4CAE4BAD54
:101BF8004AAC497808120CD68F4C8E4B8D4A8C49CA
:101C0800AF03E4E54C4FF54CE54BF54BE54AF54A97
:101C1800E549F549054DE54DB404B0AF4CAE4BADC3
:031C28004AAC497A
:011C2B002296
:081130008F478E468D458C446B
:10113800755B0185485C85495DE4F554F555F552C4
:10114800F5537876E6B4020F7887120CE98F518E42
:10115800508D4F8C4E800D7875E6FFE48F51F55019
:10116800F54FF54E85474D85464C85454B85444A98
:10117800AF4DAE4CAD4BAC4A7879E6F56208E6F572
:1011880063855B64855C65855D66121CF58F5AE531
:101198005A60030212CDAB5BAA5CA95DAF53AE5295
:1011A800121F3D8F56E55664E5700302123FE5565F
:1011B800700302123FE553240BFFE4121F348F58CB
:1011C800E558540E70710555E555700205547BFFBE
:1011D8007A0F7960855461F5621207B6E4F5571203
:1011E8001F2C8F59121EBF0557E557C3940840EFAF
:1011F800E55830E41F755708121F2C8F59121EBF6F
:101208000557E557C3940B40EF7BFF7A0F796612B9
:1012180007B680237F2E121EBF755708121F2C8F0A
:1012280059121EBF0557E557C3940B40EF7F0D12A7
:101238001EBF7F0A121EBF74202553F553E4355292
:10124800F552D3E55394FEE5529401406FE54D24E1
:1012580001F54DE4354CF54CE4354BF54BE4354A96
:10126800F54AC3E54D9547FFE54C9546FEE54B9598
:1012780045FDE54A9544FCAB51AA50A94FA84ED369
:10128800120CB24031AF4DAE4CAD4BAC4A7879E65A
:10129800F56208E6F563855B64855C65855D6612C5
:1012A8001CF58F5AE55A6007E4F554F555F556E4F0
:1012B800F552F5538006435480E4F556E55660032D
:1012C80002119E800E7BFF7A0F796D1207B6E4F546
:0712D80054F555AE54AF556B
:0112DF0022EC
:0403F5008E2E8F2F8A
:1003F900756202756300AA06A9077564018A658991
:10040900667F007E007D007C00121CF58F32AA2ECB
:10041900A92F7B01E4FFFE121F3D8F317BFF7A0F6D
:10042900797F8531611207B6E53164EB7003020407
:10043900C8E53164E970030204C87BFF7A0F79A427
:100449001207B6AA2EA92F7B017FC67E01121BBEF9
:100459008F438E428D418C407BFF7A0F79B38F6435
:100469008E638D628C611207B6AF43AE42AD41AC6B
:1004790040756202756300756401852E65852F6676
:10048900121CF58F32AA2EA92F7B01E4FFFE121F41
:100499003D8F317BFF7A0F79E18531611207B6E52E
:1004A9003164EB6011E53164E9600B7BFF7A0F7908
:1004B900F71207B680097BFF7A10790E1207B6AAE0
:1004C9002EA92F7B017D007C02121C96AA2EA92F32
:1004D9007B017F0B7E00121C2C7879A60608A607E3
:1004E9007BFF7A10791B18E6F56108E6F5621207B9
:1004F900B6AA2EA92F7B017F0D7E00121F3D7875AC
:10050900A6077BFF7A10792EE6F5611207B6AA2EA7
:10051900A92F7B017F0E7E00121C2C8E338F347B1A
:10052900FF7A1079418533618534621207B6AA2EA4
:10053900A92F7B017F107E00121F3D8F357BFF7A2B
:100549001079588535611207B6AA2EA92F7B017F2C
:10055900117E00121C2C8E368F377BFF7A1079683A
:100569008536618537621207B6AA2EA92F7B017FCE
:10057900137E00121C2C7BFF7A10797C8E618F62AE
:100589001207B6AA2EA92F7B017F167E00121C2CFA
:100599007BFF7A1079928E618F621207B6AA2EA913
:1005A9002F7B017F207E00121BBE7BFF7A1079A171
:1005B9008F648E638D628C611207B6AA2EA92F7B78
:1005C900017F247E00121BBE8F3B8E3A8D398C38F9
:1005D9007BFF7A1079B88F648E638D628C61120704
:1005E900B6AA2EA92F7B017F2C7E00121BBE8F3F3E
:1005F9008E3E8D3D8C3C7BFF7A1079C88F648E636B
:100609008D628C611207B6E4E5342543FFE5333585
:1006190042FEE43541FDE43540FC7883120D027B4E
:10062900FF7A1079DC7883120CE98F648E638D620E
:100639008C611207B6E537AE367805C333CE33CEB3
:10064900D8F9FF7879E6FC08E6FD24FFFBEC34FFD6
:10065900CB2FFFEB3EFE120B2AE4FCFD7887120D2F
:10066900027BFF7A1079EF7887120CE98F648E6329
:100679008D628C611207B6AF35E4FCFDFEAB3BAA77
:100689003AA939A838120B7FA804A905AA06AB070D
:10069900E4FCFDEB2534FFEA3533FEED39FDEC389A
:1006A900FC7887120CF5EF2BFFEE3AFEED39FDECE5
:1006B90038FCEF2543FFEE3542FEED3541FDEC35C3
:1006C90040FC787F120D027BFF7A117903787F1243
:1006D9000CE98F648E638D628C611207B6E53F2445
:1006E900FEFFE53E34FFFEE53D34FFFDE53C34FF0A
:1006F900FCC004A905AA06AB077875E6FFE4FCFD72
:10070900FED000120B7F787F120CF5EF2BFFEE3A2B
:10071900FEED39FDEC38FC787B120D027BFF7A1176
:100729007918787B120CE98F648E638D628C611263
:1007390007B67876760478787602787B120CE985A4
:0A0749002E48852F49121130AF32FF
:010753002283
:081ADF008F158E148D138C127B
:101AE700E4FFFEFDFCAB15AA14A913A812C3120C40
:101AF700B2700F787B120CE98F198E188D178C1620
:101B0700803EE51524FEFFE51434FFFEE51334FFA0
:101B1700FDE51234FFFCC004A905AA06AB077875DA
:101B2700E6FFE4FCFDFED000120B7F787F120CF578
:101B3700EF2BF519EE3AF518ED39F517EC38F516E0
:081B4700AF19AE18AD17AC1682
:011B4F002273
:0818A8008F0B8E0A8D098C08DC
:1018B000E47F04FEFDFCAB0BAA0AA909A808120BE1
:1018C0007F8F118E108D0F8C0E7879E6FE08E6FF63
:1018D000E4FCFDF8F9AA06AB07AF11AE10AD0FACF2
:1018E0000E120C0A7883120CF5EF2BFFEE3AFEED88
:1018F00039FDEC38FC7879E6F56208E6F563756445
:1019000001850C65850D66121CF5AF11AE10AD0F8B
:10191000AC0EC004C005C006C0077879E6FE08E634
:10192000FFE4FCFDF8F9AA06AB07D007D006D00506
:10193000D004120C0AAC00AD01AE02AF038F118EC1
:10194000108D0F8C0EAA0CA90D7B01121BBEEFEEA1
:05195000EDEC540FFC5A
:01195500226F
:03000000021F6874
:0C1F6800787FE4F6D8FD75818A0212E053
:100AB000BB010689828A83E0225002E722BBFE0244
:090AC000E32289828A83E4932277
:100AC900BB010CE58229F582E5833AF583E02250E2
:100AD90006E92582F8E622BBFE06E92582F8E2222C
:0D0AE900E58229F582E5833AF583E4932246
:100AF600BB010689828A83F0225002F722BBFE01DF
:020B0600F322D8
:100B0800F8BB010DE58229F582E5833AF583E8F023
:100B1800225006E92582C8F622BBFE05E92582C8CF
:020B2800F222B7
:100B2A00BC000BBE0029EF8DF084FFADF022E4CCAF
:100B3A00F875F008EF2FFFEE33FEEC33FCEE9DEC78
:100B4A00984005FCEE9DFE0FD5F0E9E4CEFD22EDBE
:100B5A00F8F5F0EE8420D21CFEADF075F008EF2F08
:100B6A00FFED33FD4007985006D5F0F222C398FDF9
:050B7A000FD5F0EA2296
:100B7F00E88FF0A4CC8BF0A42CFCE98EF0A42CFC15
:100B8F008AF0EDA42CFCEA8EF0A4CDA8F08BF0A493
:100B9F002DCC3825F0FDE98FF0A42CCD35F0FCEBF2
:100BAF008EF0A4FEA9F0EB8FF0A4CFC5F02ECD39B7
:0F0BBF00FEE43CFCEAA42DCE35F0FDE43CFC2224
:100BCE0075F008758200EF2FFFEE33FECD33CDCCDE
:100BDE0033CCC58233C5829BED9AEC99E582984061
:100BEE000CF582EE9BFEED9AFDEC99FC0FD5F0D63E
:100BFE00E4CEFBE4CDFAE4CCF9A88222B800C1B968
:100C0E000059BA002DEC8BF084CFCECDFCE5F0CBA5
:100C1E00F97818EF2FFFEE33FEED33FDEC33FCEBDE
:100C2E0033FB10D703994004EB99FB0FD8E5E4F999
:100C3E00FA227818EF2FFFEE33FEED33FDEC33FC86
:100C4E00C933C910D7059BE99A4007EC9BFCE99A7A
:100C5E00F90FD8E0E4C9FAE4CCFB2275F010EF2FBF
:100C6E00FFEE33FEED33FDCC33CCC833C810D707BF
:100C7E009BEC9AE899400AED9BFDEC9AFCE899F8FA
:0E0C8E000FD5F0DAE4CDFBE4CCFAE4C8F9228D
:100C9C00EB9FF5F0EA9E42F0E99D42F0EC6480C8CF
:060CAC0064809845F0226F
:100CB200EB9FF5F0EA9E42F0E99D42F0E89C45F098
:010CC200220F
:100CC300E8600FECC313FCED13FDEE13FEEF13FF0F
:030CD300D8F12233
:100CD600E8600FEFC333FFEE33FEED33FDEC33FC7C
:030CE600D8F12220
:0C0CE900E6FC08E6FD08E6FE08E6FF2237
:0D0CF500E6FB08E6F908E6FA08E6CBF8226F
:0C0D0200ECF608EDF608EEF608EFF6221D
:101EBF00EFB40A07740D121ECA740A309811A8994C
:101ECF00B8130CC2983098FDA899C298B811F63083
:071EDF0099FDC299F599225B
:10075400E56D2461F8E6056D22785E300702786164
:10076400E475F001120D1C020AB02000EB7F2ED2BA
:10077400008018EF540F2490D43440D4FF30040B7D
:10078400EF24BFB41A0050032461FFE56E60021524
:100794006E0571E5717002057030070D785EE475C1
:1007A400F001120D1CEF020AF6021EBF7403D207F9
:1007B4008003E4C207F56D8B5E8A5F8960E4F56EA1
:1007C400F570F571E56E60077F2012078F80F5756F
:1007D4006FFFC201C200C202C203C205C206C20840
:1007E40012075DFF700D3007057F001207A0AF717F
:1007F400AE7022B4255FC2D5C20412075DFF24D0B7
:10080400B40A00501A75F00A786E30D50508B6FFA0
:100814000106C6A426F620D5047002D20380D9248A
:10082400CFB41A00EF5004C2E5D2040209A0D201E9
:1008340080C6D20080C0D20280BCD2D580BAD20594
:1008440080B47F2012078F2002077401B56E004028
:10085400F1120754FF12078F0207C8D208D206808C
:1008640095120754FB120754FA120754F94A4B70B5
:100874000679717A0A7BFF20022EE56E602A7E00DB
:100884008E82758300120AC960060EEE656F70F0E1
:10089400C2D5EBC0E0EAC0E0E9C0E0EE1209E7D05F
:1008A400E0F9D0E0FAD0E0FB120AB0FF60AAEBC096
:1008B400E0EAC0E0E9C0E012078FD0E02401F9D0FB
:1008C400E03400FAD0E0FBE56F0460DCD56FD9803A
:1008D400877BFF7A0979E3D202809C7910800279C0
:1008E40008C206C2088008D2D5790A8004790AC2EF
:1008F400D5E56F047002F56FE4FAFDFEFF120754AC
:10090400FC7B08200113120754FD7B1030000A12EF
:100914000754FE120754FF7B20EC3382D592D55046
:1009240013C3E43000069FFFE49EFEE42001039D10
:10093400FDE49CFCE4CBF8C201EC700CCFCECDCC32
:10094400E824F8F870F38017C3EF33FFEE33FEEDBD
:1009540033FDEC33FCEB33FB994002FB0FD8E9EB9E
:10096400300105F8D0E0C448B201C0E00AEC4D4EB5
:100974004F78207B0070C2EAB56F0040BCC0E01223
:1009840009E9D0F0D0E0200104C4C0E0C4B201C041
:10099400F0120778D0F0D5F0EB0207C8120D2C083E
:1009A400655308DF5808364C08324208E34F08EB19
:1009B4004408EB49084B4308F15508D54608D5458A
:1009C40008D5470A9150083A2D083E2E08612B0895
:1009D4004223085F200A7F2A07FA48000008593F8B
:1009E4003F3F00790AA2D5200314300509B910024B
:1009F4000404B9080104A2D520060250010420020F
:050A0400689202B56ECE
:100A0900005034C0E07F203003197F30A202720603
:100A19007205500F120A40C202C206C205C2087FFF
:100A290030800F300503E9C0E012078F300503D08D
:100A3900E0F9D0E0B56ECC3005177F30B9100C1253
:100A4900078F7F583004077F788003B9080312079E
:100A59008F3002057F2D02078F7F202008F87F2B1A
:100A69002006F322920280CF286E756C6C29002D26
:100A790050434958D2011207543001F8C201786E27
:100A890030D50108F60207FA1207542403B4050009
:100A99004001E4900A7893120780743A120780D2D1
:070AA90003756E040208DF73
:101645008B3F8A408941AB3FAA40A941120AB0FFAE
:10165500121F46500D74012541F541E43540F54012
:1016650080E4D200AB3FAA40A941120AB0FF642B27
:101675006004EFB42D1BAB3F0541E541AA40700264
:10168500054014F9120AB0642D6003D38001C3929A
:1016950000E4F545F544F543F542AB3FAA40A941C1
:1016A500120AB0FF121F59505CE47F0AFEFDFCAB25
:1016B50045AA44A943A842120B7FC8ECC8EDC0E077
:1016C500EEC0E0EFC0E0AB3FAA40A941120AB0FF6F
:1016D5003395E0FEEF24D0FFEE34FFFEE4FCFDD0B1
:1016E500E0FBD0E0FAD0E0F9EB2FF545EA3EF54412
:1016F500ED39F543EC38F54274012541F541E43502
:1017050040F540809530000AAF45AE44AD43AC424C
:0E171500800BAF45AE44AD43AC42120D0E2228
:0E0D0E00C3E49FFFE49EFEE49DFDE49CFC22F6
:100D1C00FAE6FB0808E6F925F0F618E6CA3AF622D8
:100D2C00D083D082F8E4937012740193700DA3A356
:100D3C0093F8740193F5828883E47374029368606A
:060D4C00EFA3A3A380DF6A
:0F1F5900EFC394304007EF943A50028001C32247
:101F4600EFC394094005EF940E4003BF2003D380EE
:031F560001C322A2
:00000001FF
